{
	"helloworld.sol": {
		"greatestnum": {
			"abi": [
				{
					"inputs": [],
					"stateMutability": "nonpayable",
					"type": "constructor"
				},
				{
					"inputs": [],
					"name": "get",
					"outputs": [
						{
							"internalType": "uint256",
							"name": "",
							"type": "uint256"
						}
					],
					"stateMutability": "view",
					"type": "function"
				},
				{
					"inputs": [
						{
							"internalType": "uint256",
							"name": "_a",
							"type": "uint256"
						},
						{
							"internalType": "uint256",
							"name": "_b",
							"type": "uint256"
						},
						{
							"internalType": "uint256",
							"name": "_c",
							"type": "uint256"
						},
						{
							"internalType": "uint256",
							"name": "_d",
							"type": "uint256"
						}
					],
					"name": "set",
					"outputs": [],
					"stateMutability": "nonpayable",
					"type": "function"
				}
			],
			"devdoc": {
				"kind": "dev",
				"methods": {},
				"version": 1
			},
			"evm": {
				"assembly": "    /* \"helloworld.sol\":91:873  contract greatestnum{... */\n  mstore(0x40, 0x80)\n    /* \"helloworld.sol\":194:244  constructor(){... */\n  callvalue\n  dup1\n  iszero\n  tag_1\n  jumpi\n  0x00\n  dup1\n  revert\ntag_1:\n  pop\n    /* \"helloworld.sol\":226:236  msg.sender */\n  caller\n    /* \"helloworld.sol\":218:223  owner */\n  0x04\n  0x00\n    /* \"helloworld.sol\":218:236  owner = msg.sender */\n  0x0100\n  exp\n  dup2\n  sload\n  dup2\n  0xffffffffffffffffffffffffffffffffffffffff\n  mul\n  not\n  and\n  swap1\n  dup4\n  0xffffffffffffffffffffffffffffffffffffffff\n  and\n  mul\n  or\n  swap1\n  sstore\n  pop\n    /* \"helloworld.sol\":91:873  contract greatestnum{... */\n  dataSize(sub_0)\n  dup1\n  dataOffset(sub_0)\n  0x00\n  codecopy\n  0x00\n  return\nstop\n\nsub_0: assembly {\n        /* \"helloworld.sol\":91:873  contract greatestnum{... */\n      mstore(0x40, 0x80)\n      callvalue\n      dup1\n      iszero\n      tag_1\n      jumpi\n      0x00\n      dup1\n      revert\n    tag_1:\n      pop\n      jumpi(tag_2, lt(calldatasize, 0x04))\n      shr(0xe0, calldataload(0x00))\n      dup1\n      0x606ce3bf\n      eq\n      tag_3\n      jumpi\n      dup1\n      0x6d4ce63c\n      eq\n      tag_4\n      jumpi\n    tag_2:\n      0x00\n      dup1\n      revert\n        /* \"helloworld.sol\":365:507  function set (uint _a, uint _b, uint _c, uint _d) public onlyOwner{... */\n    tag_3:\n      tag_5\n      0x04\n      dup1\n      calldatasize\n      sub\n      dup2\n      add\n      swap1\n      tag_6\n      swap2\n      swap1\n      tag_7\n      jump\t// in\n    tag_6:\n      tag_8\n      jump\t// in\n    tag_5:\n      stop\n        /* \"helloworld.sol\":515:870  function get() public view onlyOwner returns(uint){... */\n    tag_4:\n      tag_9\n      tag_10\n      jump\t// in\n    tag_9:\n      mload(0x40)\n      tag_11\n      swap2\n      swap1\n      tag_12\n      jump\t// in\n    tag_11:\n      mload(0x40)\n      dup1\n      swap2\n      sub\n      swap1\n      return\n        /* \"helloworld.sol\":365:507  function set (uint _a, uint _b, uint _c, uint _d) public onlyOwner{... */\n    tag_8:\n        /* \"helloworld.sol\":301:311  msg.sender */\n      caller\n        /* \"helloworld.sol\":292:311  owner == msg.sender */\n      0xffffffffffffffffffffffffffffffffffffffff\n      and\n        /* \"helloworld.sol\":292:297  owner */\n      0x04\n      0x00\n      swap1\n      sload\n      swap1\n      0x0100\n      exp\n      swap1\n      div\n      0xffffffffffffffffffffffffffffffffffffffff\n      and\n        /* \"helloworld.sol\":292:311  owner == msg.sender */\n      0xffffffffffffffffffffffffffffffffffffffff\n      and\n      eq\n        /* \"helloworld.sol\":283:337  require (owner == msg.sender, \"only owner can access\") */\n      tag_14\n      jumpi\n      mload(0x40)\n      0x08c379a000000000000000000000000000000000000000000000000000000000\n      dup2\n      mstore\n      0x04\n      add\n      tag_15\n      swap1\n      tag_16\n      jump\t// in\n    tag_15:\n      mload(0x40)\n      dup1\n      swap2\n      sub\n      swap1\n      revert\n    tag_14:\n        /* \"helloworld.sol\":446:448  _a */\n      dup4\n        /* \"helloworld.sol\":442:443  a */\n      0x00\n        /* \"helloworld.sol\":442:448  a = _a */\n      dup2\n      swap1\n      sstore\n      pop\n        /* \"helloworld.sol\":463:465  _b */\n      dup3\n        /* \"helloworld.sol\":459:460  b */\n      0x01\n        /* \"helloworld.sol\":459:465  b = _b */\n      dup2\n      swap1\n      sstore\n      pop\n        /* \"helloworld.sol\":480:482  _c */\n      dup2\n        /* \"helloworld.sol\":476:477  c */\n      0x02\n        /* \"helloworld.sol\":476:482  c = _c */\n      dup2\n      swap1\n      sstore\n      pop\n        /* \"helloworld.sol\":497:499  _d */\n      dup1\n        /* \"helloworld.sol\":493:494  d */\n      0x03\n        /* \"helloworld.sol\":493:499  d = _d */\n      dup2\n      swap1\n      sstore\n      pop\n        /* \"helloworld.sol\":365:507  function set (uint _a, uint _b, uint _c, uint _d) public onlyOwner{... */\n      pop\n      pop\n      pop\n      pop\n      jump\t// out\n        /* \"helloworld.sol\":515:870  function get() public view onlyOwner returns(uint){... */\n    tag_10:\n        /* \"helloworld.sol\":560:564  uint */\n      0x00\n        /* \"helloworld.sol\":301:311  msg.sender */\n      caller\n        /* \"helloworld.sol\":292:311  owner == msg.sender */\n      0xffffffffffffffffffffffffffffffffffffffff\n      and\n        /* \"helloworld.sol\":292:297  owner */\n      0x04\n      0x00\n      swap1\n      sload\n      swap1\n      0x0100\n      exp\n      swap1\n      div\n      0xffffffffffffffffffffffffffffffffffffffff\n      and\n        /* \"helloworld.sol\":292:311  owner == msg.sender */\n      0xffffffffffffffffffffffffffffffffffffffff\n      and\n      eq\n        /* \"helloworld.sol\":283:337  require (owner == msg.sender, \"only owner can access\") */\n      tag_19\n      jumpi\n      mload(0x40)\n      0x08c379a000000000000000000000000000000000000000000000000000000000\n      dup2\n      mstore\n      0x04\n      add\n      tag_20\n      swap1\n      tag_16\n      jump\t// in\n    tag_20:\n      mload(0x40)\n      dup1\n      swap2\n      sub\n      swap1\n      revert\n    tag_19:\n        /* \"helloworld.sol\":585:586  b */\n      sload(0x01)\n        /* \"helloworld.sol\":581:582  a */\n      sload(0x00)\n        /* \"helloworld.sol\":581:586  a > b */\n      gt\n        /* \"helloworld.sol\":580:598  (a > b) && (a > c) */\n      dup1\n      iszero\n      tag_22\n      jumpi\n      pop\n        /* \"helloworld.sol\":596:597  c */\n      sload(0x02)\n        /* \"helloworld.sol\":592:593  a */\n      sload(0x00)\n        /* \"helloworld.sol\":592:597  a > c */\n      gt\n        /* \"helloworld.sol\":580:598  (a > b) && (a > c) */\n    tag_22:\n        /* \"helloworld.sol\":580:609  (a > b) && (a > c) && (a > d) */\n      dup1\n      iszero\n      tag_23\n      jumpi\n      pop\n        /* \"helloworld.sol\":607:608  d */\n      sload(0x03)\n        /* \"helloworld.sol\":603:604  a */\n      sload(0x00)\n        /* \"helloworld.sol\":603:608  a > d */\n      gt\n        /* \"helloworld.sol\":580:609  (a > b) && (a > c) && (a > d) */\n    tag_23:\n        /* \"helloworld.sol\":576:863  if ((a > b) && (a > c) && (a > d)){... */\n      iszero\n      tag_24\n      jumpi\n        /* \"helloworld.sol\":628:629  a */\n      sload(0x00)\n        /* \"helloworld.sol\":621:630  return(a) */\n      swap1\n      pop\n      jump(tag_21)\n        /* \"helloworld.sol\":576:863  if ((a > b) && (a > c) && (a > d)){... */\n    tag_24:\n        /* \"helloworld.sol\":665:666  c */\n      sload(0x02)\n        /* \"helloworld.sol\":662:663  b */\n      sload(0x01)\n        /* \"helloworld.sol\":662:666  b >c */\n      gt\n        /* \"helloworld.sol\":661:679  (b >c ) && (b > d) */\n      dup1\n      iszero\n      tag_26\n      jumpi\n      pop\n        /* \"helloworld.sol\":677:678  d */\n      sload(0x03)\n        /* \"helloworld.sol\":673:674  b */\n      sload(0x01)\n        /* \"helloworld.sol\":673:678  b > d */\n      gt\n        /* \"helloworld.sol\":661:679  (b >c ) && (b > d) */\n    tag_26:\n        /* \"helloworld.sol\":661:690  (b >c ) && (b > d) && (b > a) */\n      dup1\n      iszero\n      tag_27\n      jumpi\n      pop\n        /* \"helloworld.sol\":688:689  a */\n      sload(0x00)\n        /* \"helloworld.sol\":684:685  b */\n      sload(0x01)\n        /* \"helloworld.sol\":684:689  b > a */\n      gt\n        /* \"helloworld.sol\":661:690  (b >c ) && (b > d) && (b > a) */\n    tag_27:\n        /* \"helloworld.sol\":657:863  if ((b >c ) && (b > d) && (b > a)){... */\n      iszero\n      tag_28\n      jumpi\n        /* \"helloworld.sol\":713:714  b */\n      sload(0x01)\n        /* \"helloworld.sol\":706:715  return(b) */\n      swap1\n      pop\n      jump(tag_21)\n        /* \"helloworld.sol\":657:863  if ((b >c ) && (b > d) && (b > a)){... */\n    tag_28:\n        /* \"helloworld.sol\":751:752  d */\n      sload(0x03)\n        /* \"helloworld.sol\":747:748  c */\n      sload(0x02)\n        /* \"helloworld.sol\":747:752  c > d */\n      gt\n        /* \"helloworld.sol\":746:764  (c > d) && (c > a) */\n      dup1\n      iszero\n      tag_30\n      jumpi\n      pop\n        /* \"helloworld.sol\":762:763  a */\n      sload(0x00)\n        /* \"helloworld.sol\":758:759  c */\n      sload(0x02)\n        /* \"helloworld.sol\":758:763  c > a */\n      gt\n        /* \"helloworld.sol\":746:764  (c > d) && (c > a) */\n    tag_30:\n        /* \"helloworld.sol\":746:775  (c > d) && (c > a) && (c > b) */\n      dup1\n      iszero\n      tag_31\n      jumpi\n      pop\n        /* \"helloworld.sol\":773:774  b */\n      sload(0x01)\n        /* \"helloworld.sol\":769:770  c */\n      sload(0x02)\n        /* \"helloworld.sol\":769:774  c > b */\n      gt\n        /* \"helloworld.sol\":746:775  (c > d) && (c > a) && (c > b) */\n    tag_31:\n        /* \"helloworld.sol\":742:863  if ((c > d) && (c > a) && (c > b)){... */\n      iszero\n      tag_32\n      jumpi\n        /* \"helloworld.sol\":798:799  c */\n      sload(0x02)\n        /* \"helloworld.sol\":791:800  return(c) */\n      swap1\n      pop\n      jump(tag_21)\n        /* \"helloworld.sol\":742:863  if ((c > d) && (c > a) && (c > b)){... */\n    tag_32:\n        /* \"helloworld.sol\":849:850  d */\n      sload(0x03)\n        /* \"helloworld.sol\":842:851  return(d) */\n      swap1\n      pop\n        /* \"helloworld.sol\":348:349  _ */\n    tag_21:\n        /* \"helloworld.sol\":515:870  function get() public view onlyOwner returns(uint){... */\n      swap1\n      jump\t// out\n        /* \"#utility.yul\":88:205   */\n    tag_35:\n        /* \"#utility.yul\":197:198   */\n      0x00\n        /* \"#utility.yul\":194:195   */\n      dup1\n        /* \"#utility.yul\":187:199   */\n      revert\n        /* \"#utility.yul\":334:411   */\n    tag_37:\n        /* \"#utility.yul\":371:378   */\n      0x00\n        /* \"#utility.yul\":400:405   */\n      dup2\n        /* \"#utility.yul\":389:405   */\n      swap1\n      pop\n        /* \"#utility.yul\":334:411   */\n      swap2\n      swap1\n      pop\n      jump\t// out\n        /* \"#utility.yul\":417:539   */\n    tag_38:\n        /* \"#utility.yul\":490:514   */\n      tag_50\n        /* \"#utility.yul\":508:513   */\n      dup2\n        /* \"#utility.yul\":490:514   */\n      tag_37\n      jump\t// in\n    tag_50:\n        /* \"#utility.yul\":483:488   */\n      dup2\n        /* \"#utility.yul\":480:515   */\n      eq\n        /* \"#utility.yul\":470:533   */\n      tag_51\n      jumpi\n        /* \"#utility.yul\":529:530   */\n      0x00\n        /* \"#utility.yul\":526:527   */\n      dup1\n        /* \"#utility.yul\":519:531   */\n      revert\n        /* \"#utility.yul\":470:533   */\n    tag_51:\n        /* \"#utility.yul\":417:539   */\n      pop\n      jump\t// out\n        /* \"#utility.yul\":545:684   */\n    tag_39:\n        /* \"#utility.yul\":591:596   */\n      0x00\n        /* \"#utility.yul\":629:635   */\n      dup2\n        /* \"#utility.yul\":616:636   */\n      calldataload\n        /* \"#utility.yul\":607:636   */\n      swap1\n      pop\n        /* \"#utility.yul\":645:678   */\n      tag_53\n        /* \"#utility.yul\":672:677   */\n      dup2\n        /* \"#utility.yul\":645:678   */\n      tag_38\n      jump\t// in\n    tag_53:\n        /* \"#utility.yul\":545:684   */\n      swap3\n      swap2\n      pop\n      pop\n      jump\t// out\n        /* \"#utility.yul\":690:1455   */\n    tag_7:\n        /* \"#utility.yul\":776:782   */\n      0x00\n        /* \"#utility.yul\":784:790   */\n      dup1\n        /* \"#utility.yul\":792:798   */\n      0x00\n        /* \"#utility.yul\":800:806   */\n      dup1\n        /* \"#utility.yul\":849:852   */\n      0x80\n        /* \"#utility.yul\":837:846   */\n      dup6\n        /* \"#utility.yul\":828:835   */\n      dup8\n        /* \"#utility.yul\":824:847   */\n      sub\n        /* \"#utility.yul\":820:853   */\n      slt\n        /* \"#utility.yul\":817:937   */\n      iszero\n      tag_55\n      jumpi\n        /* \"#utility.yul\":856:935   */\n      tag_56\n      tag_35\n      jump\t// in\n    tag_56:\n        /* \"#utility.yul\":817:937   */\n    tag_55:\n        /* \"#utility.yul\":976:977   */\n      0x00\n        /* \"#utility.yul\":1001:1054   */\n      tag_57\n        /* \"#utility.yul\":1046:1053   */\n      dup8\n        /* \"#utility.yul\":1037:1043   */\n      dup3\n        /* \"#utility.yul\":1026:1035   */\n      dup9\n        /* \"#utility.yul\":1022:1044   */\n      add\n        /* \"#utility.yul\":1001:1054   */\n      tag_39\n      jump\t// in\n    tag_57:\n        /* \"#utility.yul\":991:1054   */\n      swap5\n      pop\n        /* \"#utility.yul\":947:1064   */\n      pop\n        /* \"#utility.yul\":1103:1105   */\n      0x20\n        /* \"#utility.yul\":1129:1182   */\n      tag_58\n        /* \"#utility.yul\":1174:1181   */\n      dup8\n        /* \"#utility.yul\":1165:1171   */\n      dup3\n        /* \"#utility.yul\":1154:1163   */\n      dup9\n        /* \"#utility.yul\":1150:1172   */\n      add\n        /* \"#utility.yul\":1129:1182   */\n      tag_39\n      jump\t// in\n    tag_58:\n        /* \"#utility.yul\":1119:1182   */\n      swap4\n      pop\n        /* \"#utility.yul\":1074:1192   */\n      pop\n        /* \"#utility.yul\":1231:1233   */\n      0x40\n        /* \"#utility.yul\":1257:1310   */\n      tag_59\n        /* \"#utility.yul\":1302:1309   */\n      dup8\n        /* \"#utility.yul\":1293:1299   */\n      dup3\n        /* \"#utility.yul\":1282:1291   */\n      dup9\n        /* \"#utility.yul\":1278:1300   */\n      add\n        /* \"#utility.yul\":1257:1310   */\n      tag_39\n      jump\t// in\n    tag_59:\n        /* \"#utility.yul\":1247:1310   */\n      swap3\n      pop\n        /* \"#utility.yul\":1202:1320   */\n      pop\n        /* \"#utility.yul\":1359:1361   */\n      0x60\n        /* \"#utility.yul\":1385:1438   */\n      tag_60\n        /* \"#utility.yul\":1430:1437   */\n      dup8\n        /* \"#utility.yul\":1421:1427   */\n      dup3\n        /* \"#utility.yul\":1410:1419   */\n      dup9\n        /* \"#utility.yul\":1406:1428   */\n      add\n        /* \"#utility.yul\":1385:1438   */\n      tag_39\n      jump\t// in\n    tag_60:\n        /* \"#utility.yul\":1375:1438   */\n      swap2\n      pop\n        /* \"#utility.yul\":1330:1448   */\n      pop\n        /* \"#utility.yul\":690:1455   */\n      swap3\n      swap6\n      swap2\n      swap5\n      pop\n      swap3\n      pop\n      jump\t// out\n        /* \"#utility.yul\":1461:1579   */\n    tag_40:\n        /* \"#utility.yul\":1548:1572   */\n      tag_62\n        /* \"#utility.yul\":1566:1571   */\n      dup2\n        /* \"#utility.yul\":1548:1572   */\n      tag_37\n      jump\t// in\n    tag_62:\n        /* \"#utility.yul\":1543:1546   */\n      dup3\n        /* \"#utility.yul\":1536:1573   */\n      mstore\n        /* \"#utility.yul\":1461:1579   */\n      pop\n      pop\n      jump\t// out\n        /* \"#utility.yul\":1585:1807   */\n    tag_12:\n        /* \"#utility.yul\":1678:1682   */\n      0x00\n        /* \"#utility.yul\":1716:1718   */\n      0x20\n        /* \"#utility.yul\":1705:1714   */\n      dup3\n        /* \"#utility.yul\":1701:1719   */\n      add\n        /* \"#utility.yul\":1693:1719   */\n      swap1\n      pop\n        /* \"#utility.yul\":1729:1800   */\n      tag_64\n        /* \"#utility.yul\":1797:1798   */\n      0x00\n        /* \"#utility.yul\":1786:1795   */\n      dup4\n        /* \"#utility.yul\":1782:1799   */\n      add\n        /* \"#utility.yul\":1773:1779   */\n      dup5\n        /* \"#utility.yul\":1729:1800   */\n      tag_40\n      jump\t// in\n    tag_64:\n        /* \"#utility.yul\":1585:1807   */\n      swap3\n      swap2\n      pop\n      pop\n      jump\t// out\n        /* \"#utility.yul\":1813:1982   */\n    tag_41:\n        /* \"#utility.yul\":1897:1908   */\n      0x00\n        /* \"#utility.yul\":1931:1937   */\n      dup3\n        /* \"#utility.yul\":1926:1929   */\n      dup3\n        /* \"#utility.yul\":1919:1938   */\n      mstore\n        /* \"#utility.yul\":1971:1975   */\n      0x20\n        /* \"#utility.yul\":1966:1969   */\n      dup3\n        /* \"#utility.yul\":1962:1976   */\n      add\n        /* \"#utility.yul\":1947:1976   */\n      swap1\n      pop\n        /* \"#utility.yul\":1813:1982   */\n      swap3\n      swap2\n      pop\n      pop\n      jump\t// out\n        /* \"#utility.yul\":1988:2159   */\n    tag_42:\n        /* \"#utility.yul\":2128:2151   */\n      0x6f6e6c79206f776e65722063616e206163636573730000000000000000000000\n        /* \"#utility.yul\":2124:2125   */\n      0x00\n        /* \"#utility.yul\":2116:2122   */\n      dup3\n        /* \"#utility.yul\":2112:2126   */\n      add\n        /* \"#utility.yul\":2105:2152   */\n      mstore\n        /* \"#utility.yul\":1988:2159   */\n      pop\n      jump\t// out\n        /* \"#utility.yul\":2165:2531   */\n    tag_43:\n        /* \"#utility.yul\":2307:2310   */\n      0x00\n        /* \"#utility.yul\":2328:2395   */\n      tag_68\n        /* \"#utility.yul\":2392:2394   */\n      0x15\n        /* \"#utility.yul\":2387:2390   */\n      dup4\n        /* \"#utility.yul\":2328:2395   */\n      tag_41\n      jump\t// in\n    tag_68:\n        /* \"#utility.yul\":2321:2395   */\n      swap2\n      pop\n        /* \"#utility.yul\":2404:2497   */\n      tag_69\n        /* \"#utility.yul\":2493:2496   */\n      dup3\n        /* \"#utility.yul\":2404:2497   */\n      tag_42\n      jump\t// in\n    tag_69:\n        /* \"#utility.yul\":2522:2524   */\n      0x20\n        /* \"#utility.yul\":2517:2520   */\n      dup3\n        /* \"#utility.yul\":2513:2525   */\n      add\n        /* \"#utility.yul\":2506:2525   */\n      swap1\n      pop\n        /* \"#utility.yul\":2165:2531   */\n      swap2\n      swap1\n      pop\n      jump\t// out\n        /* \"#utility.yul\":2537:2956   */\n    tag_16:\n        /* \"#utility.yul\":2703:2707   */\n      0x00\n        /* \"#utility.yul\":2741:2743   */\n      0x20\n        /* \"#utility.yul\":2730:2739   */\n      dup3\n        /* \"#utility.yul\":2726:2744   */\n      add\n        /* \"#utility.yul\":2718:2744   */\n      swap1\n      pop\n        /* \"#utility.yul\":2790:2799   */\n      dup2\n        /* \"#utility.yul\":2784:2788   */\n      dup2\n        /* \"#utility.yul\":2780:2800   */\n      sub\n        /* \"#utility.yul\":2776:2777   */\n      0x00\n        /* \"#utility.yul\":2765:2774   */\n      dup4\n        /* \"#utility.yul\":2761:2778   */\n      add\n        /* \"#utility.yul\":2754:2801   */\n      mstore\n        /* \"#utility.yul\":2818:2949   */\n      tag_71\n        /* \"#utility.yul\":2944:2948   */\n      dup2\n        /* \"#utility.yul\":2818:2949   */\n      tag_43\n      jump\t// in\n    tag_71:\n        /* \"#utility.yul\":2810:2949   */\n      swap1\n      pop\n        /* \"#utility.yul\":2537:2956   */\n      swap2\n      swap1\n      pop\n      jump\t// out\n\n    auxdata: 0xa2646970667358221220809977c015b2529a70b381669ca6c3341526d56f63305f43d06352bcc7ea58cf64736f6c63430008190033\n}\n",
				"bytecode": {
					"linkReferences": {},
					"object": "6080604052348015600e575f80fd5b503360045f6101000a81548173ffffffffffffffffffffffffffffffffffffffff021916908373ffffffffffffffffffffffffffffffffffffffff1602179055506103c28061005c5f395ff3fe608060405234801561000f575f80fd5b5060043610610034575f3560e01c8063606ce3bf146100385780636d4ce63c14610054575b5f80fd5b610052600480360381019061004d9190610288565b610072565b005b61005c610122565b60405161006991906102fb565b60405180910390f35b3373ffffffffffffffffffffffffffffffffffffffff1660045f9054906101000a900473ffffffffffffffffffffffffffffffffffffffff1673ffffffffffffffffffffffffffffffffffffffff1614610101576040517f08c379a00000000000000000000000000000000000000000000000000000000081526004016100f89061036e565b60405180910390fd5b835f8190555082600181905550816002819055508060038190555050505050565b5f3373ffffffffffffffffffffffffffffffffffffffff1660045f9054906101000a900473ffffffffffffffffffffffffffffffffffffffff1673ffffffffffffffffffffffffffffffffffffffff16146101b2576040517f08c379a00000000000000000000000000000000000000000000000000000000081526004016101a99061036e565b60405180910390fd5b6001545f541180156101c657506002545f54115b80156101d457506003545f54115b156101e2575f54905061024e565b6002546001541180156101f85750600354600154115b801561020657505f54600154115b1561021557600154905061024e565b60035460025411801561022a57505f54600254115b80156102395750600154600254115b1561024857600254905061024e565b60035490505b90565b5f80fd5b5f819050919050565b61026781610255565b8114610271575f80fd5b50565b5f813590506102828161025e565b92915050565b5f805f80608085870312156102a05761029f610251565b5b5f6102ad87828801610274565b94505060206102be87828801610274565b93505060406102cf87828801610274565b92505060606102e087828801610274565b91505092959194509250565b6102f581610255565b82525050565b5f60208201905061030e5f8301846102ec565b92915050565b5f82825260208201905092915050565b7f6f6e6c79206f776e65722063616e2061636365737300000000000000000000005f82015250565b5f610358601583610314565b915061036382610324565b602082019050919050565b5f6020820190508181035f8301526103858161034c565b905091905056fea2646970667358221220809977c015b2529a70b381669ca6c3341526d56f63305f43d06352bcc7ea58cf64736f6c63430008190033",
					"opcodes": "PUSH1 0x80 PUSH1 0x40 MSTORE CALLVALUE DUP1 ISZERO PUSH1 0xE JUMPI PUSH0 DUP1 REVERT JUMPDEST POP CALLER PUSH1 0x4 PUSH0 PUSH2 0x100 EXP DUP2 SLOAD DUP2 PUSH20 0xFFFFFFFFFFFFFFFFFFFFFFFFFFFFFFFFFFFFFFFF MUL NOT AND SWAP1 DUP4 PUSH20 0xFFFFFFFFFFFFFFFFFFFFFFFFFFFFFFFFFFFFFFFF AND MUL OR SWAP1 SSTORE POP PUSH2 0x3C2 DUP1 PUSH2 0x5C PUSH0 CODECOPY PUSH0 RETURN INVALID PUSH1 0x80 PUSH1 0x40 MSTORE CALLVALUE DUP1 ISZERO PUSH2 0xF JUMPI PUSH0 DUP1 REVERT JUMPDEST POP PUSH1 0x4 CALLDATASIZE LT PUSH2 0x34 JUMPI PUSH0 CALLDATALOAD PUSH1 0xE0 SHR DUP1 PUSH4 0x606CE3BF EQ PUSH2 0x38 JUMPI DUP1 PUSH4 0x6D4CE63C EQ PUSH2 0x54 JUMPI JUMPDEST PUSH0 DUP1 REVERT JUMPDEST PUSH2 0x52 PUSH1 0x4 DUP1 CALLDATASIZE SUB DUP2 ADD SWAP1 PUSH2 0x4D SWAP2 SWAP1 PUSH2 0x288 JUMP JUMPDEST PUSH2 0x72 JUMP JUMPDEST STOP JUMPDEST PUSH2 0x5C PUSH2 0x122 JUMP JUMPDEST PUSH1 0x40 MLOAD PUSH2 0x69 SWAP2 SWAP1 PUSH2 0x2FB JUMP JUMPDEST PUSH1 0x40 MLOAD DUP1 SWAP2 SUB SWAP1 RETURN JUMPDEST CALLER PUSH20 0xFFFFFFFFFFFFFFFFFFFFFFFFFFFFFFFFFFFFFFFF AND PUSH1 0x4 PUSH0 SWAP1 SLOAD SWAP1 PUSH2 0x100 EXP SWAP1 DIV PUSH20 0xFFFFFFFFFFFFFFFFFFFFFFFFFFFFFFFFFFFFFFFF AND PUSH20 0xFFFFFFFFFFFFFFFFFFFFFFFFFFFFFFFFFFFFFFFF AND EQ PUSH2 0x101 JUMPI PUSH1 0x40 MLOAD PUSH32 0x8C379A000000000000000000000000000000000000000000000000000000000 DUP2 MSTORE PUSH1 0x4 ADD PUSH2 0xF8 SWAP1 PUSH2 0x36E JUMP JUMPDEST PUSH1 0x40 MLOAD DUP1 SWAP2 SUB SWAP1 REVERT JUMPDEST DUP4 PUSH0 DUP2 SWAP1 SSTORE POP DUP3 PUSH1 0x1 DUP2 SWAP1 SSTORE POP DUP2 PUSH1 0x2 DUP2 SWAP1 SSTORE POP DUP1 PUSH1 0x3 DUP2 SWAP1 SSTORE POP POP POP POP POP JUMP JUMPDEST PUSH0 CALLER PUSH20 0xFFFFFFFFFFFFFFFFFFFFFFFFFFFFFFFFFFFFFFFF AND PUSH1 0x4 PUSH0 SWAP1 SLOAD SWAP1 PUSH2 0x100 EXP SWAP1 DIV PUSH20 0xFFFFFFFFFFFFFFFFFFFFFFFFFFFFFFFFFFFFFFFF AND PUSH20 0xFFFFFFFFFFFFFFFFFFFFFFFFFFFFFFFFFFFFFFFF AND EQ PUSH2 0x1B2 JUMPI PUSH1 0x40 MLOAD PUSH32 0x8C379A000000000000000000000000000000000000000000000000000000000 DUP2 MSTORE PUSH1 0x4 ADD PUSH2 0x1A9 SWAP1 PUSH2 0x36E JUMP JUMPDEST PUSH1 0x40 MLOAD DUP1 SWAP2 SUB SWAP1 REVERT JUMPDEST PUSH1 0x1 SLOAD PUSH0 SLOAD GT DUP1 ISZERO PUSH2 0x1C6 JUMPI POP PUSH1 0x2 SLOAD PUSH0 SLOAD GT JUMPDEST DUP1 ISZERO PUSH2 0x1D4 JUMPI POP PUSH1 0x3 SLOAD PUSH0 SLOAD GT JUMPDEST ISZERO PUSH2 0x1E2 JUMPI PUSH0 SLOAD SWAP1 POP PUSH2 0x24E JUMP JUMPDEST PUSH1 0x2 SLOAD PUSH1 0x1 SLOAD GT DUP1 ISZERO PUSH2 0x1F8 JUMPI POP PUSH1 0x3 SLOAD PUSH1 0x1 SLOAD GT JUMPDEST DUP1 ISZERO PUSH2 0x206 JUMPI POP PUSH0 SLOAD PUSH1 0x1 SLOAD GT JUMPDEST ISZERO PUSH2 0x215 JUMPI PUSH1 0x1 SLOAD SWAP1 POP PUSH2 0x24E JUMP JUMPDEST PUSH1 0x3 SLOAD PUSH1 0x2 SLOAD GT DUP1 ISZERO PUSH2 0x22A JUMPI POP PUSH0 SLOAD PUSH1 0x2 SLOAD GT JUMPDEST DUP1 ISZERO PUSH2 0x239 JUMPI POP PUSH1 0x1 SLOAD PUSH1 0x2 SLOAD GT JUMPDEST ISZERO PUSH2 0x248 JUMPI PUSH1 0x2 SLOAD SWAP1 POP PUSH2 0x24E JUMP JUMPDEST PUSH1 0x3 SLOAD SWAP1 POP JUMPDEST SWAP1 JUMP JUMPDEST PUSH0 DUP1 REVERT JUMPDEST PUSH0 DUP2 SWAP1 POP SWAP2 SWAP1 POP JUMP JUMPDEST PUSH2 0x267 DUP2 PUSH2 0x255 JUMP JUMPDEST DUP2 EQ PUSH2 0x271 JUMPI PUSH0 DUP1 REVERT JUMPDEST POP JUMP JUMPDEST PUSH0 DUP2 CALLDATALOAD SWAP1 POP PUSH2 0x282 DUP2 PUSH2 0x25E JUMP JUMPDEST SWAP3 SWAP2 POP POP JUMP JUMPDEST PUSH0 DUP1 PUSH0 DUP1 PUSH1 0x80 DUP6 DUP8 SUB SLT ISZERO PUSH2 0x2A0 JUMPI PUSH2 0x29F PUSH2 0x251 JUMP JUMPDEST JUMPDEST PUSH0 PUSH2 0x2AD DUP8 DUP3 DUP9 ADD PUSH2 0x274 JUMP JUMPDEST SWAP5 POP POP PUSH1 0x20 PUSH2 0x2BE DUP8 DUP3 DUP9 ADD PUSH2 0x274 JUMP JUMPDEST SWAP4 POP POP PUSH1 0x40 PUSH2 0x2CF DUP8 DUP3 DUP9 ADD PUSH2 0x274 JUMP JUMPDEST SWAP3 POP POP PUSH1 0x60 PUSH2 0x2E0 DUP8 DUP3 DUP9 ADD PUSH2 0x274 JUMP JUMPDEST SWAP2 POP POP SWAP3 SWAP6 SWAP2 SWAP5 POP SWAP3 POP JUMP JUMPDEST PUSH2 0x2F5 DUP2 PUSH2 0x255 JUMP JUMPDEST DUP3 MSTORE POP POP JUMP JUMPDEST PUSH0 PUSH1 0x20 DUP3 ADD SWAP1 POP PUSH2 0x30E PUSH0 DUP4 ADD DUP5 PUSH2 0x2EC JUMP JUMPDEST SWAP3 SWAP2 POP POP JUMP JUMPDEST PUSH0 DUP3 DUP3 MSTORE PUSH1 0x20 DUP3 ADD SWAP1 POP SWAP3 SWAP2 POP POP JUMP JUMPDEST PUSH32 0x6F6E6C79206F776E65722063616E206163636573730000000000000000000000 PUSH0 DUP3 ADD MSTORE POP JUMP JUMPDEST PUSH0 PUSH2 0x358 PUSH1 0x15 DUP4 PUSH2 0x314 JUMP JUMPDEST SWAP2 POP PUSH2 0x363 DUP3 PUSH2 0x324 JUMP JUMPDEST PUSH1 0x20 DUP3 ADD SWAP1 POP SWAP2 SWAP1 POP JUMP JUMPDEST PUSH0 PUSH1 0x20 DUP3 ADD SWAP1 POP DUP2 DUP2 SUB PUSH0 DUP4 ADD MSTORE PUSH2 0x385 DUP2 PUSH2 0x34C JUMP JUMPDEST SWAP1 POP SWAP2 SWAP1 POP JUMP INVALID LOG2 PUSH5 0x6970667358 0x22 SLT KECCAK256 DUP1 SWAP10 PUSH24 0xC015B2529A70B381669CA6C3341526D56F63305F43D06352 0xBC 0xC7 0xEA PC 0xCF PUSH5 0x736F6C6343 STOP ADDMOD NOT STOP CALLER "
				},
				"gasEstimates": {
					"creation": {
						"codeDepositCost": "192400",
						"executionCost": "24501",
						"totalCost": "216901"
					},
					"external": {
						"get()": "42671",
						"set(uint256,uint256,uint256,uint256)": "infinite"
					}
				},
				"methodIdentifiers": {
					"get()": "6d4ce63c",
					"set(uint256,uint256,uint256,uint256)": "606ce3bf"
				}
			},
			"storageLayout": {
				"storage": [
					{
						"astId": 3,
						"contract": "helloworld.sol:greatestnum",
						"label": "a",
						"offset": 0,
						"slot": "0",
						"type": "t_uint256"
					},
					{
						"astId": 5,
						"contract": "helloworld.sol:greatestnum",
						"label": "b",
						"offset": 0,
						"slot": "1",
						"type": "t_uint256"
					},
					{
						"astId": 7,
						"contract": "helloworld.sol:greatestnum",
						"label": "c",
						"offset": 0,
						"slot": "2",
						"type": "t_uint256"
					},
					{
						"astId": 9,
						"contract": "helloworld.sol:greatestnum",
						"label": "d",
						"offset": 0,
						"slot": "3",
						"type": "t_uint256"
					},
					{
						"astId": 11,
						"contract": "helloworld.sol:greatestnum",
						"label": "owner",
						"offset": 0,
						"slot": "4",
						"type": "t_address"
					}
				],
				"types": {
					"t_address": {
						"encoding": "inplace",
						"label": "address",
						"numberOfBytes": "20"
					},
					"t_uint256": {
						"encoding": "inplace",
						"label": "uint256",
						"numberOfBytes": "32"
					}
				}
			},
			"userdoc": {
				"kind": "user",
				"methods": {},
				"version": 1
			}
		}
	}
}