{
	"contracts/HelloWorld.sol": {
		"Voting": {
			"abi": [
				{
					"inputs": [
						{
							"internalType": "string[]",
							"name": "_candidateNames",
							"type": "string[]"
						},
						{
							"internalType": "uint256",
							"name": "_durationInMinutes",
							"type": "uint256"
						}
					],
					"stateMutability": "nonpayable",
					"type": "constructor"
				},
				{
					"inputs": [
						{
							"internalType": "string",
							"name": "_name",
							"type": "string"
						}
					],
					"name": "addCandidate",
					"outputs": [],
					"stateMutability": "nonpayable",
					"type": "function"
				},
				{
					"inputs": [
						{
							"internalType": "uint256",
							"name": "",
							"type": "uint256"
						}
					],
					"name": "candidates",
					"outputs": [
						{
							"internalType": "string",
							"name": "name",
							"type": "string"
						},
						{
							"internalType": "uint256",
							"name": "voteCount",
							"type": "uint256"
						}
					],
					"stateMutability": "view",
					"type": "function"
				},
				{
					"inputs": [],
					"name": "getAllVotesOfCandidates",
					"outputs": [
						{
							"components": [
								{
									"internalType": "string",
									"name": "name",
									"type": "string"
								},
								{
									"internalType": "uint256",
									"name": "voteCount",
									"type": "uint256"
								}
							],
							"internalType": "struct Voting.Candidate[]",
							"name": "",
							"type": "tuple[]"
						}
					],
					"stateMutability": "view",
					"type": "function"
				},
				{
					"inputs": [],
					"name": "getRemainingTime",
					"outputs": [
						{
							"internalType": "uint256",
							"name": "",
							"type": "uint256"
						}
					],
					"stateMutability": "view",
					"type": "function"
				},
				{
					"inputs": [],
					"name": "getVotingStatus",
					"outputs": [
						{
							"internalType": "bool",
							"name": "",
							"type": "bool"
						}
					],
					"stateMutability": "view",
					"type": "function"
				},
				{
					"inputs": [],
					"name": "owner",
					"outputs": [
						{
							"internalType": "address",
							"name": "",
							"type": "address"
						}
					],
					"stateMutability": "view",
					"type": "function"
				},
				{
					"inputs": [
						{
							"internalType": "uint256",
							"name": "_candidateIndex",
							"type": "uint256"
						}
					],
					"name": "vote",
					"outputs": [],
					"stateMutability": "nonpayable",
					"type": "function"
				},
				{
					"inputs": [
						{
							"internalType": "address",
							"name": "",
							"type": "address"
						}
					],
					"name": "voters",
					"outputs": [
						{
							"internalType": "bool",
							"name": "",
							"type": "bool"
						}
					],
					"stateMutability": "view",
					"type": "function"
				},
				{
					"inputs": [],
					"name": "votingEnd",
					"outputs": [
						{
							"internalType": "uint256",
							"name": "",
							"type": "uint256"
						}
					],
					"stateMutability": "view",
					"type": "function"
				},
				{
					"inputs": [],
					"name": "votingStart",
					"outputs": [
						{
							"internalType": "uint256",
							"name": "",
							"type": "uint256"
						}
					],
					"stateMutability": "view",
					"type": "function"
				}
			],
			"devdoc": {
				"kind": "dev",
				"methods": {},
				"version": 1
			},
			"evm": {
				"assembly": "    /* \"contracts/HelloWorld.sol\":57:1867  contract Voting {... */\n  mstore(0x40, 0x80)\n    /* \"contracts/HelloWorld.sol\":326:746  constructor(string[] memory _candidateNames, uint256 _durationInMinutes) {... */\n  callvalue\n  dup1\n  iszero\n  tag_1\n  jumpi\n  0x00\n  dup1\n  revert\ntag_1:\n  pop\n  mload(0x40)\n  sub(codesize, bytecodeSize)\n  dup1\n  bytecodeSize\n  dup4\n  codecopy\n  dup2\n  dup2\n  add\n  0x40\n  mstore\n  dup2\n  add\n  swap1\n  tag_2\n  swap2\n  swap1\n  tag_3\n  jump\t// in\ntag_2:\n    /* \"contracts/HelloWorld.sol\":414:423  uint256 i */\n  0x00\n    /* \"contracts/HelloWorld.sol\":409:601  for (uint256 i = 0; i < _candidateNames.length; i++) {... */\ntag_6:\n    /* \"contracts/HelloWorld.sol\":433:448  _candidateNames */\n  dup3\n    /* \"contracts/HelloWorld.sol\":433:455  _candidateNames.length */\n  mload\n    /* \"contracts/HelloWorld.sol\":429:430  i */\n  dup2\n    /* \"contracts/HelloWorld.sol\":429:455  i < _candidateNames.length */\n  lt\n    /* \"contracts/HelloWorld.sol\":409:601  for (uint256 i = 0; i < _candidateNames.length; i++) {... */\n  iszero\n  tag_7\n  jumpi\n    /* \"contracts/HelloWorld.sol\":476:486  candidates */\n  0x00\n    /* \"contracts/HelloWorld.sol\":492:589  Candidate({... */\n  mload(0x40)\n  dup1\n  0x40\n  add\n  0x40\n  mstore\n  dup1\n    /* \"contracts/HelloWorld.sol\":526:541  _candidateNames */\n  dup6\n    /* \"contracts/HelloWorld.sol\":542:543  i */\n  dup5\n    /* \"contracts/HelloWorld.sol\":526:544  _candidateNames[i] */\n  dup2\n  mload\n  dup2\n  lt\n  tag_9\n  jumpi\n  tag_10\n  tag_11\n  jump\t// in\ntag_10:\ntag_9:\n  0x20\n  mul\n  0x20\n  add\n  add\n  mload\n    /* \"contracts/HelloWorld.sol\":492:589  Candidate({... */\n  dup2\n  mstore\n  0x20\n  add\n    /* \"contracts/HelloWorld.sol\":573:574  0 */\n  0x00\n    /* \"contracts/HelloWorld.sol\":492:589  Candidate({... */\n  dup2\n  mstore\n  pop\n    /* \"contracts/HelloWorld.sol\":476:590  candidates.push(Candidate({... */\n  swap1\n  dup1\n  0x01\n  dup2\n  sload\n  add\n  dup1\n  dup3\n  sstore\n  dup1\n  swap2\n  pop\n  pop\n  0x01\n  swap1\n  sub\n  swap1\n  0x00\n  mstore\n  keccak256(0x00, 0x20)\n  swap1\n  0x02\n  mul\n  add\n  0x00\n  swap1\n  swap2\n  swap1\n  swap2\n  swap1\n  swap2\n  pop\n  0x00\n  dup3\n  add\n  mload\n  dup2\n  0x00\n  add\n  swap1\n  dup2\n  tag_13\n  swap2\n  swap1\n  tag_14\n  jump\t// in\ntag_13:\n  pop\n  0x20\n  dup3\n  add\n  mload\n  dup2\n  0x01\n  add\n  sstore\n  pop\n  pop\n    /* \"contracts/HelloWorld.sol\":457:460  i++ */\n  dup1\n  dup1\n  0x01\n  add\n  swap2\n  pop\n  pop\n    /* \"contracts/HelloWorld.sol\":409:601  for (uint256 i = 0; i < _candidateNames.length; i++) {... */\n  jump(tag_6)\ntag_7:\n  pop\n    /* \"contracts/HelloWorld.sol\":618:628  msg.sender */\n  caller\n    /* \"contracts/HelloWorld.sol\":610:615  owner */\n  0x01\n  0x00\n    /* \"contracts/HelloWorld.sol\":610:628  owner = msg.sender */\n  0x0100\n  exp\n  dup2\n  sload\n  dup2\n  0xffffffffffffffffffffffffffffffffffffffff\n  mul\n  not\n  and\n  swap1\n  dup4\n  0xffffffffffffffffffffffffffffffffffffffff\n  and\n  mul\n  or\n  swap1\n  sstore\n  pop\n    /* \"contracts/HelloWorld.sol\":652:667  block.timestamp */\n  timestamp\n    /* \"contracts/HelloWorld.sol\":638:649  votingStart */\n  0x03\n    /* \"contracts/HelloWorld.sol\":638:667  votingStart = block.timestamp */\n  dup2\n  swap1\n  sstore\n  pop\n    /* \"contracts/HelloWorld.sol\":729:738  1 minutes */\n  0x3c\n    /* \"contracts/HelloWorld.sol\":708:726  _durationInMinutes */\n  dup2\n    /* \"contracts/HelloWorld.sol\":708:738  _durationInMinutes * 1 minutes */\n  tag_15\n  swap2\n  swap1\n  tag_16\n  jump\t// in\ntag_15:\n    /* \"contracts/HelloWorld.sol\":689:704  block.timestamp */\n  timestamp\n    /* \"contracts/HelloWorld.sol\":689:739  block.timestamp + (_durationInMinutes * 1 minutes) */\n  tag_17\n  swap2\n  swap1\n  tag_18\n  jump\t// in\ntag_17:\n    /* \"contracts/HelloWorld.sol\":677:686  votingEnd */\n  0x04\n    /* \"contracts/HelloWorld.sol\":677:739  votingEnd = block.timestamp + (_durationInMinutes * 1 minutes) */\n  dup2\n  swap1\n  sstore\n  pop\n    /* \"contracts/HelloWorld.sol\":326:746  constructor(string[] memory _candidateNames, uint256 _durationInMinutes) {... */\n  pop\n  pop\n    /* \"contracts/HelloWorld.sol\":57:1867  contract Voting {... */\n  jump(tag_19)\n    /* \"#utility.yul\":7:82   */\ntag_20:\n    /* \"#utility.yul\":40:46   */\n  0x00\n    /* \"#utility.yul\":73:75   */\n  0x40\n    /* \"#utility.yul\":67:76   */\n  mload\n    /* \"#utility.yul\":57:76   */\n  swap1\n  pop\n    /* \"#utility.yul\":7:82   */\n  swap1\n  jump\t// out\n    /* \"#utility.yul\":88:205   */\ntag_21:\n    /* \"#utility.yul\":197:198   */\n  0x00\n    /* \"#utility.yul\":194:195   */\n  dup1\n    /* \"#utility.yul\":187:199   */\n  revert\n    /* \"#utility.yul\":211:328   */\ntag_22:\n    /* \"#utility.yul\":320:321   */\n  0x00\n    /* \"#utility.yul\":317:318   */\n  dup1\n    /* \"#utility.yul\":310:322   */\n  revert\n    /* \"#utility.yul\":334:451   */\ntag_23:\n    /* \"#utility.yul\":443:444   */\n  0x00\n    /* \"#utility.yul\":440:441   */\n  dup1\n    /* \"#utility.yul\":433:445   */\n  revert\n    /* \"#utility.yul\":457:559   */\ntag_24:\n    /* \"#utility.yul\":498:504   */\n  0x00\n    /* \"#utility.yul\":549:551   */\n  0x1f\n    /* \"#utility.yul\":545:552   */\n  not\n    /* \"#utility.yul\":540:542   */\n  0x1f\n    /* \"#utility.yul\":533:538   */\n  dup4\n    /* \"#utility.yul\":529:543   */\n  add\n    /* \"#utility.yul\":525:553   */\n  and\n    /* \"#utility.yul\":515:553   */\n  swap1\n  pop\n    /* \"#utility.yul\":457:559   */\n  swap2\n  swap1\n  pop\n  jump\t// out\n    /* \"#utility.yul\":565:745   */\ntag_25:\n    /* \"#utility.yul\":613:690   */\n  0x4e487b7100000000000000000000000000000000000000000000000000000000\n    /* \"#utility.yul\":610:611   */\n  0x00\n    /* \"#utility.yul\":603:691   */\n  mstore\n    /* \"#utility.yul\":710:714   */\n  0x41\n    /* \"#utility.yul\":707:708   */\n  0x04\n    /* \"#utility.yul\":700:715   */\n  mstore\n    /* \"#utility.yul\":734:738   */\n  0x24\n    /* \"#utility.yul\":731:732   */\n  0x00\n    /* \"#utility.yul\":724:739   */\n  revert\n    /* \"#utility.yul\":751:1032   */\ntag_26:\n    /* \"#utility.yul\":834:861   */\n  tag_67\n    /* \"#utility.yul\":856:860   */\n  dup3\n    /* \"#utility.yul\":834:861   */\n  tag_24\n  jump\t// in\ntag_67:\n    /* \"#utility.yul\":826:832   */\n  dup2\n    /* \"#utility.yul\":822:862   */\n  add\n    /* \"#utility.yul\":964:970   */\n  dup2\n    /* \"#utility.yul\":952:962   */\n  dup2\n    /* \"#utility.yul\":949:971   */\n  lt\n    /* \"#utility.yul\":928:946   */\n  0xffffffffffffffff\n    /* \"#utility.yul\":916:926   */\n  dup3\n    /* \"#utility.yul\":913:947   */\n  gt\n    /* \"#utility.yul\":910:972   */\n  or\n    /* \"#utility.yul\":907:995   */\n  iszero\n  tag_68\n  jumpi\n    /* \"#utility.yul\":975:993   */\n  tag_69\n  tag_25\n  jump\t// in\ntag_69:\n    /* \"#utility.yul\":907:995   */\ntag_68:\n    /* \"#utility.yul\":1015:1025   */\n  dup1\n    /* \"#utility.yul\":1011:1013   */\n  0x40\n    /* \"#utility.yul\":1004:1026   */\n  mstore\n    /* \"#utility.yul\":794:1032   */\n  pop\n    /* \"#utility.yul\":751:1032   */\n  pop\n  pop\n  jump\t// out\n    /* \"#utility.yul\":1038:1167   */\ntag_27:\n    /* \"#utility.yul\":1072:1078   */\n  0x00\n    /* \"#utility.yul\":1099:1119   */\n  tag_71\n  tag_20\n  jump\t// in\ntag_71:\n    /* \"#utility.yul\":1089:1119   */\n  swap1\n  pop\n    /* \"#utility.yul\":1128:1161   */\n  tag_72\n    /* \"#utility.yul\":1156:1160   */\n  dup3\n    /* \"#utility.yul\":1148:1154   */\n  dup3\n    /* \"#utility.yul\":1128:1161   */\n  tag_26\n  jump\t// in\ntag_72:\n    /* \"#utility.yul\":1038:1167   */\n  swap2\n  swap1\n  pop\n  jump\t// out\n    /* \"#utility.yul\":1173:1494   */\ntag_28:\n    /* \"#utility.yul\":1260:1264   */\n  0x00\n    /* \"#utility.yul\":1350:1368   */\n  0xffffffffffffffff\n    /* \"#utility.yul\":1342:1348   */\n  dup3\n    /* \"#utility.yul\":1339:1369   */\n  gt\n    /* \"#utility.yul\":1336:1392   */\n  iszero\n  tag_74\n  jumpi\n    /* \"#utility.yul\":1372:1390   */\n  tag_75\n  tag_25\n  jump\t// in\ntag_75:\n    /* \"#utility.yul\":1336:1392   */\ntag_74:\n    /* \"#utility.yul\":1422:1426   */\n  0x20\n    /* \"#utility.yul\":1414:1420   */\n  dup3\n    /* \"#utility.yul\":1410:1427   */\n  mul\n    /* \"#utility.yul\":1402:1427   */\n  swap1\n  pop\n    /* \"#utility.yul\":1482:1486   */\n  0x20\n    /* \"#utility.yul\":1476:1480   */\n  dup2\n    /* \"#utility.yul\":1472:1487   */\n  add\n    /* \"#utility.yul\":1464:1487   */\n  swap1\n  pop\n    /* \"#utility.yul\":1173:1494   */\n  swap2\n  swap1\n  pop\n  jump\t// out\n    /* \"#utility.yul\":1500:1617   */\ntag_29:\n    /* \"#utility.yul\":1609:1610   */\n  0x00\n    /* \"#utility.yul\":1606:1607   */\n  dup1\n    /* \"#utility.yul\":1599:1611   */\n  revert\n    /* \"#utility.yul\":1623:1740   */\ntag_30:\n    /* \"#utility.yul\":1732:1733   */\n  0x00\n    /* \"#utility.yul\":1729:1730   */\n  dup1\n    /* \"#utility.yul\":1722:1734   */\n  revert\n    /* \"#utility.yul\":1746:2054   */\ntag_31:\n    /* \"#utility.yul\":1808:1812   */\n  0x00\n    /* \"#utility.yul\":1898:1916   */\n  0xffffffffffffffff\n    /* \"#utility.yul\":1890:1896   */\n  dup3\n    /* \"#utility.yul\":1887:1917   */\n  gt\n    /* \"#utility.yul\":1884:1940   */\n  iszero\n  tag_79\n  jumpi\n    /* \"#utility.yul\":1920:1938   */\n  tag_80\n  tag_25\n  jump\t// in\ntag_80:\n    /* \"#utility.yul\":1884:1940   */\ntag_79:\n    /* \"#utility.yul\":1958:1987   */\n  tag_81\n    /* \"#utility.yul\":1980:1986   */\n  dup3\n    /* \"#utility.yul\":1958:1987   */\n  tag_24\n  jump\t// in\ntag_81:\n    /* \"#utility.yul\":1950:1987   */\n  swap1\n  pop\n    /* \"#utility.yul\":2042:2046   */\n  0x20\n    /* \"#utility.yul\":2036:2040   */\n  dup2\n    /* \"#utility.yul\":2032:2047   */\n  add\n    /* \"#utility.yul\":2024:2047   */\n  swap1\n  pop\n    /* \"#utility.yul\":1746:2054   */\n  swap2\n  swap1\n  pop\n  jump\t// out\n    /* \"#utility.yul\":2060:2199   */\ntag_32:\n    /* \"#utility.yul\":2149:2155   */\n  dup3\n    /* \"#utility.yul\":2144:2147   */\n  dup2\n    /* \"#utility.yul\":2139:2142   */\n  dup4\n    /* \"#utility.yul\":2133:2156   */\n  mcopy\n    /* \"#utility.yul\":2190:2191   */\n  0x00\n    /* \"#utility.yul\":2181:2187   */\n  dup4\n    /* \"#utility.yul\":2176:2179   */\n  dup4\n    /* \"#utility.yul\":2172:2188   */\n  add\n    /* \"#utility.yul\":2165:2192   */\n  mstore\n    /* \"#utility.yul\":2060:2199   */\n  pop\n  pop\n  pop\n  jump\t// out\n    /* \"#utility.yul\":2205:2639   */\ntag_33:\n    /* \"#utility.yul\":2294:2299   */\n  0x00\n    /* \"#utility.yul\":2319:2385   */\n  tag_84\n    /* \"#utility.yul\":2335:2384   */\n  tag_85\n    /* \"#utility.yul\":2377:2383   */\n  dup5\n    /* \"#utility.yul\":2335:2384   */\n  tag_31\n  jump\t// in\ntag_85:\n    /* \"#utility.yul\":2319:2385   */\n  tag_27\n  jump\t// in\ntag_84:\n    /* \"#utility.yul\":2310:2385   */\n  swap1\n  pop\n    /* \"#utility.yul\":2408:2414   */\n  dup3\n    /* \"#utility.yul\":2401:2406   */\n  dup2\n    /* \"#utility.yul\":2394:2415   */\n  mstore\n    /* \"#utility.yul\":2446:2450   */\n  0x20\n    /* \"#utility.yul\":2439:2444   */\n  dup2\n    /* \"#utility.yul\":2435:2451   */\n  add\n    /* \"#utility.yul\":2484:2487   */\n  dup5\n    /* \"#utility.yul\":2475:2481   */\n  dup5\n    /* \"#utility.yul\":2470:2473   */\n  dup5\n    /* \"#utility.yul\":2466:2482   */\n  add\n    /* \"#utility.yul\":2463:2488   */\n  gt\n    /* \"#utility.yul\":2460:2572   */\n  iszero\n  tag_86\n  jumpi\n    /* \"#utility.yul\":2491:2570   */\n  tag_87\n  tag_30\n  jump\t// in\ntag_87:\n    /* \"#utility.yul\":2460:2572   */\ntag_86:\n    /* \"#utility.yul\":2581:2633   */\n  tag_88\n    /* \"#utility.yul\":2626:2632   */\n  dup5\n    /* \"#utility.yul\":2621:2624   */\n  dup3\n    /* \"#utility.yul\":2616:2619   */\n  dup6\n    /* \"#utility.yul\":2581:2633   */\n  tag_32\n  jump\t// in\ntag_88:\n    /* \"#utility.yul\":2300:2639   */\n  pop\n    /* \"#utility.yul\":2205:2639   */\n  swap4\n  swap3\n  pop\n  pop\n  pop\n  jump\t// out\n    /* \"#utility.yul\":2659:3014   */\ntag_34:\n    /* \"#utility.yul\":2726:2731   */\n  0x00\n    /* \"#utility.yul\":2775:2778   */\n  dup3\n    /* \"#utility.yul\":2768:2772   */\n  0x1f\n    /* \"#utility.yul\":2760:2766   */\n  dup4\n    /* \"#utility.yul\":2756:2773   */\n  add\n    /* \"#utility.yul\":2752:2779   */\n  slt\n    /* \"#utility.yul\":2742:2864   */\n  tag_90\n  jumpi\n    /* \"#utility.yul\":2783:2862   */\n  tag_91\n  tag_23\n  jump\t// in\ntag_91:\n    /* \"#utility.yul\":2742:2864   */\ntag_90:\n    /* \"#utility.yul\":2893:2899   */\n  dup2\n    /* \"#utility.yul\":2887:2900   */\n  mload\n    /* \"#utility.yul\":2918:3008   */\n  tag_92\n    /* \"#utility.yul\":3004:3007   */\n  dup5\n    /* \"#utility.yul\":2996:3002   */\n  dup3\n    /* \"#utility.yul\":2989:2993   */\n  0x20\n    /* \"#utility.yul\":2981:2987   */\n  dup7\n    /* \"#utility.yul\":2977:2994   */\n  add\n    /* \"#utility.yul\":2918:3008   */\n  tag_33\n  jump\t// in\ntag_92:\n    /* \"#utility.yul\":2909:3008   */\n  swap2\n  pop\n    /* \"#utility.yul\":2732:3014   */\n  pop\n    /* \"#utility.yul\":2659:3014   */\n  swap3\n  swap2\n  pop\n  pop\n  jump\t// out\n    /* \"#utility.yul\":3036:3996   */\ntag_35:\n    /* \"#utility.yul\":3153:3158   */\n  0x00\n    /* \"#utility.yul\":3178:3269   */\n  tag_94\n    /* \"#utility.yul\":3194:3268   */\n  tag_95\n    /* \"#utility.yul\":3261:3267   */\n  dup5\n    /* \"#utility.yul\":3194:3268   */\n  tag_28\n  jump\t// in\ntag_95:\n    /* \"#utility.yul\":3178:3269   */\n  tag_27\n  jump\t// in\ntag_94:\n    /* \"#utility.yul\":3169:3269   */\n  swap1\n  pop\n    /* \"#utility.yul\":3289:3294   */\n  dup1\n    /* \"#utility.yul\":3318:3324   */\n  dup4\n    /* \"#utility.yul\":3311:3316   */\n  dup3\n    /* \"#utility.yul\":3304:3325   */\n  mstore\n    /* \"#utility.yul\":3352:3356   */\n  0x20\n    /* \"#utility.yul\":3345:3350   */\n  dup3\n    /* \"#utility.yul\":3341:3357   */\n  add\n    /* \"#utility.yul\":3334:3357   */\n  swap1\n  pop\n    /* \"#utility.yul\":3405:3409   */\n  0x20\n    /* \"#utility.yul\":3397:3403   */\n  dup5\n    /* \"#utility.yul\":3393:3410   */\n  mul\n    /* \"#utility.yul\":3385:3391   */\n  dup4\n    /* \"#utility.yul\":3381:3411   */\n  add\n    /* \"#utility.yul\":3434:3437   */\n  dup6\n    /* \"#utility.yul\":3426:3432   */\n  dup2\n    /* \"#utility.yul\":3423:3438   */\n  gt\n    /* \"#utility.yul\":3420:3542   */\n  iszero\n  tag_96\n  jumpi\n    /* \"#utility.yul\":3453:3532   */\n  tag_97\n  tag_29\n  jump\t// in\ntag_97:\n    /* \"#utility.yul\":3420:3542   */\ntag_96:\n    /* \"#utility.yul\":3568:3574   */\n  dup4\n    /* \"#utility.yul\":3551:3990   */\ntag_98:\n    /* \"#utility.yul\":3585:3591   */\n  dup2\n    /* \"#utility.yul\":3580:3583   */\n  dup2\n    /* \"#utility.yul\":3577:3592   */\n  lt\n    /* \"#utility.yul\":3551:3990   */\n  iszero\n  tag_100\n  jumpi\n    /* \"#utility.yul\":3667:3670   */\n  dup1\n    /* \"#utility.yul\":3661:3671   */\n  mload\n    /* \"#utility.yul\":3703:3721   */\n  0xffffffffffffffff\n    /* \"#utility.yul\":3690:3701   */\n  dup2\n    /* \"#utility.yul\":3687:3722   */\n  gt\n    /* \"#utility.yul\":3684:3806   */\n  iszero\n  tag_101\n  jumpi\n    /* \"#utility.yul\":3725:3804   */\n  tag_102\n  tag_23\n  jump\t// in\ntag_102:\n    /* \"#utility.yul\":3684:3806   */\ntag_101:\n    /* \"#utility.yul\":3849:3860   */\n  dup1\n    /* \"#utility.yul\":3841:3847   */\n  dup7\n    /* \"#utility.yul\":3837:3861   */\n  add\n    /* \"#utility.yul\":3887:3945   */\n  tag_103\n    /* \"#utility.yul\":3941:3944   */\n  dup10\n    /* \"#utility.yul\":3929:3939   */\n  dup3\n    /* \"#utility.yul\":3887:3945   */\n  tag_34\n  jump\t// in\ntag_103:\n    /* \"#utility.yul\":3882:3885   */\n  dup6\n    /* \"#utility.yul\":3875:3946   */\n  mstore\n    /* \"#utility.yul\":3975:3979   */\n  0x20\n    /* \"#utility.yul\":3970:3973   */\n  dup6\n    /* \"#utility.yul\":3966:3980   */\n  add\n    /* \"#utility.yul\":3959:3980   */\n  swap5\n  pop\n    /* \"#utility.yul\":3627:3990   */\n  pop\n  pop\n    /* \"#utility.yul\":3611:3615   */\n  0x20\n    /* \"#utility.yul\":3606:3609   */\n  dup2\n    /* \"#utility.yul\":3602:3616   */\n  add\n    /* \"#utility.yul\":3595:3616   */\n  swap1\n  pop\n    /* \"#utility.yul\":3551:3990   */\n  jump(tag_98)\ntag_100:\n    /* \"#utility.yul\":3555:3576   */\n  pop\n    /* \"#utility.yul\":3159:3996   */\n  pop\n  pop\n    /* \"#utility.yul\":3036:3996   */\n  swap4\n  swap3\n  pop\n  pop\n  pop\n  jump\t// out\n    /* \"#utility.yul\":4018:4423   */\ntag_36:\n    /* \"#utility.yul\":4110:4115   */\n  0x00\n    /* \"#utility.yul\":4159:4162   */\n  dup3\n    /* \"#utility.yul\":4152:4156   */\n  0x1f\n    /* \"#utility.yul\":4144:4150   */\n  dup4\n    /* \"#utility.yul\":4140:4157   */\n  add\n    /* \"#utility.yul\":4136:4163   */\n  slt\n    /* \"#utility.yul\":4126:4248   */\n  tag_105\n  jumpi\n    /* \"#utility.yul\":4167:4246   */\n  tag_106\n  tag_23\n  jump\t// in\ntag_106:\n    /* \"#utility.yul\":4126:4248   */\ntag_105:\n    /* \"#utility.yul\":4277:4283   */\n  dup2\n    /* \"#utility.yul\":4271:4284   */\n  mload\n    /* \"#utility.yul\":4302:4417   */\n  tag_107\n    /* \"#utility.yul\":4413:4416   */\n  dup5\n    /* \"#utility.yul\":4405:4411   */\n  dup3\n    /* \"#utility.yul\":4398:4402   */\n  0x20\n    /* \"#utility.yul\":4390:4396   */\n  dup7\n    /* \"#utility.yul\":4386:4403   */\n  add\n    /* \"#utility.yul\":4302:4417   */\n  tag_35\n  jump\t// in\ntag_107:\n    /* \"#utility.yul\":4293:4417   */\n  swap2\n  pop\n    /* \"#utility.yul\":4116:4423   */\n  pop\n    /* \"#utility.yul\":4018:4423   */\n  swap3\n  swap2\n  pop\n  pop\n  jump\t// out\n    /* \"#utility.yul\":4429:4506   */\ntag_37:\n    /* \"#utility.yul\":4466:4473   */\n  0x00\n    /* \"#utility.yul\":4495:4500   */\n  dup2\n    /* \"#utility.yul\":4484:4500   */\n  swap1\n  pop\n    /* \"#utility.yul\":4429:4506   */\n  swap2\n  swap1\n  pop\n  jump\t// out\n    /* \"#utility.yul\":4512:4634   */\ntag_38:\n    /* \"#utility.yul\":4585:4609   */\n  tag_110\n    /* \"#utility.yul\":4603:4608   */\n  dup2\n    /* \"#utility.yul\":4585:4609   */\n  tag_37\n  jump\t// in\ntag_110:\n    /* \"#utility.yul\":4578:4583   */\n  dup2\n    /* \"#utility.yul\":4575:4610   */\n  eq\n    /* \"#utility.yul\":4565:4628   */\n  tag_111\n  jumpi\n    /* \"#utility.yul\":4624:4625   */\n  0x00\n    /* \"#utility.yul\":4621:4622   */\n  dup1\n    /* \"#utility.yul\":4614:4626   */\n  revert\n    /* \"#utility.yul\":4565:4628   */\ntag_111:\n    /* \"#utility.yul\":4512:4634   */\n  pop\n  jump\t// out\n    /* \"#utility.yul\":4640:4783   */\ntag_39:\n    /* \"#utility.yul\":4697:4702   */\n  0x00\n    /* \"#utility.yul\":4728:4734   */\n  dup2\n    /* \"#utility.yul\":4722:4735   */\n  mload\n    /* \"#utility.yul\":4713:4735   */\n  swap1\n  pop\n    /* \"#utility.yul\":4744:4777   */\n  tag_113\n    /* \"#utility.yul\":4771:4776   */\n  dup2\n    /* \"#utility.yul\":4744:4777   */\n  tag_38\n  jump\t// in\ntag_113:\n    /* \"#utility.yul\":4640:4783   */\n  swap3\n  swap2\n  pop\n  pop\n  jump\t// out\n    /* \"#utility.yul\":4789:5519   */\ntag_3:\n    /* \"#utility.yul\":4903:4909   */\n  0x00\n    /* \"#utility.yul\":4911:4917   */\n  dup1\n    /* \"#utility.yul\":4960:4962   */\n  0x40\n    /* \"#utility.yul\":4948:4957   */\n  dup4\n    /* \"#utility.yul\":4939:4946   */\n  dup6\n    /* \"#utility.yul\":4935:4958   */\n  sub\n    /* \"#utility.yul\":4931:4963   */\n  slt\n    /* \"#utility.yul\":4928:5047   */\n  iszero\n  tag_115\n  jumpi\n    /* \"#utility.yul\":4966:5045   */\n  tag_116\n  tag_21\n  jump\t// in\ntag_116:\n    /* \"#utility.yul\":4928:5047   */\ntag_115:\n    /* \"#utility.yul\":5107:5108   */\n  0x00\n    /* \"#utility.yul\":5096:5105   */\n  dup4\n    /* \"#utility.yul\":5092:5109   */\n  add\n    /* \"#utility.yul\":5086:5110   */\n  mload\n    /* \"#utility.yul\":5137:5155   */\n  0xffffffffffffffff\n    /* \"#utility.yul\":5129:5135   */\n  dup2\n    /* \"#utility.yul\":5126:5156   */\n  gt\n    /* \"#utility.yul\":5123:5240   */\n  iszero\n  tag_117\n  jumpi\n    /* \"#utility.yul\":5159:5238   */\n  tag_118\n  tag_22\n  jump\t// in\ntag_118:\n    /* \"#utility.yul\":5123:5240   */\ntag_117:\n    /* \"#utility.yul\":5264:5363   */\n  tag_119\n    /* \"#utility.yul\":5355:5362   */\n  dup6\n    /* \"#utility.yul\":5346:5352   */\n  dup3\n    /* \"#utility.yul\":5335:5344   */\n  dup7\n    /* \"#utility.yul\":5331:5353   */\n  add\n    /* \"#utility.yul\":5264:5363   */\n  tag_36\n  jump\t// in\ntag_119:\n    /* \"#utility.yul\":5254:5363   */\n  swap3\n  pop\n    /* \"#utility.yul\":5057:5373   */\n  pop\n    /* \"#utility.yul\":5412:5414   */\n  0x20\n    /* \"#utility.yul\":5438:5502   */\n  tag_120\n    /* \"#utility.yul\":5494:5501   */\n  dup6\n    /* \"#utility.yul\":5485:5491   */\n  dup3\n    /* \"#utility.yul\":5474:5483   */\n  dup7\n    /* \"#utility.yul\":5470:5492   */\n  add\n    /* \"#utility.yul\":5438:5502   */\n  tag_39\n  jump\t// in\ntag_120:\n    /* \"#utility.yul\":5428:5502   */\n  swap2\n  pop\n    /* \"#utility.yul\":5383:5512   */\n  pop\n    /* \"#utility.yul\":4789:5519   */\n  swap3\n  pop\n  swap3\n  swap1\n  pop\n  jump\t// out\n    /* \"#utility.yul\":5525:5705   */\ntag_11:\n    /* \"#utility.yul\":5573:5650   */\n  0x4e487b7100000000000000000000000000000000000000000000000000000000\n    /* \"#utility.yul\":5570:5571   */\n  0x00\n    /* \"#utility.yul\":5563:5651   */\n  mstore\n    /* \"#utility.yul\":5670:5674   */\n  0x32\n    /* \"#utility.yul\":5667:5668   */\n  0x04\n    /* \"#utility.yul\":5660:5675   */\n  mstore\n    /* \"#utility.yul\":5694:5698   */\n  0x24\n    /* \"#utility.yul\":5691:5692   */\n  0x00\n    /* \"#utility.yul\":5684:5699   */\n  revert\n    /* \"#utility.yul\":5711:5810   */\ntag_40:\n    /* \"#utility.yul\":5763:5769   */\n  0x00\n    /* \"#utility.yul\":5797:5802   */\n  dup2\n    /* \"#utility.yul\":5791:5803   */\n  mload\n    /* \"#utility.yul\":5781:5803   */\n  swap1\n  pop\n    /* \"#utility.yul\":5711:5810   */\n  swap2\n  swap1\n  pop\n  jump\t// out\n    /* \"#utility.yul\":5816:5996   */\ntag_41:\n    /* \"#utility.yul\":5864:5941   */\n  0x4e487b7100000000000000000000000000000000000000000000000000000000\n    /* \"#utility.yul\":5861:5862   */\n  0x00\n    /* \"#utility.yul\":5854:5942   */\n  mstore\n    /* \"#utility.yul\":5961:5965   */\n  0x22\n    /* \"#utility.yul\":5958:5959   */\n  0x04\n    /* \"#utility.yul\":5951:5966   */\n  mstore\n    /* \"#utility.yul\":5985:5989   */\n  0x24\n    /* \"#utility.yul\":5982:5983   */\n  0x00\n    /* \"#utility.yul\":5975:5990   */\n  revert\n    /* \"#utility.yul\":6002:6322   */\ntag_42:\n    /* \"#utility.yul\":6046:6052   */\n  0x00\n    /* \"#utility.yul\":6083:6084   */\n  0x02\n    /* \"#utility.yul\":6077:6081   */\n  dup3\n    /* \"#utility.yul\":6073:6085   */\n  div\n    /* \"#utility.yul\":6063:6085   */\n  swap1\n  pop\n    /* \"#utility.yul\":6130:6131   */\n  0x01\n    /* \"#utility.yul\":6124:6128   */\n  dup3\n    /* \"#utility.yul\":6120:6132   */\n  and\n    /* \"#utility.yul\":6151:6169   */\n  dup1\n    /* \"#utility.yul\":6141:6222   */\n  tag_125\n  jumpi\n    /* \"#utility.yul\":6207:6211   */\n  0x7f\n    /* \"#utility.yul\":6199:6205   */\n  dup3\n    /* \"#utility.yul\":6195:6212   */\n  and\n    /* \"#utility.yul\":6185:6212   */\n  swap2\n  pop\n    /* \"#utility.yul\":6141:6222   */\ntag_125:\n    /* \"#utility.yul\":6269:6271   */\n  0x20\n    /* \"#utility.yul\":6261:6267   */\n  dup3\n    /* \"#utility.yul\":6258:6272   */\n  lt\n    /* \"#utility.yul\":6238:6256   */\n  dup2\n    /* \"#utility.yul\":6235:6273   */\n  sub\n    /* \"#utility.yul\":6232:6316   */\n  tag_126\n  jumpi\n    /* \"#utility.yul\":6288:6306   */\n  tag_127\n  tag_41\n  jump\t// in\ntag_127:\n    /* \"#utility.yul\":6232:6316   */\ntag_126:\n    /* \"#utility.yul\":6053:6322   */\n  pop\n    /* \"#utility.yul\":6002:6322   */\n  swap2\n  swap1\n  pop\n  jump\t// out\n    /* \"#utility.yul\":6328:6469   */\ntag_43:\n    /* \"#utility.yul\":6377:6381   */\n  0x00\n    /* \"#utility.yul\":6400:6403   */\n  dup2\n    /* \"#utility.yul\":6392:6403   */\n  swap1\n  pop\n    /* \"#utility.yul\":6423:6426   */\n  dup2\n    /* \"#utility.yul\":6420:6421   */\n  0x00\n    /* \"#utility.yul\":6413:6427   */\n  mstore\n    /* \"#utility.yul\":6457:6461   */\n  0x20\n    /* \"#utility.yul\":6454:6455   */\n  0x00\n    /* \"#utility.yul\":6444:6462   */\n  keccak256\n    /* \"#utility.yul\":6436:6462   */\n  swap1\n  pop\n    /* \"#utility.yul\":6328:6469   */\n  swap2\n  swap1\n  pop\n  jump\t// out\n    /* \"#utility.yul\":6475:6568   */\ntag_44:\n    /* \"#utility.yul\":6512:6518   */\n  0x00\n    /* \"#utility.yul\":6559:6561   */\n  0x20\n    /* \"#utility.yul\":6554:6556   */\n  0x1f\n    /* \"#utility.yul\":6547:6552   */\n  dup4\n    /* \"#utility.yul\":6543:6557   */\n  add\n    /* \"#utility.yul\":6539:6562   */\n  div\n    /* \"#utility.yul\":6529:6562   */\n  swap1\n  pop\n    /* \"#utility.yul\":6475:6568   */\n  swap2\n  swap1\n  pop\n  jump\t// out\n    /* \"#utility.yul\":6574:6681   */\ntag_45:\n    /* \"#utility.yul\":6618:6626   */\n  0x00\n    /* \"#utility.yul\":6668:6673   */\n  dup3\n    /* \"#utility.yul\":6662:6666   */\n  dup3\n    /* \"#utility.yul\":6658:6674   */\n  shl\n    /* \"#utility.yul\":6637:6674   */\n  swap1\n  pop\n    /* \"#utility.yul\":6574:6681   */\n  swap3\n  swap2\n  pop\n  pop\n  jump\t// out\n    /* \"#utility.yul\":6687:7080   */\ntag_46:\n    /* \"#utility.yul\":6756:6762   */\n  0x00\n    /* \"#utility.yul\":6806:6807   */\n  0x08\n    /* \"#utility.yul\":6794:6804   */\n  dup4\n    /* \"#utility.yul\":6790:6808   */\n  mul\n    /* \"#utility.yul\":6829:6926   */\n  tag_132\n    /* \"#utility.yul\":6859:6925   */\n  0xffffffffffffffffffffffffffffffffffffffffffffffffffffffffffffffff\n    /* \"#utility.yul\":6848:6857   */\n  dup3\n    /* \"#utility.yul\":6829:6926   */\n  tag_45\n  jump\t// in\ntag_132:\n    /* \"#utility.yul\":6947:6986   */\n  tag_133\n    /* \"#utility.yul\":6977:6985   */\n  dup7\n    /* \"#utility.yul\":6966:6975   */\n  dup4\n    /* \"#utility.yul\":6947:6986   */\n  tag_45\n  jump\t// in\ntag_133:\n    /* \"#utility.yul\":6935:6986   */\n  swap6\n  pop\n    /* \"#utility.yul\":7019:7023   */\n  dup1\n    /* \"#utility.yul\":7015:7024   */\n  not\n    /* \"#utility.yul\":7008:7013   */\n  dup5\n    /* \"#utility.yul\":7004:7025   */\n  and\n    /* \"#utility.yul\":6995:7025   */\n  swap4\n  pop\n    /* \"#utility.yul\":7068:7072   */\n  dup1\n    /* \"#utility.yul\":7058:7066   */\n  dup7\n    /* \"#utility.yul\":7054:7073   */\n  and\n    /* \"#utility.yul\":7047:7052   */\n  dup5\n    /* \"#utility.yul\":7044:7074   */\n  or\n    /* \"#utility.yul\":7034:7074   */\n  swap3\n  pop\n    /* \"#utility.yul\":6763:7080   */\n  pop\n  pop\n    /* \"#utility.yul\":6687:7080   */\n  swap4\n  swap3\n  pop\n  pop\n  pop\n  jump\t// out\n    /* \"#utility.yul\":7086:7146   */\ntag_47:\n    /* \"#utility.yul\":7114:7117   */\n  0x00\n    /* \"#utility.yul\":7135:7140   */\n  dup2\n    /* \"#utility.yul\":7128:7140   */\n  swap1\n  pop\n    /* \"#utility.yul\":7086:7146   */\n  swap2\n  swap1\n  pop\n  jump\t// out\n    /* \"#utility.yul\":7152:7294   */\ntag_48:\n    /* \"#utility.yul\":7202:7211   */\n  0x00\n    /* \"#utility.yul\":7235:7288   */\n  tag_136\n    /* \"#utility.yul\":7253:7287   */\n  tag_137\n    /* \"#utility.yul\":7262:7286   */\n  tag_138\n    /* \"#utility.yul\":7280:7285   */\n  dup5\n    /* \"#utility.yul\":7262:7286   */\n  tag_37\n  jump\t// in\ntag_138:\n    /* \"#utility.yul\":7253:7287   */\n  tag_47\n  jump\t// in\ntag_137:\n    /* \"#utility.yul\":7235:7288   */\n  tag_37\n  jump\t// in\ntag_136:\n    /* \"#utility.yul\":7222:7288   */\n  swap1\n  pop\n    /* \"#utility.yul\":7152:7294   */\n  swap2\n  swap1\n  pop\n  jump\t// out\n    /* \"#utility.yul\":7300:7375   */\ntag_49:\n    /* \"#utility.yul\":7343:7346   */\n  0x00\n    /* \"#utility.yul\":7364:7369   */\n  dup2\n    /* \"#utility.yul\":7357:7369   */\n  swap1\n  pop\n    /* \"#utility.yul\":7300:7375   */\n  swap2\n  swap1\n  pop\n  jump\t// out\n    /* \"#utility.yul\":7381:7650   */\ntag_50:\n    /* \"#utility.yul\":7491:7530   */\n  tag_141\n    /* \"#utility.yul\":7522:7529   */\n  dup4\n    /* \"#utility.yul\":7491:7530   */\n  tag_48\n  jump\t// in\ntag_141:\n    /* \"#utility.yul\":7552:7643   */\n  tag_142\n    /* \"#utility.yul\":7601:7642   */\n  tag_143\n    /* \"#utility.yul\":7625:7641   */\n  dup3\n    /* \"#utility.yul\":7601:7642   */\n  tag_49\n  jump\t// in\ntag_143:\n    /* \"#utility.yul\":7593:7599   */\n  dup5\n    /* \"#utility.yul\":7586:7590   */\n  dup5\n    /* \"#utility.yul\":7580:7591   */\n  sload\n    /* \"#utility.yul\":7552:7643   */\n  tag_46\n  jump\t// in\ntag_142:\n    /* \"#utility.yul\":7546:7550   */\n  dup3\n    /* \"#utility.yul\":7539:7644   */\n  sstore\n    /* \"#utility.yul\":7457:7650   */\n  pop\n    /* \"#utility.yul\":7381:7650   */\n  pop\n  pop\n  pop\n  jump\t// out\n    /* \"#utility.yul\":7656:7729   */\ntag_51:\n    /* \"#utility.yul\":7701:7704   */\n  0x00\n    /* \"#utility.yul\":7656:7729   */\n  swap1\n  jump\t// out\n    /* \"#utility.yul\":7735:7924   */\ntag_52:\n    /* \"#utility.yul\":7812:7844   */\n  tag_146\n  tag_51\n  jump\t// in\ntag_146:\n    /* \"#utility.yul\":7853:7918   */\n  tag_147\n    /* \"#utility.yul\":7911:7917   */\n  dup2\n    /* \"#utility.yul\":7903:7909   */\n  dup5\n    /* \"#utility.yul\":7897:7901   */\n  dup5\n    /* \"#utility.yul\":7853:7918   */\n  tag_50\n  jump\t// in\ntag_147:\n    /* \"#utility.yul\":7788:7924   */\n  pop\n    /* \"#utility.yul\":7735:7924   */\n  pop\n  pop\n  jump\t// out\n    /* \"#utility.yul\":7930:8116   */\ntag_53:\n    /* \"#utility.yul\":7990:8110   */\ntag_149:\n    /* \"#utility.yul\":8007:8010   */\n  dup2\n    /* \"#utility.yul\":8000:8005   */\n  dup2\n    /* \"#utility.yul\":7997:8011   */\n  lt\n    /* \"#utility.yul\":7990:8110   */\n  iszero\n  tag_151\n  jumpi\n    /* \"#utility.yul\":8061:8100   */\n  tag_152\n    /* \"#utility.yul\":8098:8099   */\n  0x00\n    /* \"#utility.yul\":8091:8096   */\n  dup3\n    /* \"#utility.yul\":8061:8100   */\n  tag_52\n  jump\t// in\ntag_152:\n    /* \"#utility.yul\":8034:8035   */\n  0x01\n    /* \"#utility.yul\":8027:8032   */\n  dup2\n    /* \"#utility.yul\":8023:8036   */\n  add\n    /* \"#utility.yul\":8014:8036   */\n  swap1\n  pop\n    /* \"#utility.yul\":7990:8110   */\n  jump(tag_149)\ntag_151:\n    /* \"#utility.yul\":7930:8116   */\n  pop\n  pop\n  jump\t// out\n    /* \"#utility.yul\":8122:8665   */\ntag_54:\n    /* \"#utility.yul\":8223:8225   */\n  0x1f\n    /* \"#utility.yul\":8218:8221   */\n  dup3\n    /* \"#utility.yul\":8215:8226   */\n  gt\n    /* \"#utility.yul\":8212:8658   */\n  iszero\n  tag_154\n  jumpi\n    /* \"#utility.yul\":8257:8295   */\n  tag_155\n    /* \"#utility.yul\":8289:8294   */\n  dup2\n    /* \"#utility.yul\":8257:8295   */\n  tag_43\n  jump\t// in\ntag_155:\n    /* \"#utility.yul\":8341:8370   */\n  tag_156\n    /* \"#utility.yul\":8359:8369   */\n  dup5\n    /* \"#utility.yul\":8341:8370   */\n  tag_44\n  jump\t// in\ntag_156:\n    /* \"#utility.yul\":8331:8339   */\n  dup2\n    /* \"#utility.yul\":8327:8371   */\n  add\n    /* \"#utility.yul\":8524:8526   */\n  0x20\n    /* \"#utility.yul\":8512:8522   */\n  dup6\n    /* \"#utility.yul\":8509:8527   */\n  lt\n    /* \"#utility.yul\":8506:8555   */\n  iszero\n  tag_157\n  jumpi\n    /* \"#utility.yul\":8545:8553   */\n  dup2\n    /* \"#utility.yul\":8530:8553   */\n  swap1\n  pop\n    /* \"#utility.yul\":8506:8555   */\ntag_157:\n    /* \"#utility.yul\":8568:8648   */\n  tag_158\n    /* \"#utility.yul\":8624:8646   */\n  tag_159\n    /* \"#utility.yul\":8642:8645   */\n  dup6\n    /* \"#utility.yul\":8624:8646   */\n  tag_44\n  jump\t// in\ntag_159:\n    /* \"#utility.yul\":8614:8622   */\n  dup4\n    /* \"#utility.yul\":8610:8647   */\n  add\n    /* \"#utility.yul\":8597:8608   */\n  dup3\n    /* \"#utility.yul\":8568:8648   */\n  tag_53\n  jump\t// in\ntag_158:\n    /* \"#utility.yul\":8227:8658   */\n  pop\n  pop\n    /* \"#utility.yul\":8212:8658   */\ntag_154:\n    /* \"#utility.yul\":8122:8665   */\n  pop\n  pop\n  pop\n  jump\t// out\n    /* \"#utility.yul\":8671:8788   */\ntag_55:\n    /* \"#utility.yul\":8725:8733   */\n  0x00\n    /* \"#utility.yul\":8775:8780   */\n  dup3\n    /* \"#utility.yul\":8769:8773   */\n  dup3\n    /* \"#utility.yul\":8765:8781   */\n  shr\n    /* \"#utility.yul\":8744:8781   */\n  swap1\n  pop\n    /* \"#utility.yul\":8671:8788   */\n  swap3\n  swap2\n  pop\n  pop\n  jump\t// out\n    /* \"#utility.yul\":8794:8963   */\ntag_56:\n    /* \"#utility.yul\":8838:8844   */\n  0x00\n    /* \"#utility.yul\":8871:8922   */\n  tag_162\n    /* \"#utility.yul\":8919:8920   */\n  0x00\n    /* \"#utility.yul\":8915:8921   */\n  not\n    /* \"#utility.yul\":8907:8912   */\n  dup5\n    /* \"#utility.yul\":8904:8905   */\n  0x08\n    /* \"#utility.yul\":8900:8913   */\n  mul\n    /* \"#utility.yul\":8871:8922   */\n  tag_55\n  jump\t// in\ntag_162:\n    /* \"#utility.yul\":8867:8923   */\n  not\n    /* \"#utility.yul\":8952:8956   */\n  dup1\n    /* \"#utility.yul\":8946:8950   */\n  dup4\n    /* \"#utility.yul\":8942:8957   */\n  and\n    /* \"#utility.yul\":8932:8957   */\n  swap2\n  pop\n    /* \"#utility.yul\":8845:8963   */\n  pop\n    /* \"#utility.yul\":8794:8963   */\n  swap3\n  swap2\n  pop\n  pop\n  jump\t// out\n    /* \"#utility.yul\":8968:9263   */\ntag_57:\n    /* \"#utility.yul\":9044:9048   */\n  0x00\n    /* \"#utility.yul\":9190:9219   */\n  tag_164\n    /* \"#utility.yul\":9215:9218   */\n  dup4\n    /* \"#utility.yul\":9209:9213   */\n  dup4\n    /* \"#utility.yul\":9190:9219   */\n  tag_56\n  jump\t// in\ntag_164:\n    /* \"#utility.yul\":9182:9219   */\n  swap2\n  pop\n    /* \"#utility.yul\":9252:9255   */\n  dup3\n    /* \"#utility.yul\":9249:9250   */\n  0x02\n    /* \"#utility.yul\":9245:9256   */\n  mul\n    /* \"#utility.yul\":9239:9243   */\n  dup3\n    /* \"#utility.yul\":9236:9257   */\n  or\n    /* \"#utility.yul\":9228:9257   */\n  swap1\n  pop\n    /* \"#utility.yul\":8968:9263   */\n  swap3\n  swap2\n  pop\n  pop\n  jump\t// out\n    /* \"#utility.yul\":9268:10663   */\ntag_14:\n    /* \"#utility.yul\":9385:9422   */\n  tag_166\n    /* \"#utility.yul\":9418:9421   */\n  dup3\n    /* \"#utility.yul\":9385:9422   */\n  tag_40\n  jump\t// in\ntag_166:\n    /* \"#utility.yul\":9487:9505   */\n  0xffffffffffffffff\n    /* \"#utility.yul\":9479:9485   */\n  dup2\n    /* \"#utility.yul\":9476:9506   */\n  gt\n    /* \"#utility.yul\":9473:9529   */\n  iszero\n  tag_167\n  jumpi\n    /* \"#utility.yul\":9509:9527   */\n  tag_168\n  tag_25\n  jump\t// in\ntag_168:\n    /* \"#utility.yul\":9473:9529   */\ntag_167:\n    /* \"#utility.yul\":9553:9591   */\n  tag_169\n    /* \"#utility.yul\":9585:9589   */\n  dup3\n    /* \"#utility.yul\":9579:9590   */\n  sload\n    /* \"#utility.yul\":9553:9591   */\n  tag_42\n  jump\t// in\ntag_169:\n    /* \"#utility.yul\":9638:9705   */\n  tag_170\n    /* \"#utility.yul\":9698:9704   */\n  dup3\n    /* \"#utility.yul\":9690:9696   */\n  dup3\n    /* \"#utility.yul\":9684:9688   */\n  dup6\n    /* \"#utility.yul\":9638:9705   */\n  tag_54\n  jump\t// in\ntag_170:\n    /* \"#utility.yul\":9732:9733   */\n  0x00\n    /* \"#utility.yul\":9756:9760   */\n  0x20\n    /* \"#utility.yul\":9743:9760   */\n  swap1\n  pop\n    /* \"#utility.yul\":9788:9790   */\n  0x1f\n    /* \"#utility.yul\":9780:9786   */\n  dup4\n    /* \"#utility.yul\":9777:9791   */\n  gt\n    /* \"#utility.yul\":9805:9806   */\n  0x01\n    /* \"#utility.yul\":9800:10418   */\n  dup2\n  eq\n  tag_172\n  jumpi\n    /* \"#utility.yul\":10462:10463   */\n  0x00\n    /* \"#utility.yul\":10479:10485   */\n  dup5\n    /* \"#utility.yul\":10476:10553   */\n  iszero\n  tag_173\n  jumpi\n    /* \"#utility.yul\":10528:10537   */\n  dup3\n    /* \"#utility.yul\":10523:10526   */\n  dup8\n    /* \"#utility.yul\":10519:10538   */\n  add\n    /* \"#utility.yul\":10513:10539   */\n  mload\n    /* \"#utility.yul\":10504:10539   */\n  swap1\n  pop\n    /* \"#utility.yul\":10476:10553   */\ntag_173:\n    /* \"#utility.yul\":10579:10646   */\n  tag_174\n    /* \"#utility.yul\":10639:10645   */\n  dup6\n    /* \"#utility.yul\":10632:10637   */\n  dup3\n    /* \"#utility.yul\":10579:10646   */\n  tag_57\n  jump\t// in\ntag_174:\n    /* \"#utility.yul\":10573:10577   */\n  dup7\n    /* \"#utility.yul\":10566:10647   */\n  sstore\n    /* \"#utility.yul\":10435:10657   */\n  pop\n    /* \"#utility.yul\":9770:10657   */\n  jump(tag_171)\n    /* \"#utility.yul\":9800:10418   */\ntag_172:\n    /* \"#utility.yul\":9852:9856   */\n  0x1f\n    /* \"#utility.yul\":9848:9857   */\n  not\n    /* \"#utility.yul\":9840:9846   */\n  dup5\n    /* \"#utility.yul\":9836:9858   */\n  and\n    /* \"#utility.yul\":9886:9923   */\n  tag_175\n    /* \"#utility.yul\":9918:9922   */\n  dup7\n    /* \"#utility.yul\":9886:9923   */\n  tag_43\n  jump\t// in\ntag_175:\n    /* \"#utility.yul\":9945:9946   */\n  0x00\n    /* \"#utility.yul\":9959:10167   */\ntag_176:\n    /* \"#utility.yul\":9973:9980   */\n  dup3\n    /* \"#utility.yul\":9970:9971   */\n  dup2\n    /* \"#utility.yul\":9967:9981   */\n  lt\n    /* \"#utility.yul\":9959:10167   */\n  iszero\n  tag_178\n  jumpi\n    /* \"#utility.yul\":10052:10061   */\n  dup5\n    /* \"#utility.yul\":10047:10050   */\n  dup10\n    /* \"#utility.yul\":10043:10062   */\n  add\n    /* \"#utility.yul\":10037:10063   */\n  mload\n    /* \"#utility.yul\":10029:10035   */\n  dup3\n    /* \"#utility.yul\":10022:10064   */\n  sstore\n    /* \"#utility.yul\":10103:10104   */\n  0x01\n    /* \"#utility.yul\":10095:10101   */\n  dup3\n    /* \"#utility.yul\":10091:10105   */\n  add\n    /* \"#utility.yul\":10081:10105   */\n  swap2\n  pop\n    /* \"#utility.yul\":10150:10152   */\n  0x20\n    /* \"#utility.yul\":10139:10148   */\n  dup6\n    /* \"#utility.yul\":10135:10153   */\n  add\n    /* \"#utility.yul\":10122:10153   */\n  swap5\n  pop\n    /* \"#utility.yul\":9996:10000   */\n  0x20\n    /* \"#utility.yul\":9993:9994   */\n  dup2\n    /* \"#utility.yul\":9989:10001   */\n  add\n    /* \"#utility.yul\":9984:10001   */\n  swap1\n  pop\n    /* \"#utility.yul\":9959:10167   */\n  jump(tag_176)\ntag_178:\n    /* \"#utility.yul\":10195:10201   */\n  dup7\n    /* \"#utility.yul\":10186:10193   */\n  dup4\n    /* \"#utility.yul\":10183:10202   */\n  lt\n    /* \"#utility.yul\":10180:10359   */\n  iszero\n  tag_179\n  jumpi\n    /* \"#utility.yul\":10253:10262   */\n  dup5\n    /* \"#utility.yul\":10248:10251   */\n  dup10\n    /* \"#utility.yul\":10244:10263   */\n  add\n    /* \"#utility.yul\":10238:10264   */\n  mload\n    /* \"#utility.yul\":10296:10344   */\n  tag_180\n    /* \"#utility.yul\":10338:10342   */\n  0x1f\n    /* \"#utility.yul\":10330:10336   */\n  dup10\n    /* \"#utility.yul\":10326:10343   */\n  and\n    /* \"#utility.yul\":10315:10324   */\n  dup3\n    /* \"#utility.yul\":10296:10344   */\n  tag_56\n  jump\t// in\ntag_180:\n    /* \"#utility.yul\":10288:10294   */\n  dup4\n    /* \"#utility.yul\":10281:10345   */\n  sstore\n    /* \"#utility.yul\":10203:10359   */\n  pop\n    /* \"#utility.yul\":10180:10359   */\ntag_179:\n    /* \"#utility.yul\":10405:10406   */\n  0x01\n    /* \"#utility.yul\":10401:10402   */\n  0x02\n    /* \"#utility.yul\":10393:10399   */\n  dup9\n    /* \"#utility.yul\":10389:10403   */\n  mul\n    /* \"#utility.yul\":10385:10407   */\n  add\n    /* \"#utility.yul\":10379:10383   */\n  dup9\n    /* \"#utility.yul\":10372:10408   */\n  sstore\n    /* \"#utility.yul\":9807:10418   */\n  pop\n  pop\n  pop\n    /* \"#utility.yul\":9770:10657   */\ntag_171:\n  pop\n    /* \"#utility.yul\":9360:10663   */\n  pop\n  pop\n  pop\n    /* \"#utility.yul\":9268:10663   */\n  pop\n  pop\n  jump\t// out\n    /* \"#utility.yul\":10669:10849   */\ntag_58:\n    /* \"#utility.yul\":10717:10794   */\n  0x4e487b7100000000000000000000000000000000000000000000000000000000\n    /* \"#utility.yul\":10714:10715   */\n  0x00\n    /* \"#utility.yul\":10707:10795   */\n  mstore\n    /* \"#utility.yul\":10814:10818   */\n  0x11\n    /* \"#utility.yul\":10811:10812   */\n  0x04\n    /* \"#utility.yul\":10804:10819   */\n  mstore\n    /* \"#utility.yul\":10838:10842   */\n  0x24\n    /* \"#utility.yul\":10835:10836   */\n  0x00\n    /* \"#utility.yul\":10828:10843   */\n  revert\n    /* \"#utility.yul\":10855:11265   */\ntag_16:\n    /* \"#utility.yul\":10895:10902   */\n  0x00\n    /* \"#utility.yul\":10918:10938   */\n  tag_183\n    /* \"#utility.yul\":10936:10937   */\n  dup3\n    /* \"#utility.yul\":10918:10938   */\n  tag_37\n  jump\t// in\ntag_183:\n    /* \"#utility.yul\":10913:10938   */\n  swap2\n  pop\n    /* \"#utility.yul\":10952:10972   */\n  tag_184\n    /* \"#utility.yul\":10970:10971   */\n  dup4\n    /* \"#utility.yul\":10952:10972   */\n  tag_37\n  jump\t// in\ntag_184:\n    /* \"#utility.yul\":10947:10972   */\n  swap3\n  pop\n    /* \"#utility.yul\":11007:11008   */\n  dup3\n    /* \"#utility.yul\":11004:11005   */\n  dup3\n    /* \"#utility.yul\":11000:11009   */\n  mul\n    /* \"#utility.yul\":11029:11059   */\n  tag_185\n    /* \"#utility.yul\":11047:11058   */\n  dup2\n    /* \"#utility.yul\":11029:11059   */\n  tag_37\n  jump\t// in\ntag_185:\n    /* \"#utility.yul\":11018:11059   */\n  swap2\n  pop\n    /* \"#utility.yul\":11208:11209   */\n  dup3\n    /* \"#utility.yul\":11199:11206   */\n  dup3\n    /* \"#utility.yul\":11195:11210   */\n  div\n    /* \"#utility.yul\":11192:11193   */\n  dup5\n    /* \"#utility.yul\":11189:11211   */\n  eq\n    /* \"#utility.yul\":11169:11170   */\n  dup4\n    /* \"#utility.yul\":11162:11171   */\n  iszero\n    /* \"#utility.yul\":11142:11225   */\n  or\n    /* \"#utility.yul\":11119:11258   */\n  tag_186\n  jumpi\n    /* \"#utility.yul\":11238:11256   */\n  tag_187\n  tag_58\n  jump\t// in\ntag_187:\n    /* \"#utility.yul\":11119:11258   */\ntag_186:\n    /* \"#utility.yul\":10903:11265   */\n  pop\n    /* \"#utility.yul\":10855:11265   */\n  swap3\n  swap2\n  pop\n  pop\n  jump\t// out\n    /* \"#utility.yul\":11271:11462   */\ntag_18:\n    /* \"#utility.yul\":11311:11314   */\n  0x00\n    /* \"#utility.yul\":11330:11350   */\n  tag_189\n    /* \"#utility.yul\":11348:11349   */\n  dup3\n    /* \"#utility.yul\":11330:11350   */\n  tag_37\n  jump\t// in\ntag_189:\n    /* \"#utility.yul\":11325:11350   */\n  swap2\n  pop\n    /* \"#utility.yul\":11364:11384   */\n  tag_190\n    /* \"#utility.yul\":11382:11383   */\n  dup4\n    /* \"#utility.yul\":11364:11384   */\n  tag_37\n  jump\t// in\ntag_190:\n    /* \"#utility.yul\":11359:11384   */\n  swap3\n  pop\n    /* \"#utility.yul\":11407:11408   */\n  dup3\n    /* \"#utility.yul\":11404:11405   */\n  dup3\n    /* \"#utility.yul\":11400:11409   */\n  add\n    /* \"#utility.yul\":11393:11409   */\n  swap1\n  pop\n    /* \"#utility.yul\":11428:11431   */\n  dup1\n    /* \"#utility.yul\":11425:11426   */\n  dup3\n    /* \"#utility.yul\":11422:11432   */\n  gt\n    /* \"#utility.yul\":11419:11455   */\n  iszero\n  tag_191\n  jumpi\n    /* \"#utility.yul\":11435:11453   */\n  tag_192\n  tag_58\n  jump\t// in\ntag_192:\n    /* \"#utility.yul\":11419:11455   */\ntag_191:\n    /* \"#utility.yul\":11271:11462   */\n  swap3\n  swap2\n  pop\n  pop\n  jump\t// out\n    /* \"contracts/HelloWorld.sol\":57:1867  contract Voting {... */\ntag_19:\n  dataSize(sub_0)\n  dup1\n  dataOffset(sub_0)\n  0x00\n  codecopy\n  0x00\n  return\nstop\n\nsub_0: assembly {\n        /* \"contracts/HelloWorld.sol\":57:1867  contract Voting {... */\n      mstore(0x40, 0x80)\n      callvalue\n      dup1\n      iszero\n      tag_1\n      jumpi\n      0x00\n      dup1\n      revert\n    tag_1:\n      pop\n      jumpi(tag_2, lt(calldatasize, 0x04))\n      shr(0xe0, calldataload(0x00))\n      dup1\n      0x85a38635\n      gt\n      tag_13\n      jumpi\n      dup1\n      0x85a38635\n      eq\n      tag_8\n      jumpi\n      dup1\n      0x8da5cb5b\n      eq\n      tag_9\n      jumpi\n      dup1\n      0x90a9ab90\n      eq\n      tag_10\n      jumpi\n      dup1\n      0xa3ec138d\n      eq\n      tag_11\n      jumpi\n      dup1\n      0xefb98bcf\n      eq\n      tag_12\n      jumpi\n      jump(tag_2)\n    tag_13:\n      dup1\n      0x0121b93f\n      eq\n      tag_3\n      jumpi\n      dup1\n      0x101158af\n      eq\n      tag_4\n      jumpi\n      dup1\n      0x3477ee2e\n      eq\n      tag_5\n      jumpi\n      dup1\n      0x462e91ec\n      eq\n      tag_6\n      jumpi\n      dup1\n      0x581c281c\n      eq\n      tag_7\n      jumpi\n    tag_2:\n      0x00\n      dup1\n      revert\n        /* \"contracts/HelloWorld.sol\":1046:1331  function vote(uint256 _candidateIndex) public {... */\n    tag_3:\n      tag_14\n      0x04\n      dup1\n      calldatasize\n      sub\n      dup2\n      add\n      swap1\n      tag_15\n      swap2\n      swap1\n      tag_16\n      jump\t// in\n    tag_15:\n      tag_17\n      jump\t// in\n    tag_14:\n      stop\n        /* \"contracts/HelloWorld.sol\":263:289  uint256 public votingStart */\n    tag_4:\n      tag_18\n      tag_19\n      jump\t// in\n    tag_18:\n      mload(0x40)\n      tag_20\n      swap2\n      swap1\n      tag_21\n      jump\t// in\n    tag_20:\n      mload(0x40)\n      dup1\n      swap2\n      sub\n      swap1\n      return\n        /* \"contracts/HelloWorld.sol\":157:186  Candidate[] public candidates */\n    tag_5:\n      tag_22\n      0x04\n      dup1\n      calldatasize\n      sub\n      dup2\n      add\n      swap1\n      tag_23\n      swap2\n      swap1\n      tag_16\n      jump\t// in\n    tag_23:\n      tag_24\n      jump\t// in\n    tag_22:\n      mload(0x40)\n      tag_25\n      swap3\n      swap2\n      swap1\n      tag_26\n      jump\t// in\n    tag_25:\n      mload(0x40)\n      dup1\n      swap2\n      sub\n      swap1\n      return\n        /* \"contracts/HelloWorld.sol\":874:1040  function addCandidate(string memory _name) public onlyOwner {... */\n    tag_6:\n      tag_27\n      0x04\n      dup1\n      calldatasize\n      sub\n      dup2\n      add\n      swap1\n      tag_28\n      swap2\n      swap1\n      tag_29\n      jump\t// in\n    tag_28:\n      tag_30\n      jump\t// in\n    tag_27:\n      stop\n        /* \"contracts/HelloWorld.sol\":1453:1594  function getVotingStatus() public view returns (bool) {... */\n    tag_7:\n      tag_31\n      tag_32\n      jump\t// in\n    tag_31:\n      mload(0x40)\n      tag_33\n      swap2\n      swap1\n      tag_34\n      jump\t// in\n    tag_33:\n      mload(0x40)\n      dup1\n      swap2\n      sub\n      swap1\n      return\n        /* \"contracts/HelloWorld.sol\":295:319  uint256 public votingEnd */\n    tag_8:\n      tag_35\n      tag_36\n      jump\t// in\n    tag_35:\n      mload(0x40)\n      tag_37\n      swap2\n      swap1\n      tag_21\n      jump\t// in\n    tag_37:\n      mload(0x40)\n      dup1\n      swap2\n      sub\n      swap1\n      return\n        /* \"contracts/HelloWorld.sol\":192:212  address public owner */\n    tag_9:\n      tag_38\n      tag_39\n      jump\t// in\n    tag_38:\n      mload(0x40)\n      tag_40\n      swap2\n      swap1\n      tag_41\n      jump\t// in\n    tag_40:\n      mload(0x40)\n      dup1\n      swap2\n      sub\n      swap1\n      return\n        /* \"contracts/HelloWorld.sol\":1337:1447  function getAllVotesOfCandidates() public view returns (Candidate[] memory) {... */\n    tag_10:\n      tag_42\n      tag_43\n      jump\t// in\n    tag_42:\n      mload(0x40)\n      tag_44\n      swap2\n      swap1\n      tag_45\n      jump\t// in\n    tag_44:\n      mload(0x40)\n      dup1\n      swap2\n      sub\n      swap1\n      return\n        /* \"contracts/HelloWorld.sol\":218:256  mapping(address => bool) public voters */\n    tag_11:\n      tag_46\n      0x04\n      dup1\n      calldatasize\n      sub\n      dup2\n      add\n      swap1\n      tag_47\n      swap2\n      swap1\n      tag_48\n      jump\t// in\n    tag_47:\n      tag_49\n      jump\t// in\n    tag_46:\n      mload(0x40)\n      tag_50\n      swap2\n      swap1\n      tag_34\n      jump\t// in\n    tag_50:\n      mload(0x40)\n      dup1\n      swap2\n      sub\n      swap1\n      return\n        /* \"contracts/HelloWorld.sol\":1600:1865  function getRemainingTime() public view returns (uint256) {... */\n    tag_12:\n      tag_51\n      tag_52\n      jump\t// in\n    tag_51:\n      mload(0x40)\n      tag_53\n      swap2\n      swap1\n      tag_21\n      jump\t// in\n    tag_53:\n      mload(0x40)\n      dup1\n      swap2\n      sub\n      swap1\n      return\n        /* \"contracts/HelloWorld.sol\":1046:1331  function vote(uint256 _candidateIndex) public {... */\n    tag_17:\n        /* \"contracts/HelloWorld.sol\":1111:1117  voters */\n      0x02\n        /* \"contracts/HelloWorld.sol\":1111:1129  voters[msg.sender] */\n      0x00\n        /* \"contracts/HelloWorld.sol\":1118:1128  msg.sender */\n      caller\n        /* \"contracts/HelloWorld.sol\":1111:1129  voters[msg.sender] */\n      0xffffffffffffffffffffffffffffffffffffffff\n      and\n      0xffffffffffffffffffffffffffffffffffffffff\n      and\n      dup2\n      mstore\n      0x20\n      add\n      swap1\n      dup2\n      mstore\n      0x20\n      add\n      0x00\n      keccak256\n      0x00\n      swap1\n      sload\n      swap1\n      0x0100\n      exp\n      swap1\n      div\n      0xff\n      and\n        /* \"contracts/HelloWorld.sol\":1110:1129  !voters[msg.sender] */\n      iszero\n        /* \"contracts/HelloWorld.sol\":1102:1157  require(!voters[msg.sender], \"You have already voted.\") */\n      tag_55\n      jumpi\n      mload(0x40)\n      0x08c379a000000000000000000000000000000000000000000000000000000000\n      dup2\n      mstore\n      0x04\n      add\n      tag_56\n      swap1\n      tag_57\n      jump\t// in\n    tag_56:\n      mload(0x40)\n      dup1\n      swap2\n      sub\n      swap1\n      revert\n    tag_55:\n        /* \"contracts/HelloWorld.sol\":1193:1203  candidates */\n      0x00\n        /* \"contracts/HelloWorld.sol\":1193:1210  candidates.length */\n      dup1\n      sload\n      swap1\n      pop\n        /* \"contracts/HelloWorld.sol\":1175:1190  _candidateIndex */\n      dup2\n        /* \"contracts/HelloWorld.sol\":1175:1210  _candidateIndex < candidates.length */\n      lt\n        /* \"contracts/HelloWorld.sol\":1167:1239  require(_candidateIndex < candidates.length, \"Invalid candidate index.\") */\n      tag_58\n      jumpi\n      mload(0x40)\n      0x08c379a000000000000000000000000000000000000000000000000000000000\n      dup2\n      mstore\n      0x04\n      add\n      tag_59\n      swap1\n      tag_60\n      jump\t// in\n    tag_59:\n      mload(0x40)\n      dup1\n      swap2\n      sub\n      swap1\n      revert\n    tag_58:\n        /* \"contracts/HelloWorld.sol\":1250:1260  candidates */\n      0x00\n        /* \"contracts/HelloWorld.sol\":1261:1276  _candidateIndex */\n      dup2\n        /* \"contracts/HelloWorld.sol\":1250:1277  candidates[_candidateIndex] */\n      dup2\n      sload\n      dup2\n      lt\n      tag_61\n      jumpi\n      tag_62\n      tag_63\n      jump\t// in\n    tag_62:\n    tag_61:\n      swap1\n      0x00\n      mstore\n      keccak256(0x00, 0x20)\n      swap1\n      0x02\n      mul\n      add\n        /* \"contracts/HelloWorld.sol\":1250:1287  candidates[_candidateIndex].voteCount */\n      0x01\n      add\n      0x00\n        /* \"contracts/HelloWorld.sol\":1250:1289  candidates[_candidateIndex].voteCount++ */\n      dup2\n      sload\n      dup1\n      swap3\n      swap2\n      swap1\n      tag_65\n      swap1\n      tag_66\n      jump\t// in\n    tag_65:\n      swap2\n      swap1\n      pop\n      sstore\n      pop\n        /* \"contracts/HelloWorld.sol\":1320:1324  true */\n      0x01\n        /* \"contracts/HelloWorld.sol\":1299:1305  voters */\n      0x02\n        /* \"contracts/HelloWorld.sol\":1299:1317  voters[msg.sender] */\n      0x00\n        /* \"contracts/HelloWorld.sol\":1306:1316  msg.sender */\n      caller\n        /* \"contracts/HelloWorld.sol\":1299:1317  voters[msg.sender] */\n      0xffffffffffffffffffffffffffffffffffffffff\n      and\n      0xffffffffffffffffffffffffffffffffffffffff\n      and\n      dup2\n      mstore\n      0x20\n      add\n      swap1\n      dup2\n      mstore\n      0x20\n      add\n      0x00\n      keccak256\n      0x00\n        /* \"contracts/HelloWorld.sol\":1299:1324  voters[msg.sender] = true */\n      0x0100\n      exp\n      dup2\n      sload\n      dup2\n      0xff\n      mul\n      not\n      and\n      swap1\n      dup4\n      iszero\n      iszero\n      mul\n      or\n      swap1\n      sstore\n      pop\n        /* \"contracts/HelloWorld.sol\":1046:1331  function vote(uint256 _candidateIndex) public {... */\n      pop\n      jump\t// out\n        /* \"contracts/HelloWorld.sol\":263:289  uint256 public votingStart */\n    tag_19:\n      sload(0x03)\n      dup2\n      jump\t// out\n        /* \"contracts/HelloWorld.sol\":157:186  Candidate[] public candidates */\n    tag_24:\n      0x00\n      dup2\n      dup2\n      sload\n      dup2\n      lt\n      tag_67\n      jumpi\n      0x00\n      dup1\n      revert\n    tag_67:\n      swap1\n      0x00\n      mstore\n      keccak256(0x00, 0x20)\n      swap1\n      0x02\n      mul\n      add\n      0x00\n      swap2\n      pop\n      swap1\n      pop\n      dup1\n      0x00\n      add\n      dup1\n      sload\n      tag_69\n      swap1\n      tag_70\n      jump\t// in\n    tag_69:\n      dup1\n      0x1f\n      add\n      0x20\n      dup1\n      swap2\n      div\n      mul\n      0x20\n      add\n      mload(0x40)\n      swap1\n      dup2\n      add\n      0x40\n      mstore\n      dup1\n      swap3\n      swap2\n      swap1\n      dup2\n      dup2\n      mstore\n      0x20\n      add\n      dup3\n      dup1\n      sload\n      tag_71\n      swap1\n      tag_70\n      jump\t// in\n    tag_71:\n      dup1\n      iszero\n      tag_72\n      jumpi\n      dup1\n      0x1f\n      lt\n      tag_73\n      jumpi\n      0x0100\n      dup1\n      dup4\n      sload\n      div\n      mul\n      dup4\n      mstore\n      swap2\n      0x20\n      add\n      swap2\n      jump(tag_72)\n    tag_73:\n      dup3\n      add\n      swap2\n      swap1\n      0x00\n      mstore\n      keccak256(0x00, 0x20)\n      swap1\n    tag_74:\n      dup2\n      sload\n      dup2\n      mstore\n      swap1\n      0x01\n      add\n      swap1\n      0x20\n      add\n      dup1\n      dup4\n      gt\n      tag_74\n      jumpi\n      dup3\n      swap1\n      sub\n      0x1f\n      and\n      dup3\n      add\n      swap2\n    tag_72:\n      pop\n      pop\n      pop\n      pop\n      pop\n      swap1\n      dup1\n      0x01\n      add\n      sload\n      swap1\n      pop\n      dup3\n      jump\t// out\n        /* \"contracts/HelloWorld.sol\":874:1040  function addCandidate(string memory _name) public onlyOwner {... */\n    tag_30:\n        /* \"contracts/HelloWorld.sol\":805:810  owner */\n      0x01\n      0x00\n      swap1\n      sload\n      swap1\n      0x0100\n      exp\n      swap1\n      div\n      0xffffffffffffffffffffffffffffffffffffffff\n      and\n        /* \"contracts/HelloWorld.sol\":791:810  msg.sender == owner */\n      0xffffffffffffffffffffffffffffffffffffffff\n      and\n        /* \"contracts/HelloWorld.sol\":791:801  msg.sender */\n      caller\n        /* \"contracts/HelloWorld.sol\":791:810  msg.sender == owner */\n      0xffffffffffffffffffffffffffffffffffffffff\n      and\n      eq\n        /* \"contracts/HelloWorld.sol\":783:850  require(msg.sender == owner, \"Only owner can perform this action.\") */\n      tag_76\n      jumpi\n      mload(0x40)\n      0x08c379a000000000000000000000000000000000000000000000000000000000\n      dup2\n      mstore\n      0x04\n      add\n      tag_77\n      swap1\n      tag_78\n      jump\t// in\n    tag_77:\n      mload(0x40)\n      dup1\n      swap2\n      sub\n      swap1\n      revert\n    tag_76:\n        /* \"contracts/HelloWorld.sol\":944:954  candidates */\n      0x00\n        /* \"contracts/HelloWorld.sol\":960:1032  Candidate({... */\n      mload(0x40)\n      dup1\n      0x40\n      add\n      0x40\n      mstore\n      dup1\n        /* \"contracts/HelloWorld.sol\":990:995  _name */\n      dup4\n        /* \"contracts/HelloWorld.sol\":960:1032  Candidate({... */\n      dup2\n      mstore\n      0x20\n      add\n        /* \"contracts/HelloWorld.sol\":1020:1021  0 */\n      0x00\n        /* \"contracts/HelloWorld.sol\":960:1032  Candidate({... */\n      dup2\n      mstore\n      pop\n        /* \"contracts/HelloWorld.sol\":944:1033  candidates.push(Candidate({... */\n      swap1\n      dup1\n      0x01\n      dup2\n      sload\n      add\n      dup1\n      dup3\n      sstore\n      dup1\n      swap2\n      pop\n      pop\n      0x01\n      swap1\n      sub\n      swap1\n      0x00\n      mstore\n      keccak256(0x00, 0x20)\n      swap1\n      0x02\n      mul\n      add\n      0x00\n      swap1\n      swap2\n      swap1\n      swap2\n      swap1\n      swap2\n      pop\n      0x00\n      dup3\n      add\n      mload\n      dup2\n      0x00\n      add\n      swap1\n      dup2\n      tag_81\n      swap2\n      swap1\n      tag_82\n      jump\t// in\n    tag_81:\n      pop\n      0x20\n      dup3\n      add\n      mload\n      dup2\n      0x01\n      add\n      sstore\n      pop\n      pop\n        /* \"contracts/HelloWorld.sol\":874:1040  function addCandidate(string memory _name) public onlyOwner {... */\n      pop\n      jump\t// out\n        /* \"contracts/HelloWorld.sol\":1453:1594  function getVotingStatus() public view returns (bool) {... */\n    tag_32:\n        /* \"contracts/HelloWorld.sol\":1501:1505  bool */\n      0x00\n        /* \"contracts/HelloWorld.sol\":1544:1555  votingStart */\n      sload(0x03)\n        /* \"contracts/HelloWorld.sol\":1525:1540  block.timestamp */\n      timestamp\n        /* \"contracts/HelloWorld.sol\":1525:1555  block.timestamp >= votingStart */\n      lt\n      iszero\n        /* \"contracts/HelloWorld.sol\":1525:1586  block.timestamp >= votingStart && block.timestamp < votingEnd */\n      dup1\n      iszero\n      tag_84\n      jumpi\n      pop\n        /* \"contracts/HelloWorld.sol\":1577:1586  votingEnd */\n      sload(0x04)\n        /* \"contracts/HelloWorld.sol\":1559:1574  block.timestamp */\n      timestamp\n        /* \"contracts/HelloWorld.sol\":1559:1586  block.timestamp < votingEnd */\n      lt\n        /* \"contracts/HelloWorld.sol\":1525:1586  block.timestamp >= votingStart && block.timestamp < votingEnd */\n    tag_84:\n        /* \"contracts/HelloWorld.sol\":1517:1587  return (block.timestamp >= votingStart && block.timestamp < votingEnd) */\n      swap1\n      pop\n        /* \"contracts/HelloWorld.sol\":1453:1594  function getVotingStatus() public view returns (bool) {... */\n      swap1\n      jump\t// out\n        /* \"contracts/HelloWorld.sol\":295:319  uint256 public votingEnd */\n    tag_36:\n      sload(0x04)\n      dup2\n      jump\t// out\n        /* \"contracts/HelloWorld.sol\":192:212  address public owner */\n    tag_39:\n      0x01\n      0x00\n      swap1\n      sload\n      swap1\n      0x0100\n      exp\n      swap1\n      div\n      0xffffffffffffffffffffffffffffffffffffffff\n      and\n      dup2\n      jump\t// out\n        /* \"contracts/HelloWorld.sol\":1337:1447  function getAllVotesOfCandidates() public view returns (Candidate[] memory) {... */\n    tag_43:\n        /* \"contracts/HelloWorld.sol\":1393:1411  Candidate[] memory */\n      0x60\n        /* \"contracts/HelloWorld.sol\":1430:1440  candidates */\n      0x00\n        /* \"contracts/HelloWorld.sol\":1423:1440  return candidates */\n      dup1\n      sload\n      dup1\n      0x20\n      mul\n      0x20\n      add\n      mload(0x40)\n      swap1\n      dup2\n      add\n      0x40\n      mstore\n      dup1\n      swap3\n      swap2\n      swap1\n      dup2\n      dup2\n      mstore\n      0x20\n      add\n      0x00\n      swap1\n    tag_86:\n      dup3\n      dup3\n      lt\n      iszero\n      tag_87\n      jumpi\n      dup4\n      dup3\n      swap1\n      0x00\n      mstore\n      keccak256(0x00, 0x20)\n      swap1\n      0x02\n      mul\n      add\n      mload(0x40)\n      dup1\n      0x40\n      add\n      0x40\n      mstore\n      swap1\n      dup2\n      0x00\n      dup3\n      add\n      dup1\n      sload\n      tag_89\n      swap1\n      tag_70\n      jump\t// in\n    tag_89:\n      dup1\n      0x1f\n      add\n      0x20\n      dup1\n      swap2\n      div\n      mul\n      0x20\n      add\n      mload(0x40)\n      swap1\n      dup2\n      add\n      0x40\n      mstore\n      dup1\n      swap3\n      swap2\n      swap1\n      dup2\n      dup2\n      mstore\n      0x20\n      add\n      dup3\n      dup1\n      sload\n      tag_90\n      swap1\n      tag_70\n      jump\t// in\n    tag_90:\n      dup1\n      iszero\n      tag_91\n      jumpi\n      dup1\n      0x1f\n      lt\n      tag_92\n      jumpi\n      0x0100\n      dup1\n      dup4\n      sload\n      div\n      mul\n      dup4\n      mstore\n      swap2\n      0x20\n      add\n      swap2\n      jump(tag_91)\n    tag_92:\n      dup3\n      add\n      swap2\n      swap1\n      0x00\n      mstore\n      keccak256(0x00, 0x20)\n      swap1\n    tag_93:\n      dup2\n      sload\n      dup2\n      mstore\n      swap1\n      0x01\n      add\n      swap1\n      0x20\n      add\n      dup1\n      dup4\n      gt\n      tag_93\n      jumpi\n      dup3\n      swap1\n      sub\n      0x1f\n      and\n      dup3\n      add\n      swap2\n    tag_91:\n      pop\n      pop\n      pop\n      pop\n      pop\n      dup2\n      mstore\n      0x20\n      add\n      0x01\n      dup3\n      add\n      sload\n      dup2\n      mstore\n      pop\n      pop\n      dup2\n      mstore\n      0x20\n      add\n      swap1\n      0x01\n      add\n      swap1\n      jump(tag_86)\n    tag_87:\n      pop\n      pop\n      pop\n      pop\n      swap1\n      pop\n        /* \"contracts/HelloWorld.sol\":1337:1447  function getAllVotesOfCandidates() public view returns (Candidate[] memory) {... */\n      swap1\n      jump\t// out\n        /* \"contracts/HelloWorld.sol\":218:256  mapping(address => bool) public voters */\n    tag_49:\n      mstore(0x20, 0x02)\n      dup1\n      0x00\n      mstore\n      keccak256(0x00, 0x40)\n      0x00\n      swap2\n      pop\n      sload\n      swap1\n      0x0100\n      exp\n      swap1\n      div\n      0xff\n      and\n      dup2\n      jump\t// out\n        /* \"contracts/HelloWorld.sol\":1600:1865  function getRemainingTime() public view returns (uint256) {... */\n    tag_52:\n        /* \"contracts/HelloWorld.sol\":1649:1656  uint256 */\n      0x00\n        /* \"contracts/HelloWorld.sol\":1695:1706  votingStart */\n      sload(0x03)\n        /* \"contracts/HelloWorld.sol\":1676:1691  block.timestamp */\n      timestamp\n        /* \"contracts/HelloWorld.sol\":1676:1706  block.timestamp >= votingStart */\n      lt\n      iszero\n        /* \"contracts/HelloWorld.sol\":1668:1738  require(block.timestamp >= votingStart, \"Voting has not started yet.\") */\n      tag_95\n      jumpi\n      mload(0x40)\n      0x08c379a000000000000000000000000000000000000000000000000000000000\n      dup2\n      mstore\n      0x04\n      add\n      tag_96\n      swap1\n      tag_97\n      jump\t// in\n    tag_96:\n      mload(0x40)\n      dup1\n      swap2\n      sub\n      swap1\n      revert\n    tag_95:\n        /* \"contracts/HelloWorld.sol\":1771:1780  votingEnd */\n      sload(0x04)\n        /* \"contracts/HelloWorld.sol\":1752:1767  block.timestamp */\n      timestamp\n        /* \"contracts/HelloWorld.sol\":1752:1780  block.timestamp >= votingEnd */\n      lt\n        /* \"contracts/HelloWorld.sol\":1748:1815  if (block.timestamp >= votingEnd) {... */\n      tag_98\n      jumpi\n        /* \"contracts/HelloWorld.sol\":1803:1804  0 */\n      0x00\n        /* \"contracts/HelloWorld.sol\":1796:1804  return 0 */\n      swap1\n      pop\n      jump(tag_94)\n        /* \"contracts/HelloWorld.sol\":1748:1815  if (block.timestamp >= votingEnd) {... */\n    tag_98:\n        /* \"contracts/HelloWorld.sol\":1843:1858  block.timestamp */\n      timestamp\n        /* \"contracts/HelloWorld.sol\":1831:1840  votingEnd */\n      sload(0x04)\n        /* \"contracts/HelloWorld.sol\":1831:1858  votingEnd - block.timestamp */\n      tag_99\n      swap2\n      swap1\n      tag_100\n      jump\t// in\n    tag_99:\n        /* \"contracts/HelloWorld.sol\":1824:1858  return votingEnd - block.timestamp */\n      swap1\n      pop\n        /* \"contracts/HelloWorld.sol\":1600:1865  function getRemainingTime() public view returns (uint256) {... */\n    tag_94:\n      swap1\n      jump\t// out\n        /* \"#utility.yul\":7:82   */\n    tag_101:\n        /* \"#utility.yul\":40:46   */\n      0x00\n        /* \"#utility.yul\":73:75   */\n      0x40\n        /* \"#utility.yul\":67:76   */\n      mload\n        /* \"#utility.yul\":57:76   */\n      swap1\n      pop\n        /* \"#utility.yul\":7:82   */\n      swap1\n      jump\t// out\n        /* \"#utility.yul\":88:205   */\n    tag_102:\n        /* \"#utility.yul\":197:198   */\n      0x00\n        /* \"#utility.yul\":194:195   */\n      dup1\n        /* \"#utility.yul\":187:199   */\n      revert\n        /* \"#utility.yul\":211:328   */\n    tag_103:\n        /* \"#utility.yul\":320:321   */\n      0x00\n        /* \"#utility.yul\":317:318   */\n      dup1\n        /* \"#utility.yul\":310:322   */\n      revert\n        /* \"#utility.yul\":334:411   */\n    tag_104:\n        /* \"#utility.yul\":371:378   */\n      0x00\n        /* \"#utility.yul\":400:405   */\n      dup2\n        /* \"#utility.yul\":389:405   */\n      swap1\n      pop\n        /* \"#utility.yul\":334:411   */\n      swap2\n      swap1\n      pop\n      jump\t// out\n        /* \"#utility.yul\":417:539   */\n    tag_105:\n        /* \"#utility.yul\":490:514   */\n      tag_170\n        /* \"#utility.yul\":508:513   */\n      dup2\n        /* \"#utility.yul\":490:514   */\n      tag_104\n      jump\t// in\n    tag_170:\n        /* \"#utility.yul\":483:488   */\n      dup2\n        /* \"#utility.yul\":480:515   */\n      eq\n        /* \"#utility.yul\":470:533   */\n      tag_171\n      jumpi\n        /* \"#utility.yul\":529:530   */\n      0x00\n        /* \"#utility.yul\":526:527   */\n      dup1\n        /* \"#utility.yul\":519:531   */\n      revert\n        /* \"#utility.yul\":470:533   */\n    tag_171:\n        /* \"#utility.yul\":417:539   */\n      pop\n      jump\t// out\n        /* \"#utility.yul\":545:684   */\n    tag_106:\n        /* \"#utility.yul\":591:596   */\n      0x00\n        /* \"#utility.yul\":629:635   */\n      dup2\n        /* \"#utility.yul\":616:636   */\n      calldataload\n        /* \"#utility.yul\":607:636   */\n      swap1\n      pop\n        /* \"#utility.yul\":645:678   */\n      tag_173\n        /* \"#utility.yul\":672:677   */\n      dup2\n        /* \"#utility.yul\":645:678   */\n      tag_105\n      jump\t// in\n    tag_173:\n        /* \"#utility.yul\":545:684   */\n      swap3\n      swap2\n      pop\n      pop\n      jump\t// out\n        /* \"#utility.yul\":690:1019   */\n    tag_16:\n        /* \"#utility.yul\":749:755   */\n      0x00\n        /* \"#utility.yul\":798:800   */\n      0x20\n        /* \"#utility.yul\":786:795   */\n      dup3\n        /* \"#utility.yul\":777:784   */\n      dup5\n        /* \"#utility.yul\":773:796   */\n      sub\n        /* \"#utility.yul\":769:801   */\n      slt\n        /* \"#utility.yul\":766:885   */\n      iszero\n      tag_175\n      jumpi\n        /* \"#utility.yul\":804:883   */\n      tag_176\n      tag_102\n      jump\t// in\n    tag_176:\n        /* \"#utility.yul\":766:885   */\n    tag_175:\n        /* \"#utility.yul\":924:925   */\n      0x00\n        /* \"#utility.yul\":949:1002   */\n      tag_177\n        /* \"#utility.yul\":994:1001   */\n      dup5\n        /* \"#utility.yul\":985:991   */\n      dup3\n        /* \"#utility.yul\":974:983   */\n      dup6\n        /* \"#utility.yul\":970:992   */\n      add\n        /* \"#utility.yul\":949:1002   */\n      tag_106\n      jump\t// in\n    tag_177:\n        /* \"#utility.yul\":939:1002   */\n      swap2\n      pop\n        /* \"#utility.yul\":895:1012   */\n      pop\n        /* \"#utility.yul\":690:1019   */\n      swap3\n      swap2\n      pop\n      pop\n      jump\t// out\n        /* \"#utility.yul\":1025:1143   */\n    tag_107:\n        /* \"#utility.yul\":1112:1136   */\n      tag_179\n        /* \"#utility.yul\":1130:1135   */\n      dup2\n        /* \"#utility.yul\":1112:1136   */\n      tag_104\n      jump\t// in\n    tag_179:\n        /* \"#utility.yul\":1107:1110   */\n      dup3\n        /* \"#utility.yul\":1100:1137   */\n      mstore\n        /* \"#utility.yul\":1025:1143   */\n      pop\n      pop\n      jump\t// out\n        /* \"#utility.yul\":1149:1371   */\n    tag_21:\n        /* \"#utility.yul\":1242:1246   */\n      0x00\n        /* \"#utility.yul\":1280:1282   */\n      0x20\n        /* \"#utility.yul\":1269:1278   */\n      dup3\n        /* \"#utility.yul\":1265:1283   */\n      add\n        /* \"#utility.yul\":1257:1283   */\n      swap1\n      pop\n        /* \"#utility.yul\":1293:1364   */\n      tag_181\n        /* \"#utility.yul\":1361:1362   */\n      0x00\n        /* \"#utility.yul\":1350:1359   */\n      dup4\n        /* \"#utility.yul\":1346:1363   */\n      add\n        /* \"#utility.yul\":1337:1343   */\n      dup5\n        /* \"#utility.yul\":1293:1364   */\n      tag_107\n      jump\t// in\n    tag_181:\n        /* \"#utility.yul\":1149:1371   */\n      swap3\n      swap2\n      pop\n      pop\n      jump\t// out\n        /* \"#utility.yul\":1377:1476   */\n    tag_108:\n        /* \"#utility.yul\":1429:1435   */\n      0x00\n        /* \"#utility.yul\":1463:1468   */\n      dup2\n        /* \"#utility.yul\":1457:1469   */\n      mload\n        /* \"#utility.yul\":1447:1469   */\n      swap1\n      pop\n        /* \"#utility.yul\":1377:1476   */\n      swap2\n      swap1\n      pop\n      jump\t// out\n        /* \"#utility.yul\":1482:1651   */\n    tag_109:\n        /* \"#utility.yul\":1566:1577   */\n      0x00\n        /* \"#utility.yul\":1600:1606   */\n      dup3\n        /* \"#utility.yul\":1595:1598   */\n      dup3\n        /* \"#utility.yul\":1588:1607   */\n      mstore\n        /* \"#utility.yul\":1640:1644   */\n      0x20\n        /* \"#utility.yul\":1635:1638   */\n      dup3\n        /* \"#utility.yul\":1631:1645   */\n      add\n        /* \"#utility.yul\":1616:1645   */\n      swap1\n      pop\n        /* \"#utility.yul\":1482:1651   */\n      swap3\n      swap2\n      pop\n      pop\n      jump\t// out\n        /* \"#utility.yul\":1657:1796   */\n    tag_110:\n        /* \"#utility.yul\":1746:1752   */\n      dup3\n        /* \"#utility.yul\":1741:1744   */\n      dup2\n        /* \"#utility.yul\":1736:1739   */\n      dup4\n        /* \"#utility.yul\":1730:1753   */\n      mcopy\n        /* \"#utility.yul\":1787:1788   */\n      0x00\n        /* \"#utility.yul\":1778:1784   */\n      dup4\n        /* \"#utility.yul\":1773:1776   */\n      dup4\n        /* \"#utility.yul\":1769:1785   */\n      add\n        /* \"#utility.yul\":1762:1789   */\n      mstore\n        /* \"#utility.yul\":1657:1796   */\n      pop\n      pop\n      pop\n      jump\t// out\n        /* \"#utility.yul\":1802:1904   */\n    tag_111:\n        /* \"#utility.yul\":1843:1849   */\n      0x00\n        /* \"#utility.yul\":1894:1896   */\n      0x1f\n        /* \"#utility.yul\":1890:1897   */\n      not\n        /* \"#utility.yul\":1885:1887   */\n      0x1f\n        /* \"#utility.yul\":1878:1883   */\n      dup4\n        /* \"#utility.yul\":1874:1888   */\n      add\n        /* \"#utility.yul\":1870:1898   */\n      and\n        /* \"#utility.yul\":1860:1898   */\n      swap1\n      pop\n        /* \"#utility.yul\":1802:1904   */\n      swap2\n      swap1\n      pop\n      jump\t// out\n        /* \"#utility.yul\":1910:2287   */\n    tag_112:\n        /* \"#utility.yul\":1998:2001   */\n      0x00\n        /* \"#utility.yul\":2026:2065   */\n      tag_187\n        /* \"#utility.yul\":2059:2064   */\n      dup3\n        /* \"#utility.yul\":2026:2065   */\n      tag_108\n      jump\t// in\n    tag_187:\n        /* \"#utility.yul\":2081:2152   */\n      tag_188\n        /* \"#utility.yul\":2145:2151   */\n      dup2\n        /* \"#utility.yul\":2140:2143   */\n      dup6\n        /* \"#utility.yul\":2081:2152   */\n      tag_109\n      jump\t// in\n    tag_188:\n        /* \"#utility.yul\":2074:2152   */\n      swap4\n      pop\n        /* \"#utility.yul\":2161:2226   */\n      tag_189\n        /* \"#utility.yul\":2219:2225   */\n      dup2\n        /* \"#utility.yul\":2214:2217   */\n      dup6\n        /* \"#utility.yul\":2207:2211   */\n      0x20\n        /* \"#utility.yul\":2200:2205   */\n      dup7\n        /* \"#utility.yul\":2196:2212   */\n      add\n        /* \"#utility.yul\":2161:2226   */\n      tag_110\n      jump\t// in\n    tag_189:\n        /* \"#utility.yul\":2251:2280   */\n      tag_190\n        /* \"#utility.yul\":2273:2279   */\n      dup2\n        /* \"#utility.yul\":2251:2280   */\n      tag_111\n      jump\t// in\n    tag_190:\n        /* \"#utility.yul\":2246:2249   */\n      dup5\n        /* \"#utility.yul\":2242:2281   */\n      add\n        /* \"#utility.yul\":2235:2281   */\n      swap2\n      pop\n        /* \"#utility.yul\":2002:2287   */\n      pop\n        /* \"#utility.yul\":1910:2287   */\n      swap3\n      swap2\n      pop\n      pop\n      jump\t// out\n        /* \"#utility.yul\":2293:2716   */\n    tag_26:\n        /* \"#utility.yul\":2434:2438   */\n      0x00\n        /* \"#utility.yul\":2472:2474   */\n      0x40\n        /* \"#utility.yul\":2461:2470   */\n      dup3\n        /* \"#utility.yul\":2457:2475   */\n      add\n        /* \"#utility.yul\":2449:2475   */\n      swap1\n      pop\n        /* \"#utility.yul\":2521:2530   */\n      dup2\n        /* \"#utility.yul\":2515:2519   */\n      dup2\n        /* \"#utility.yul\":2511:2531   */\n      sub\n        /* \"#utility.yul\":2507:2508   */\n      0x00\n        /* \"#utility.yul\":2496:2505   */\n      dup4\n        /* \"#utility.yul\":2492:2509   */\n      add\n        /* \"#utility.yul\":2485:2532   */\n      mstore\n        /* \"#utility.yul\":2549:2627   */\n      tag_192\n        /* \"#utility.yul\":2622:2626   */\n      dup2\n        /* \"#utility.yul\":2613:2619   */\n      dup6\n        /* \"#utility.yul\":2549:2627   */\n      tag_112\n      jump\t// in\n    tag_192:\n        /* \"#utility.yul\":2541:2627   */\n      swap1\n      pop\n        /* \"#utility.yul\":2637:2709   */\n      tag_193\n        /* \"#utility.yul\":2705:2707   */\n      0x20\n        /* \"#utility.yul\":2694:2703   */\n      dup4\n        /* \"#utility.yul\":2690:2708   */\n      add\n        /* \"#utility.yul\":2681:2687   */\n      dup5\n        /* \"#utility.yul\":2637:2709   */\n      tag_107\n      jump\t// in\n    tag_193:\n        /* \"#utility.yul\":2293:2716   */\n      swap4\n      swap3\n      pop\n      pop\n      pop\n      jump\t// out\n        /* \"#utility.yul\":2722:2839   */\n    tag_113:\n        /* \"#utility.yul\":2831:2832   */\n      0x00\n        /* \"#utility.yul\":2828:2829   */\n      dup1\n        /* \"#utility.yul\":2821:2833   */\n      revert\n        /* \"#utility.yul\":2845:2962   */\n    tag_114:\n        /* \"#utility.yul\":2954:2955   */\n      0x00\n        /* \"#utility.yul\":2951:2952   */\n      dup1\n        /* \"#utility.yul\":2944:2956   */\n      revert\n        /* \"#utility.yul\":2968:3148   */\n    tag_115:\n        /* \"#utility.yul\":3016:3093   */\n      0x4e487b7100000000000000000000000000000000000000000000000000000000\n        /* \"#utility.yul\":3013:3014   */\n      0x00\n        /* \"#utility.yul\":3006:3094   */\n      mstore\n        /* \"#utility.yul\":3113:3117   */\n      0x41\n        /* \"#utility.yul\":3110:3111   */\n      0x04\n        /* \"#utility.yul\":3103:3118   */\n      mstore\n        /* \"#utility.yul\":3137:3141   */\n      0x24\n        /* \"#utility.yul\":3134:3135   */\n      0x00\n        /* \"#utility.yul\":3127:3142   */\n      revert\n        /* \"#utility.yul\":3154:3435   */\n    tag_116:\n        /* \"#utility.yul\":3237:3264   */\n      tag_198\n        /* \"#utility.yul\":3259:3263   */\n      dup3\n        /* \"#utility.yul\":3237:3264   */\n      tag_111\n      jump\t// in\n    tag_198:\n        /* \"#utility.yul\":3229:3235   */\n      dup2\n        /* \"#utility.yul\":3225:3265   */\n      add\n        /* \"#utility.yul\":3367:3373   */\n      dup2\n        /* \"#utility.yul\":3355:3365   */\n      dup2\n        /* \"#utility.yul\":3352:3374   */\n      lt\n        /* \"#utility.yul\":3331:3349   */\n      0xffffffffffffffff\n        /* \"#utility.yul\":3319:3329   */\n      dup3\n        /* \"#utility.yul\":3316:3350   */\n      gt\n        /* \"#utility.yul\":3313:3375   */\n      or\n        /* \"#utility.yul\":3310:3398   */\n      iszero\n      tag_199\n      jumpi\n        /* \"#utility.yul\":3378:3396   */\n      tag_200\n      tag_115\n      jump\t// in\n    tag_200:\n        /* \"#utility.yul\":3310:3398   */\n    tag_199:\n        /* \"#utility.yul\":3418:3428   */\n      dup1\n        /* \"#utility.yul\":3414:3416   */\n      0x40\n        /* \"#utility.yul\":3407:3429   */\n      mstore\n        /* \"#utility.yul\":3197:3435   */\n      pop\n        /* \"#utility.yul\":3154:3435   */\n      pop\n      pop\n      jump\t// out\n        /* \"#utility.yul\":3441:3570   */\n    tag_117:\n        /* \"#utility.yul\":3475:3481   */\n      0x00\n        /* \"#utility.yul\":3502:3522   */\n      tag_202\n      tag_101\n      jump\t// in\n    tag_202:\n        /* \"#utility.yul\":3492:3522   */\n      swap1\n      pop\n        /* \"#utility.yul\":3531:3564   */\n      tag_203\n        /* \"#utility.yul\":3559:3563   */\n      dup3\n        /* \"#utility.yul\":3551:3557   */\n      dup3\n        /* \"#utility.yul\":3531:3564   */\n      tag_116\n      jump\t// in\n    tag_203:\n        /* \"#utility.yul\":3441:3570   */\n      swap2\n      swap1\n      pop\n      jump\t// out\n        /* \"#utility.yul\":3576:3884   */\n    tag_118:\n        /* \"#utility.yul\":3638:3642   */\n      0x00\n        /* \"#utility.yul\":3728:3746   */\n      0xffffffffffffffff\n        /* \"#utility.yul\":3720:3726   */\n      dup3\n        /* \"#utility.yul\":3717:3747   */\n      gt\n        /* \"#utility.yul\":3714:3770   */\n      iszero\n      tag_205\n      jumpi\n        /* \"#utility.yul\":3750:3768   */\n      tag_206\n      tag_115\n      jump\t// in\n    tag_206:\n        /* \"#utility.yul\":3714:3770   */\n    tag_205:\n        /* \"#utility.yul\":3788:3817   */\n      tag_207\n        /* \"#utility.yul\":3810:3816   */\n      dup3\n        /* \"#utility.yul\":3788:3817   */\n      tag_111\n      jump\t// in\n    tag_207:\n        /* \"#utility.yul\":3780:3817   */\n      swap1\n      pop\n        /* \"#utility.yul\":3872:3876   */\n      0x20\n        /* \"#utility.yul\":3866:3870   */\n      dup2\n        /* \"#utility.yul\":3862:3877   */\n      add\n        /* \"#utility.yul\":3854:3877   */\n      swap1\n      pop\n        /* \"#utility.yul\":3576:3884   */\n      swap2\n      swap1\n      pop\n      jump\t// out\n        /* \"#utility.yul\":3890:4038   */\n    tag_119:\n        /* \"#utility.yul\":3988:3994   */\n      dup3\n        /* \"#utility.yul\":3983:3986   */\n      dup2\n        /* \"#utility.yul\":3978:3981   */\n      dup4\n        /* \"#utility.yul\":3965:3995   */\n      calldatacopy\n        /* \"#utility.yul\":4029:4030   */\n      0x00\n        /* \"#utility.yul\":4020:4026   */\n      dup4\n        /* \"#utility.yul\":4015:4018   */\n      dup4\n        /* \"#utility.yul\":4011:4027   */\n      add\n        /* \"#utility.yul\":4004:4031   */\n      mstore\n        /* \"#utility.yul\":3890:4038   */\n      pop\n      pop\n      pop\n      jump\t// out\n        /* \"#utility.yul\":4044:4469   */\n    tag_120:\n        /* \"#utility.yul\":4122:4127   */\n      0x00\n        /* \"#utility.yul\":4147:4213   */\n      tag_210\n        /* \"#utility.yul\":4163:4212   */\n      tag_211\n        /* \"#utility.yul\":4205:4211   */\n      dup5\n        /* \"#utility.yul\":4163:4212   */\n      tag_118\n      jump\t// in\n    tag_211:\n        /* \"#utility.yul\":4147:4213   */\n      tag_117\n      jump\t// in\n    tag_210:\n        /* \"#utility.yul\":4138:4213   */\n      swap1\n      pop\n        /* \"#utility.yul\":4236:4242   */\n      dup3\n        /* \"#utility.yul\":4229:4234   */\n      dup2\n        /* \"#utility.yul\":4222:4243   */\n      mstore\n        /* \"#utility.yul\":4274:4278   */\n      0x20\n        /* \"#utility.yul\":4267:4272   */\n      dup2\n        /* \"#utility.yul\":4263:4279   */\n      add\n        /* \"#utility.yul\":4312:4315   */\n      dup5\n        /* \"#utility.yul\":4303:4309   */\n      dup5\n        /* \"#utility.yul\":4298:4301   */\n      dup5\n        /* \"#utility.yul\":4294:4310   */\n      add\n        /* \"#utility.yul\":4291:4316   */\n      gt\n        /* \"#utility.yul\":4288:4400   */\n      iszero\n      tag_212\n      jumpi\n        /* \"#utility.yul\":4319:4398   */\n      tag_213\n      tag_114\n      jump\t// in\n    tag_213:\n        /* \"#utility.yul\":4288:4400   */\n    tag_212:\n        /* \"#utility.yul\":4409:4463   */\n      tag_214\n        /* \"#utility.yul\":4456:4462   */\n      dup5\n        /* \"#utility.yul\":4451:4454   */\n      dup3\n        /* \"#utility.yul\":4446:4449   */\n      dup6\n        /* \"#utility.yul\":4409:4463   */\n      tag_119\n      jump\t// in\n    tag_214:\n        /* \"#utility.yul\":4128:4469   */\n      pop\n        /* \"#utility.yul\":4044:4469   */\n      swap4\n      swap3\n      pop\n      pop\n      pop\n      jump\t// out\n        /* \"#utility.yul\":4489:4829   */\n    tag_121:\n        /* \"#utility.yul\":4545:4550   */\n      0x00\n        /* \"#utility.yul\":4594:4597   */\n      dup3\n        /* \"#utility.yul\":4587:4591   */\n      0x1f\n        /* \"#utility.yul\":4579:4585   */\n      dup4\n        /* \"#utility.yul\":4575:4592   */\n      add\n        /* \"#utility.yul\":4571:4598   */\n      slt\n        /* \"#utility.yul\":4561:4683   */\n      tag_216\n      jumpi\n        /* \"#utility.yul\":4602:4681   */\n      tag_217\n      tag_113\n      jump\t// in\n    tag_217:\n        /* \"#utility.yul\":4561:4683   */\n    tag_216:\n        /* \"#utility.yul\":4719:4725   */\n      dup2\n        /* \"#utility.yul\":4706:4726   */\n      calldataload\n        /* \"#utility.yul\":4744:4823   */\n      tag_218\n        /* \"#utility.yul\":4819:4822   */\n      dup5\n        /* \"#utility.yul\":4811:4817   */\n      dup3\n        /* \"#utility.yul\":4804:4808   */\n      0x20\n        /* \"#utility.yul\":4796:4802   */\n      dup7\n        /* \"#utility.yul\":4792:4809   */\n      add\n        /* \"#utility.yul\":4744:4823   */\n      tag_120\n      jump\t// in\n    tag_218:\n        /* \"#utility.yul\":4735:4823   */\n      swap2\n      pop\n        /* \"#utility.yul\":4551:4829   */\n      pop\n        /* \"#utility.yul\":4489:4829   */\n      swap3\n      swap2\n      pop\n      pop\n      jump\t// out\n        /* \"#utility.yul\":4835:5344   */\n    tag_29:\n        /* \"#utility.yul\":4904:4910   */\n      0x00\n        /* \"#utility.yul\":4953:4955   */\n      0x20\n        /* \"#utility.yul\":4941:4950   */\n      dup3\n        /* \"#utility.yul\":4932:4939   */\n      dup5\n        /* \"#utility.yul\":4928:4951   */\n      sub\n        /* \"#utility.yul\":4924:4956   */\n      slt\n        /* \"#utility.yul\":4921:5040   */\n      iszero\n      tag_220\n      jumpi\n        /* \"#utility.yul\":4959:5038   */\n      tag_221\n      tag_102\n      jump\t// in\n    tag_221:\n        /* \"#utility.yul\":4921:5040   */\n    tag_220:\n        /* \"#utility.yul\":5107:5108   */\n      0x00\n        /* \"#utility.yul\":5096:5105   */\n      dup3\n        /* \"#utility.yul\":5092:5109   */\n      add\n        /* \"#utility.yul\":5079:5110   */\n      calldataload\n        /* \"#utility.yul\":5137:5155   */\n      0xffffffffffffffff\n        /* \"#utility.yul\":5129:5135   */\n      dup2\n        /* \"#utility.yul\":5126:5156   */\n      gt\n        /* \"#utility.yul\":5123:5240   */\n      iszero\n      tag_222\n      jumpi\n        /* \"#utility.yul\":5159:5238   */\n      tag_223\n      tag_103\n      jump\t// in\n    tag_223:\n        /* \"#utility.yul\":5123:5240   */\n    tag_222:\n        /* \"#utility.yul\":5264:5327   */\n      tag_224\n        /* \"#utility.yul\":5319:5326   */\n      dup5\n        /* \"#utility.yul\":5310:5316   */\n      dup3\n        /* \"#utility.yul\":5299:5308   */\n      dup6\n        /* \"#utility.yul\":5295:5317   */\n      add\n        /* \"#utility.yul\":5264:5327   */\n      tag_121\n      jump\t// in\n    tag_224:\n        /* \"#utility.yul\":5254:5327   */\n      swap2\n      pop\n        /* \"#utility.yul\":5050:5337   */\n      pop\n        /* \"#utility.yul\":4835:5344   */\n      swap3\n      swap2\n      pop\n      pop\n      jump\t// out\n        /* \"#utility.yul\":5350:5440   */\n    tag_122:\n        /* \"#utility.yul\":5384:5391   */\n      0x00\n        /* \"#utility.yul\":5427:5432   */\n      dup2\n        /* \"#utility.yul\":5420:5433   */\n      iszero\n        /* \"#utility.yul\":5413:5434   */\n      iszero\n        /* \"#utility.yul\":5402:5434   */\n      swap1\n      pop\n        /* \"#utility.yul\":5350:5440   */\n      swap2\n      swap1\n      pop\n      jump\t// out\n        /* \"#utility.yul\":5446:5555   */\n    tag_123:\n        /* \"#utility.yul\":5527:5548   */\n      tag_227\n        /* \"#utility.yul\":5542:5547   */\n      dup2\n        /* \"#utility.yul\":5527:5548   */\n      tag_122\n      jump\t// in\n    tag_227:\n        /* \"#utility.yul\":5522:5525   */\n      dup3\n        /* \"#utility.yul\":5515:5549   */\n      mstore\n        /* \"#utility.yul\":5446:5555   */\n      pop\n      pop\n      jump\t// out\n        /* \"#utility.yul\":5561:5771   */\n    tag_34:\n        /* \"#utility.yul\":5648:5652   */\n      0x00\n        /* \"#utility.yul\":5686:5688   */\n      0x20\n        /* \"#utility.yul\":5675:5684   */\n      dup3\n        /* \"#utility.yul\":5671:5689   */\n      add\n        /* \"#utility.yul\":5663:5689   */\n      swap1\n      pop\n        /* \"#utility.yul\":5699:5764   */\n      tag_229\n        /* \"#utility.yul\":5761:5762   */\n      0x00\n        /* \"#utility.yul\":5750:5759   */\n      dup4\n        /* \"#utility.yul\":5746:5763   */\n      add\n        /* \"#utility.yul\":5737:5743   */\n      dup5\n        /* \"#utility.yul\":5699:5764   */\n      tag_123\n      jump\t// in\n    tag_229:\n        /* \"#utility.yul\":5561:5771   */\n      swap3\n      swap2\n      pop\n      pop\n      jump\t// out\n        /* \"#utility.yul\":5777:5903   */\n    tag_124:\n        /* \"#utility.yul\":5814:5821   */\n      0x00\n        /* \"#utility.yul\":5854:5896   */\n      0xffffffffffffffffffffffffffffffffffffffff\n        /* \"#utility.yul\":5847:5852   */\n      dup3\n        /* \"#utility.yul\":5843:5897   */\n      and\n        /* \"#utility.yul\":5832:5897   */\n      swap1\n      pop\n        /* \"#utility.yul\":5777:5903   */\n      swap2\n      swap1\n      pop\n      jump\t// out\n        /* \"#utility.yul\":5909:6005   */\n    tag_125:\n        /* \"#utility.yul\":5946:5953   */\n      0x00\n        /* \"#utility.yul\":5975:5999   */\n      tag_232\n        /* \"#utility.yul\":5993:5998   */\n      dup3\n        /* \"#utility.yul\":5975:5999   */\n      tag_124\n      jump\t// in\n    tag_232:\n        /* \"#utility.yul\":5964:5999   */\n      swap1\n      pop\n        /* \"#utility.yul\":5909:6005   */\n      swap2\n      swap1\n      pop\n      jump\t// out\n        /* \"#utility.yul\":6011:6129   */\n    tag_126:\n        /* \"#utility.yul\":6098:6122   */\n      tag_234\n        /* \"#utility.yul\":6116:6121   */\n      dup2\n        /* \"#utility.yul\":6098:6122   */\n      tag_125\n      jump\t// in\n    tag_234:\n        /* \"#utility.yul\":6093:6096   */\n      dup3\n        /* \"#utility.yul\":6086:6123   */\n      mstore\n        /* \"#utility.yul\":6011:6129   */\n      pop\n      pop\n      jump\t// out\n        /* \"#utility.yul\":6135:6357   */\n    tag_41:\n        /* \"#utility.yul\":6228:6232   */\n      0x00\n        /* \"#utility.yul\":6266:6268   */\n      0x20\n        /* \"#utility.yul\":6255:6264   */\n      dup3\n        /* \"#utility.yul\":6251:6269   */\n      add\n        /* \"#utility.yul\":6243:6269   */\n      swap1\n      pop\n        /* \"#utility.yul\":6279:6350   */\n      tag_236\n        /* \"#utility.yul\":6347:6348   */\n      0x00\n        /* \"#utility.yul\":6336:6345   */\n      dup4\n        /* \"#utility.yul\":6332:6349   */\n      add\n        /* \"#utility.yul\":6323:6329   */\n      dup5\n        /* \"#utility.yul\":6279:6350   */\n      tag_126\n      jump\t// in\n    tag_236:\n        /* \"#utility.yul\":6135:6357   */\n      swap3\n      swap2\n      pop\n      pop\n      jump\t// out\n        /* \"#utility.yul\":6363:6501   */\n    tag_127:\n        /* \"#utility.yul\":6454:6460   */\n      0x00\n        /* \"#utility.yul\":6488:6493   */\n      dup2\n        /* \"#utility.yul\":6482:6494   */\n      mload\n        /* \"#utility.yul\":6472:6494   */\n      swap1\n      pop\n        /* \"#utility.yul\":6363:6501   */\n      swap2\n      swap1\n      pop\n      jump\t// out\n        /* \"#utility.yul\":6507:6715   */\n    tag_128:\n        /* \"#utility.yul\":6630:6641   */\n      0x00\n        /* \"#utility.yul\":6664:6670   */\n      dup3\n        /* \"#utility.yul\":6659:6662   */\n      dup3\n        /* \"#utility.yul\":6652:6671   */\n      mstore\n        /* \"#utility.yul\":6704:6708   */\n      0x20\n        /* \"#utility.yul\":6699:6702   */\n      dup3\n        /* \"#utility.yul\":6695:6709   */\n      add\n        /* \"#utility.yul\":6680:6709   */\n      swap1\n      pop\n        /* \"#utility.yul\":6507:6715   */\n      swap3\n      swap2\n      pop\n      pop\n      jump\t// out\n        /* \"#utility.yul\":6721:6877   */\n    tag_129:\n        /* \"#utility.yul\":6812:6816   */\n      0x00\n        /* \"#utility.yul\":6835:6838   */\n      dup2\n        /* \"#utility.yul\":6827:6838   */\n      swap1\n      pop\n        /* \"#utility.yul\":6865:6869   */\n      0x20\n        /* \"#utility.yul\":6860:6863   */\n      dup3\n        /* \"#utility.yul\":6856:6870   */\n      add\n        /* \"#utility.yul\":6848:6870   */\n      swap1\n      pop\n        /* \"#utility.yul\":6721:6877   */\n      swap2\n      swap1\n      pop\n      jump\t// out\n        /* \"#utility.yul\":6883:7042   */\n    tag_130:\n        /* \"#utility.yul\":6957:6968   */\n      0x00\n        /* \"#utility.yul\":6991:6997   */\n      dup3\n        /* \"#utility.yul\":6986:6989   */\n      dup3\n        /* \"#utility.yul\":6979:6998   */\n      mstore\n        /* \"#utility.yul\":7031:7035   */\n      0x20\n        /* \"#utility.yul\":7026:7029   */\n      dup3\n        /* \"#utility.yul\":7022:7036   */\n      add\n        /* \"#utility.yul\":7007:7036   */\n      swap1\n      pop\n        /* \"#utility.yul\":6883:7042   */\n      swap3\n      swap2\n      pop\n      pop\n      jump\t// out\n        /* \"#utility.yul\":7048:7405   */\n    tag_131:\n        /* \"#utility.yul\":7126:7129   */\n      0x00\n        /* \"#utility.yul\":7154:7193   */\n      tag_242\n        /* \"#utility.yul\":7187:7192   */\n      dup3\n        /* \"#utility.yul\":7154:7193   */\n      tag_108\n      jump\t// in\n    tag_242:\n        /* \"#utility.yul\":7209:7270   */\n      tag_243\n        /* \"#utility.yul\":7263:7269   */\n      dup2\n        /* \"#utility.yul\":7258:7261   */\n      dup6\n        /* \"#utility.yul\":7209:7270   */\n      tag_130\n      jump\t// in\n    tag_243:\n        /* \"#utility.yul\":7202:7270   */\n      swap4\n      pop\n        /* \"#utility.yul\":7279:7344   */\n      tag_244\n        /* \"#utility.yul\":7337:7343   */\n      dup2\n        /* \"#utility.yul\":7332:7335   */\n      dup6\n        /* \"#utility.yul\":7325:7329   */\n      0x20\n        /* \"#utility.yul\":7318:7323   */\n      dup7\n        /* \"#utility.yul\":7314:7330   */\n      add\n        /* \"#utility.yul\":7279:7344   */\n      tag_110\n      jump\t// in\n    tag_244:\n        /* \"#utility.yul\":7369:7398   */\n      tag_245\n        /* \"#utility.yul\":7391:7397   */\n      dup2\n        /* \"#utility.yul\":7369:7398   */\n      tag_111\n      jump\t// in\n    tag_245:\n        /* \"#utility.yul\":7364:7367   */\n      dup5\n        /* \"#utility.yul\":7360:7399   */\n      add\n        /* \"#utility.yul\":7353:7399   */\n      swap2\n      pop\n        /* \"#utility.yul\":7130:7405   */\n      pop\n        /* \"#utility.yul\":7048:7405   */\n      swap3\n      swap2\n      pop\n      pop\n      jump\t// out\n        /* \"#utility.yul\":7411:7519   */\n    tag_132:\n        /* \"#utility.yul\":7488:7512   */\n      tag_247\n        /* \"#utility.yul\":7506:7511   */\n      dup2\n        /* \"#utility.yul\":7488:7512   */\n      tag_104\n      jump\t// in\n    tag_247:\n        /* \"#utility.yul\":7483:7486   */\n      dup3\n        /* \"#utility.yul\":7476:7513   */\n      mstore\n        /* \"#utility.yul\":7411:7519   */\n      pop\n      pop\n      jump\t// out\n        /* \"#utility.yul\":7583:8182   */\n    tag_133:\n        /* \"#utility.yul\":7690:7693   */\n      0x00\n        /* \"#utility.yul\":7726:7730   */\n      0x40\n        /* \"#utility.yul\":7721:7724   */\n      dup4\n        /* \"#utility.yul\":7717:7731   */\n      add\n        /* \"#utility.yul\":7813:7817   */\n      0x00\n        /* \"#utility.yul\":7806:7811   */\n      dup4\n        /* \"#utility.yul\":7802:7818   */\n      add\n        /* \"#utility.yul\":7796:7819   */\n      mload\n        /* \"#utility.yul\":7866:7869   */\n      dup5\n        /* \"#utility.yul\":7860:7864   */\n      dup3\n        /* \"#utility.yul\":7856:7870   */\n      sub\n        /* \"#utility.yul\":7849:7853   */\n      0x00\n        /* \"#utility.yul\":7844:7847   */\n      dup7\n        /* \"#utility.yul\":7840:7854   */\n      add\n        /* \"#utility.yul\":7833:7871   */\n      mstore\n        /* \"#utility.yul\":7892:7965   */\n      tag_249\n        /* \"#utility.yul\":7960:7964   */\n      dup3\n        /* \"#utility.yul\":7946:7958   */\n      dup3\n        /* \"#utility.yul\":7892:7965   */\n      tag_131\n      jump\t// in\n    tag_249:\n        /* \"#utility.yul\":7884:7965   */\n      swap2\n      pop\n        /* \"#utility.yul\":7741:7976   */\n      pop\n        /* \"#utility.yul\":8063:8067   */\n      0x20\n        /* \"#utility.yul\":8056:8061   */\n      dup4\n        /* \"#utility.yul\":8052:8068   */\n      add\n        /* \"#utility.yul\":8046:8069   */\n      mload\n        /* \"#utility.yul\":8082:8145   */\n      tag_250\n        /* \"#utility.yul\":8139:8143   */\n      0x20\n        /* \"#utility.yul\":8134:8137   */\n      dup7\n        /* \"#utility.yul\":8130:8144   */\n      add\n        /* \"#utility.yul\":8116:8128   */\n      dup3\n        /* \"#utility.yul\":8082:8145   */\n      tag_132\n      jump\t// in\n    tag_250:\n        /* \"#utility.yul\":7986:8155   */\n      pop\n        /* \"#utility.yul\":8172:8176   */\n      dup1\n        /* \"#utility.yul\":8165:8176   */\n      swap2\n      pop\n        /* \"#utility.yul\":7695:8182   */\n      pop\n        /* \"#utility.yul\":7583:8182   */\n      swap3\n      swap2\n      pop\n      pop\n      jump\t// out\n        /* \"#utility.yul\":8188:8440   */\n    tag_134:\n        /* \"#utility.yul\":8305:8315   */\n      0x00\n        /* \"#utility.yul\":8340:8434   */\n      tag_252\n        /* \"#utility.yul\":8430:8433   */\n      dup4\n        /* \"#utility.yul\":8422:8428   */\n      dup4\n        /* \"#utility.yul\":8340:8434   */\n      tag_133\n      jump\t// in\n    tag_252:\n        /* \"#utility.yul\":8326:8434   */\n      swap1\n      pop\n        /* \"#utility.yul\":8188:8440   */\n      swap3\n      swap2\n      pop\n      pop\n      jump\t// out\n        /* \"#utility.yul\":8446:8583   */\n    tag_135:\n        /* \"#utility.yul\":8540:8544   */\n      0x00\n        /* \"#utility.yul\":8572:8576   */\n      0x20\n        /* \"#utility.yul\":8567:8570   */\n      dup3\n        /* \"#utility.yul\":8563:8577   */\n      add\n        /* \"#utility.yul\":8555:8577   */\n      swap1\n      pop\n        /* \"#utility.yul\":8446:8583   */\n      swap2\n      swap1\n      pop\n      jump\t// out\n        /* \"#utility.yul\":8651:9754   */\n    tag_136:\n        /* \"#utility.yul\":8818:8821   */\n      0x00\n        /* \"#utility.yul\":8847:8925   */\n      tag_255\n        /* \"#utility.yul\":8919:8924   */\n      dup3\n        /* \"#utility.yul\":8847:8925   */\n      tag_127\n      jump\t// in\n    tag_255:\n        /* \"#utility.yul\":8941:9051   */\n      tag_256\n        /* \"#utility.yul\":9044:9050   */\n      dup2\n        /* \"#utility.yul\":9039:9042   */\n      dup6\n        /* \"#utility.yul\":8941:9051   */\n      tag_128\n      jump\t// in\n    tag_256:\n        /* \"#utility.yul\":8934:9051   */\n      swap4\n      pop\n        /* \"#utility.yul\":9077:9080   */\n      dup4\n        /* \"#utility.yul\":9122:9126   */\n      0x20\n        /* \"#utility.yul\":9114:9120   */\n      dup3\n        /* \"#utility.yul\":9110:9127   */\n      mul\n        /* \"#utility.yul\":9105:9108   */\n      dup6\n        /* \"#utility.yul\":9101:9128   */\n      add\n        /* \"#utility.yul\":9152:9232   */\n      tag_257\n        /* \"#utility.yul\":9226:9231   */\n      dup6\n        /* \"#utility.yul\":9152:9232   */\n      tag_129\n      jump\t// in\n    tag_257:\n        /* \"#utility.yul\":9255:9262   */\n      dup1\n        /* \"#utility.yul\":9286:9287   */\n      0x00\n        /* \"#utility.yul\":9271:9709   */\n    tag_258:\n        /* \"#utility.yul\":9296:9302   */\n      dup6\n        /* \"#utility.yul\":9293:9294   */\n      dup2\n        /* \"#utility.yul\":9290:9303   */\n      lt\n        /* \"#utility.yul\":9271:9709   */\n      iszero\n      tag_260\n      jumpi\n        /* \"#utility.yul\":9367:9376   */\n      dup5\n        /* \"#utility.yul\":9361:9365   */\n      dup5\n        /* \"#utility.yul\":9357:9377   */\n      sub\n        /* \"#utility.yul\":9352:9355   */\n      dup10\n        /* \"#utility.yul\":9345:9378   */\n      mstore\n        /* \"#utility.yul\":9418:9424   */\n      dup2\n        /* \"#utility.yul\":9412:9425   */\n      mload\n        /* \"#utility.yul\":9446:9558   */\n      tag_261\n        /* \"#utility.yul\":9553:9557   */\n      dup6\n        /* \"#utility.yul\":9538:9551   */\n      dup3\n        /* \"#utility.yul\":9446:9558   */\n      tag_134\n      jump\t// in\n    tag_261:\n        /* \"#utility.yul\":9438:9558   */\n      swap5\n      pop\n        /* \"#utility.yul\":9581:9665   */\n      tag_262\n        /* \"#utility.yul\":9658:9664   */\n      dup4\n        /* \"#utility.yul\":9581:9665   */\n      tag_135\n      jump\t// in\n    tag_262:\n        /* \"#utility.yul\":9571:9665   */\n      swap3\n      pop\n        /* \"#utility.yul\":9694:9698   */\n      0x20\n        /* \"#utility.yul\":9689:9692   */\n      dup11\n        /* \"#utility.yul\":9685:9699   */\n      add\n        /* \"#utility.yul\":9678:9699   */\n      swap10\n      pop\n        /* \"#utility.yul\":9331:9709   */\n      pop\n        /* \"#utility.yul\":9318:9319   */\n      0x01\n        /* \"#utility.yul\":9315:9316   */\n      dup2\n        /* \"#utility.yul\":9311:9320   */\n      add\n        /* \"#utility.yul\":9306:9320   */\n      swap1\n      pop\n        /* \"#utility.yul\":9271:9709   */\n      jump(tag_258)\n    tag_260:\n        /* \"#utility.yul\":9275:9289   */\n      pop\n        /* \"#utility.yul\":9725:9729   */\n      dup3\n        /* \"#utility.yul\":9718:9729   */\n      swap8\n      pop\n        /* \"#utility.yul\":9745:9748   */\n      dup8\n        /* \"#utility.yul\":9738:9748   */\n      swap6\n      pop\n        /* \"#utility.yul\":8823:9754   */\n      pop\n      pop\n      pop\n      pop\n      pop\n        /* \"#utility.yul\":8651:9754   */\n      swap3\n      swap2\n      pop\n      pop\n      jump\t// out\n        /* \"#utility.yul\":9760:10229   */\n    tag_45:\n        /* \"#utility.yul\":9951:9955   */\n      0x00\n        /* \"#utility.yul\":9989:9991   */\n      0x20\n        /* \"#utility.yul\":9978:9987   */\n      dup3\n        /* \"#utility.yul\":9974:9992   */\n      add\n        /* \"#utility.yul\":9966:9992   */\n      swap1\n      pop\n        /* \"#utility.yul\":10038:10047   */\n      dup2\n        /* \"#utility.yul\":10032:10036   */\n      dup2\n        /* \"#utility.yul\":10028:10048   */\n      sub\n        /* \"#utility.yul\":10024:10025   */\n      0x00\n        /* \"#utility.yul\":10013:10022   */\n      dup4\n        /* \"#utility.yul\":10009:10026   */\n      add\n        /* \"#utility.yul\":10002:10049   */\n      mstore\n        /* \"#utility.yul\":10066:10222   */\n      tag_264\n        /* \"#utility.yul\":10217:10221   */\n      dup2\n        /* \"#utility.yul\":10208:10214   */\n      dup5\n        /* \"#utility.yul\":10066:10222   */\n      tag_136\n      jump\t// in\n    tag_264:\n        /* \"#utility.yul\":10058:10222   */\n      swap1\n      pop\n        /* \"#utility.yul\":9760:10229   */\n      swap3\n      swap2\n      pop\n      pop\n      jump\t// out\n        /* \"#utility.yul\":10235:10357   */\n    tag_137:\n        /* \"#utility.yul\":10308:10332   */\n      tag_266\n        /* \"#utility.yul\":10326:10331   */\n      dup2\n        /* \"#utility.yul\":10308:10332   */\n      tag_125\n      jump\t// in\n    tag_266:\n        /* \"#utility.yul\":10301:10306   */\n      dup2\n        /* \"#utility.yul\":10298:10333   */\n      eq\n        /* \"#utility.yul\":10288:10351   */\n      tag_267\n      jumpi\n        /* \"#utility.yul\":10347:10348   */\n      0x00\n        /* \"#utility.yul\":10344:10345   */\n      dup1\n        /* \"#utility.yul\":10337:10349   */\n      revert\n        /* \"#utility.yul\":10288:10351   */\n    tag_267:\n        /* \"#utility.yul\":10235:10357   */\n      pop\n      jump\t// out\n        /* \"#utility.yul\":10363:10502   */\n    tag_138:\n        /* \"#utility.yul\":10409:10414   */\n      0x00\n        /* \"#utility.yul\":10447:10453   */\n      dup2\n        /* \"#utility.yul\":10434:10454   */\n      calldataload\n        /* \"#utility.yul\":10425:10454   */\n      swap1\n      pop\n        /* \"#utility.yul\":10463:10496   */\n      tag_269\n        /* \"#utility.yul\":10490:10495   */\n      dup2\n        /* \"#utility.yul\":10463:10496   */\n      tag_137\n      jump\t// in\n    tag_269:\n        /* \"#utility.yul\":10363:10502   */\n      swap3\n      swap2\n      pop\n      pop\n      jump\t// out\n        /* \"#utility.yul\":10508:10837   */\n    tag_48:\n        /* \"#utility.yul\":10567:10573   */\n      0x00\n        /* \"#utility.yul\":10616:10618   */\n      0x20\n        /* \"#utility.yul\":10604:10613   */\n      dup3\n        /* \"#utility.yul\":10595:10602   */\n      dup5\n        /* \"#utility.yul\":10591:10614   */\n      sub\n        /* \"#utility.yul\":10587:10619   */\n      slt\n        /* \"#utility.yul\":10584:10703   */\n      iszero\n      tag_271\n      jumpi\n        /* \"#utility.yul\":10622:10701   */\n      tag_272\n      tag_102\n      jump\t// in\n    tag_272:\n        /* \"#utility.yul\":10584:10703   */\n    tag_271:\n        /* \"#utility.yul\":10742:10743   */\n      0x00\n        /* \"#utility.yul\":10767:10820   */\n      tag_273\n        /* \"#utility.yul\":10812:10819   */\n      dup5\n        /* \"#utility.yul\":10803:10809   */\n      dup3\n        /* \"#utility.yul\":10792:10801   */\n      dup6\n        /* \"#utility.yul\":10788:10810   */\n      add\n        /* \"#utility.yul\":10767:10820   */\n      tag_138\n      jump\t// in\n    tag_273:\n        /* \"#utility.yul\":10757:10820   */\n      swap2\n      pop\n        /* \"#utility.yul\":10713:10830   */\n      pop\n        /* \"#utility.yul\":10508:10837   */\n      swap3\n      swap2\n      pop\n      pop\n      jump\t// out\n        /* \"#utility.yul\":10843:11016   */\n    tag_139:\n        /* \"#utility.yul\":10983:11008   */\n      0x596f75206861766520616c726561647920766f7465642e000000000000000000\n        /* \"#utility.yul\":10979:10980   */\n      0x00\n        /* \"#utility.yul\":10971:10977   */\n      dup3\n        /* \"#utility.yul\":10967:10981   */\n      add\n        /* \"#utility.yul\":10960:11009   */\n      mstore\n        /* \"#utility.yul\":10843:11016   */\n      pop\n      jump\t// out\n        /* \"#utility.yul\":11022:11388   */\n    tag_140:\n        /* \"#utility.yul\":11164:11167   */\n      0x00\n        /* \"#utility.yul\":11185:11252   */\n      tag_276\n        /* \"#utility.yul\":11249:11251   */\n      0x17\n        /* \"#utility.yul\":11244:11247   */\n      dup4\n        /* \"#utility.yul\":11185:11252   */\n      tag_109\n      jump\t// in\n    tag_276:\n        /* \"#utility.yul\":11178:11252   */\n      swap2\n      pop\n        /* \"#utility.yul\":11261:11354   */\n      tag_277\n        /* \"#utility.yul\":11350:11353   */\n      dup3\n        /* \"#utility.yul\":11261:11354   */\n      tag_139\n      jump\t// in\n    tag_277:\n        /* \"#utility.yul\":11379:11381   */\n      0x20\n        /* \"#utility.yul\":11374:11377   */\n      dup3\n        /* \"#utility.yul\":11370:11382   */\n      add\n        /* \"#utility.yul\":11363:11382   */\n      swap1\n      pop\n        /* \"#utility.yul\":11022:11388   */\n      swap2\n      swap1\n      pop\n      jump\t// out\n        /* \"#utility.yul\":11394:11813   */\n    tag_57:\n        /* \"#utility.yul\":11560:11564   */\n      0x00\n        /* \"#utility.yul\":11598:11600   */\n      0x20\n        /* \"#utility.yul\":11587:11596   */\n      dup3\n        /* \"#utility.yul\":11583:11601   */\n      add\n        /* \"#utility.yul\":11575:11601   */\n      swap1\n      pop\n        /* \"#utility.yul\":11647:11656   */\n      dup2\n        /* \"#utility.yul\":11641:11645   */\n      dup2\n        /* \"#utility.yul\":11637:11657   */\n      sub\n        /* \"#utility.yul\":11633:11634   */\n      0x00\n        /* \"#utility.yul\":11622:11631   */\n      dup4\n        /* \"#utility.yul\":11618:11635   */\n      add\n        /* \"#utility.yul\":11611:11658   */\n      mstore\n        /* \"#utility.yul\":11675:11806   */\n      tag_279\n        /* \"#utility.yul\":11801:11805   */\n      dup2\n        /* \"#utility.yul\":11675:11806   */\n      tag_140\n      jump\t// in\n    tag_279:\n        /* \"#utility.yul\":11667:11806   */\n      swap1\n      pop\n        /* \"#utility.yul\":11394:11813   */\n      swap2\n      swap1\n      pop\n      jump\t// out\n        /* \"#utility.yul\":11819:11993   */\n    tag_141:\n        /* \"#utility.yul\":11959:11985   */\n      0x496e76616c69642063616e64696461746520696e6465782e0000000000000000\n        /* \"#utility.yul\":11955:11956   */\n      0x00\n        /* \"#utility.yul\":11947:11953   */\n      dup3\n        /* \"#utility.yul\":11943:11957   */\n      add\n        /* \"#utility.yul\":11936:11986   */\n      mstore\n        /* \"#utility.yul\":11819:11993   */\n      pop\n      jump\t// out\n        /* \"#utility.yul\":11999:12365   */\n    tag_142:\n        /* \"#utility.yul\":12141:12144   */\n      0x00\n        /* \"#utility.yul\":12162:12229   */\n      tag_282\n        /* \"#utility.yul\":12226:12228   */\n      0x18\n        /* \"#utility.yul\":12221:12224   */\n      dup4\n        /* \"#utility.yul\":12162:12229   */\n      tag_109\n      jump\t// in\n    tag_282:\n        /* \"#utility.yul\":12155:12229   */\n      swap2\n      pop\n        /* \"#utility.yul\":12238:12331   */\n      tag_283\n        /* \"#utility.yul\":12327:12330   */\n      dup3\n        /* \"#utility.yul\":12238:12331   */\n      tag_141\n      jump\t// in\n    tag_283:\n        /* \"#utility.yul\":12356:12358   */\n      0x20\n        /* \"#utility.yul\":12351:12354   */\n      dup3\n        /* \"#utility.yul\":12347:12359   */\n      add\n        /* \"#utility.yul\":12340:12359   */\n      swap1\n      pop\n        /* \"#utility.yul\":11999:12365   */\n      swap2\n      swap1\n      pop\n      jump\t// out\n        /* \"#utility.yul\":12371:12790   */\n    tag_60:\n        /* \"#utility.yul\":12537:12541   */\n      0x00\n        /* \"#utility.yul\":12575:12577   */\n      0x20\n        /* \"#utility.yul\":12564:12573   */\n      dup3\n        /* \"#utility.yul\":12560:12578   */\n      add\n        /* \"#utility.yul\":12552:12578   */\n      swap1\n      pop\n        /* \"#utility.yul\":12624:12633   */\n      dup2\n        /* \"#utility.yul\":12618:12622   */\n      dup2\n        /* \"#utility.yul\":12614:12634   */\n      sub\n        /* \"#utility.yul\":12610:12611   */\n      0x00\n        /* \"#utility.yul\":12599:12608   */\n      dup4\n        /* \"#utility.yul\":12595:12612   */\n      add\n        /* \"#utility.yul\":12588:12635   */\n      mstore\n        /* \"#utility.yul\":12652:12783   */\n      tag_285\n        /* \"#utility.yul\":12778:12782   */\n      dup2\n        /* \"#utility.yul\":12652:12783   */\n      tag_142\n      jump\t// in\n    tag_285:\n        /* \"#utility.yul\":12644:12783   */\n      swap1\n      pop\n        /* \"#utility.yul\":12371:12790   */\n      swap2\n      swap1\n      pop\n      jump\t// out\n        /* \"#utility.yul\":12796:12976   */\n    tag_63:\n        /* \"#utility.yul\":12844:12921   */\n      0x4e487b7100000000000000000000000000000000000000000000000000000000\n        /* \"#utility.yul\":12841:12842   */\n      0x00\n        /* \"#utility.yul\":12834:12922   */\n      mstore\n        /* \"#utility.yul\":12941:12945   */\n      0x32\n        /* \"#utility.yul\":12938:12939   */\n      0x04\n        /* \"#utility.yul\":12931:12946   */\n      mstore\n        /* \"#utility.yul\":12965:12969   */\n      0x24\n        /* \"#utility.yul\":12962:12963   */\n      0x00\n        /* \"#utility.yul\":12955:12970   */\n      revert\n        /* \"#utility.yul\":12982:13162   */\n    tag_143:\n        /* \"#utility.yul\":13030:13107   */\n      0x4e487b7100000000000000000000000000000000000000000000000000000000\n        /* \"#utility.yul\":13027:13028   */\n      0x00\n        /* \"#utility.yul\":13020:13108   */\n      mstore\n        /* \"#utility.yul\":13127:13131   */\n      0x11\n        /* \"#utility.yul\":13124:13125   */\n      0x04\n        /* \"#utility.yul\":13117:13132   */\n      mstore\n        /* \"#utility.yul\":13151:13155   */\n      0x24\n        /* \"#utility.yul\":13148:13149   */\n      0x00\n        /* \"#utility.yul\":13141:13156   */\n      revert\n        /* \"#utility.yul\":13168:13401   */\n    tag_66:\n        /* \"#utility.yul\":13207:13210   */\n      0x00\n        /* \"#utility.yul\":13230:13254   */\n      tag_289\n        /* \"#utility.yul\":13248:13253   */\n      dup3\n        /* \"#utility.yul\":13230:13254   */\n      tag_104\n      jump\t// in\n    tag_289:\n        /* \"#utility.yul\":13221:13254   */\n      swap2\n      pop\n        /* \"#utility.yul\":13276:13342   */\n      0xffffffffffffffffffffffffffffffffffffffffffffffffffffffffffffffff\n        /* \"#utility.yul\":13269:13274   */\n      dup3\n        /* \"#utility.yul\":13266:13343   */\n      sub\n        /* \"#utility.yul\":13263:13366   */\n      tag_290\n      jumpi\n        /* \"#utility.yul\":13346:13364   */\n      tag_291\n      tag_143\n      jump\t// in\n    tag_291:\n        /* \"#utility.yul\":13263:13366   */\n    tag_290:\n        /* \"#utility.yul\":13393:13394   */\n      0x01\n        /* \"#utility.yul\":13386:13391   */\n      dup3\n        /* \"#utility.yul\":13382:13395   */\n      add\n        /* \"#utility.yul\":13375:13395   */\n      swap1\n      pop\n        /* \"#utility.yul\":13168:13401   */\n      swap2\n      swap1\n      pop\n      jump\t// out\n        /* \"#utility.yul\":13407:13587   */\n    tag_144:\n        /* \"#utility.yul\":13455:13532   */\n      0x4e487b7100000000000000000000000000000000000000000000000000000000\n        /* \"#utility.yul\":13452:13453   */\n      0x00\n        /* \"#utility.yul\":13445:13533   */\n      mstore\n        /* \"#utility.yul\":13552:13556   */\n      0x22\n        /* \"#utility.yul\":13549:13550   */\n      0x04\n        /* \"#utility.yul\":13542:13557   */\n      mstore\n        /* \"#utility.yul\":13576:13580   */\n      0x24\n        /* \"#utility.yul\":13573:13574   */\n      0x00\n        /* \"#utility.yul\":13566:13581   */\n      revert\n        /* \"#utility.yul\":13593:13913   */\n    tag_70:\n        /* \"#utility.yul\":13637:13643   */\n      0x00\n        /* \"#utility.yul\":13674:13675   */\n      0x02\n        /* \"#utility.yul\":13668:13672   */\n      dup3\n        /* \"#utility.yul\":13664:13676   */\n      div\n        /* \"#utility.yul\":13654:13676   */\n      swap1\n      pop\n        /* \"#utility.yul\":13721:13722   */\n      0x01\n        /* \"#utility.yul\":13715:13719   */\n      dup3\n        /* \"#utility.yul\":13711:13723   */\n      and\n        /* \"#utility.yul\":13742:13760   */\n      dup1\n        /* \"#utility.yul\":13732:13813   */\n      tag_294\n      jumpi\n        /* \"#utility.yul\":13798:13802   */\n      0x7f\n        /* \"#utility.yul\":13790:13796   */\n      dup3\n        /* \"#utility.yul\":13786:13803   */\n      and\n        /* \"#utility.yul\":13776:13803   */\n      swap2\n      pop\n        /* \"#utility.yul\":13732:13813   */\n    tag_294:\n        /* \"#utility.yul\":13860:13862   */\n      0x20\n        /* \"#utility.yul\":13852:13858   */\n      dup3\n        /* \"#utility.yul\":13849:13863   */\n      lt\n        /* \"#utility.yul\":13829:13847   */\n      dup2\n        /* \"#utility.yul\":13826:13864   */\n      sub\n        /* \"#utility.yul\":13823:13907   */\n      tag_295\n      jumpi\n        /* \"#utility.yul\":13879:13897   */\n      tag_296\n      tag_144\n      jump\t// in\n    tag_296:\n        /* \"#utility.yul\":13823:13907   */\n    tag_295:\n        /* \"#utility.yul\":13644:13913   */\n      pop\n        /* \"#utility.yul\":13593:13913   */\n      swap2\n      swap1\n      pop\n      jump\t// out\n        /* \"#utility.yul\":13919:14141   */\n    tag_145:\n        /* \"#utility.yul\":14059:14093   */\n      0x4f6e6c79206f776e65722063616e20706572666f726d20746869732061637469\n        /* \"#utility.yul\":14055:14056   */\n      0x00\n        /* \"#utility.yul\":14047:14053   */\n      dup3\n        /* \"#utility.yul\":14043:14057   */\n      add\n        /* \"#utility.yul\":14036:14094   */\n      mstore\n        /* \"#utility.yul\":14128:14133   */\n      0x6f6e2e0000000000000000000000000000000000000000000000000000000000\n        /* \"#utility.yul\":14123:14125   */\n      0x20\n        /* \"#utility.yul\":14115:14121   */\n      dup3\n        /* \"#utility.yul\":14111:14126   */\n      add\n        /* \"#utility.yul\":14104:14134   */\n      mstore\n        /* \"#utility.yul\":13919:14141   */\n      pop\n      jump\t// out\n        /* \"#utility.yul\":14147:14513   */\n    tag_146:\n        /* \"#utility.yul\":14289:14292   */\n      0x00\n        /* \"#utility.yul\":14310:14377   */\n      tag_299\n        /* \"#utility.yul\":14374:14376   */\n      0x23\n        /* \"#utility.yul\":14369:14372   */\n      dup4\n        /* \"#utility.yul\":14310:14377   */\n      tag_109\n      jump\t// in\n    tag_299:\n        /* \"#utility.yul\":14303:14377   */\n      swap2\n      pop\n        /* \"#utility.yul\":14386:14479   */\n      tag_300\n        /* \"#utility.yul\":14475:14478   */\n      dup3\n        /* \"#utility.yul\":14386:14479   */\n      tag_145\n      jump\t// in\n    tag_300:\n        /* \"#utility.yul\":14504:14506   */\n      0x40\n        /* \"#utility.yul\":14499:14502   */\n      dup3\n        /* \"#utility.yul\":14495:14507   */\n      add\n        /* \"#utility.yul\":14488:14507   */\n      swap1\n      pop\n        /* \"#utility.yul\":14147:14513   */\n      swap2\n      swap1\n      pop\n      jump\t// out\n        /* \"#utility.yul\":14519:14938   */\n    tag_78:\n        /* \"#utility.yul\":14685:14689   */\n      0x00\n        /* \"#utility.yul\":14723:14725   */\n      0x20\n        /* \"#utility.yul\":14712:14721   */\n      dup3\n        /* \"#utility.yul\":14708:14726   */\n      add\n        /* \"#utility.yul\":14700:14726   */\n      swap1\n      pop\n        /* \"#utility.yul\":14772:14781   */\n      dup2\n        /* \"#utility.yul\":14766:14770   */\n      dup2\n        /* \"#utility.yul\":14762:14782   */\n      sub\n        /* \"#utility.yul\":14758:14759   */\n      0x00\n        /* \"#utility.yul\":14747:14756   */\n      dup4\n        /* \"#utility.yul\":14743:14760   */\n      add\n        /* \"#utility.yul\":14736:14783   */\n      mstore\n        /* \"#utility.yul\":14800:14931   */\n      tag_302\n        /* \"#utility.yul\":14926:14930   */\n      dup2\n        /* \"#utility.yul\":14800:14931   */\n      tag_146\n      jump\t// in\n    tag_302:\n        /* \"#utility.yul\":14792:14931   */\n      swap1\n      pop\n        /* \"#utility.yul\":14519:14938   */\n      swap2\n      swap1\n      pop\n      jump\t// out\n        /* \"#utility.yul\":14944:15085   */\n    tag_147:\n        /* \"#utility.yul\":14993:14997   */\n      0x00\n        /* \"#utility.yul\":15016:15019   */\n      dup2\n        /* \"#utility.yul\":15008:15019   */\n      swap1\n      pop\n        /* \"#utility.yul\":15039:15042   */\n      dup2\n        /* \"#utility.yul\":15036:15037   */\n      0x00\n        /* \"#utility.yul\":15029:15043   */\n      mstore\n        /* \"#utility.yul\":15073:15077   */\n      0x20\n        /* \"#utility.yul\":15070:15071   */\n      0x00\n        /* \"#utility.yul\":15060:15078   */\n      keccak256\n        /* \"#utility.yul\":15052:15078   */\n      swap1\n      pop\n        /* \"#utility.yul\":14944:15085   */\n      swap2\n      swap1\n      pop\n      jump\t// out\n        /* \"#utility.yul\":15091:15184   */\n    tag_148:\n        /* \"#utility.yul\":15128:15134   */\n      0x00\n        /* \"#utility.yul\":15175:15177   */\n      0x20\n        /* \"#utility.yul\":15170:15172   */\n      0x1f\n        /* \"#utility.yul\":15163:15168   */\n      dup4\n        /* \"#utility.yul\":15159:15173   */\n      add\n        /* \"#utility.yul\":15155:15178   */\n      div\n        /* \"#utility.yul\":15145:15178   */\n      swap1\n      pop\n        /* \"#utility.yul\":15091:15184   */\n      swap2\n      swap1\n      pop\n      jump\t// out\n        /* \"#utility.yul\":15190:15297   */\n    tag_149:\n        /* \"#utility.yul\":15234:15242   */\n      0x00\n        /* \"#utility.yul\":15284:15289   */\n      dup3\n        /* \"#utility.yul\":15278:15282   */\n      dup3\n        /* \"#utility.yul\":15274:15290   */\n      shl\n        /* \"#utility.yul\":15253:15290   */\n      swap1\n      pop\n        /* \"#utility.yul\":15190:15297   */\n      swap3\n      swap2\n      pop\n      pop\n      jump\t// out\n        /* \"#utility.yul\":15303:15696   */\n    tag_150:\n        /* \"#utility.yul\":15372:15378   */\n      0x00\n        /* \"#utility.yul\":15422:15423   */\n      0x08\n        /* \"#utility.yul\":15410:15420   */\n      dup4\n        /* \"#utility.yul\":15406:15424   */\n      mul\n        /* \"#utility.yul\":15445:15542   */\n      tag_307\n        /* \"#utility.yul\":15475:15541   */\n      0xffffffffffffffffffffffffffffffffffffffffffffffffffffffffffffffff\n        /* \"#utility.yul\":15464:15473   */\n      dup3\n        /* \"#utility.yul\":15445:15542   */\n      tag_149\n      jump\t// in\n    tag_307:\n        /* \"#utility.yul\":15563:15602   */\n      tag_308\n        /* \"#utility.yul\":15593:15601   */\n      dup7\n        /* \"#utility.yul\":15582:15591   */\n      dup4\n        /* \"#utility.yul\":15563:15602   */\n      tag_149\n      jump\t// in\n    tag_308:\n        /* \"#utility.yul\":15551:15602   */\n      swap6\n      pop\n        /* \"#utility.yul\":15635:15639   */\n      dup1\n        /* \"#utility.yul\":15631:15640   */\n      not\n        /* \"#utility.yul\":15624:15629   */\n      dup5\n        /* \"#utility.yul\":15620:15641   */\n      and\n        /* \"#utility.yul\":15611:15641   */\n      swap4\n      pop\n        /* \"#utility.yul\":15684:15688   */\n      dup1\n        /* \"#utility.yul\":15674:15682   */\n      dup7\n        /* \"#utility.yul\":15670:15689   */\n      and\n        /* \"#utility.yul\":15663:15668   */\n      dup5\n        /* \"#utility.yul\":15660:15690   */\n      or\n        /* \"#utility.yul\":15650:15690   */\n      swap3\n      pop\n        /* \"#utility.yul\":15379:15696   */\n      pop\n      pop\n        /* \"#utility.yul\":15303:15696   */\n      swap4\n      swap3\n      pop\n      pop\n      pop\n      jump\t// out\n        /* \"#utility.yul\":15702:15762   */\n    tag_151:\n        /* \"#utility.yul\":15730:15733   */\n      0x00\n        /* \"#utility.yul\":15751:15756   */\n      dup2\n        /* \"#utility.yul\":15744:15756   */\n      swap1\n      pop\n        /* \"#utility.yul\":15702:15762   */\n      swap2\n      swap1\n      pop\n      jump\t// out\n        /* \"#utility.yul\":15768:15910   */\n    tag_152:\n        /* \"#utility.yul\":15818:15827   */\n      0x00\n        /* \"#utility.yul\":15851:15904   */\n      tag_311\n        /* \"#utility.yul\":15869:15903   */\n      tag_312\n        /* \"#utility.yul\":15878:15902   */\n      tag_313\n        /* \"#utility.yul\":15896:15901   */\n      dup5\n        /* \"#utility.yul\":15878:15902   */\n      tag_104\n      jump\t// in\n    tag_313:\n        /* \"#utility.yul\":15869:15903   */\n      tag_151\n      jump\t// in\n    tag_312:\n        /* \"#utility.yul\":15851:15904   */\n      tag_104\n      jump\t// in\n    tag_311:\n        /* \"#utility.yul\":15838:15904   */\n      swap1\n      pop\n        /* \"#utility.yul\":15768:15910   */\n      swap2\n      swap1\n      pop\n      jump\t// out\n        /* \"#utility.yul\":15916:15991   */\n    tag_153:\n        /* \"#utility.yul\":15959:15962   */\n      0x00\n        /* \"#utility.yul\":15980:15985   */\n      dup2\n        /* \"#utility.yul\":15973:15985   */\n      swap1\n      pop\n        /* \"#utility.yul\":15916:15991   */\n      swap2\n      swap1\n      pop\n      jump\t// out\n        /* \"#utility.yul\":15997:16266   */\n    tag_154:\n        /* \"#utility.yul\":16107:16146   */\n      tag_316\n        /* \"#utility.yul\":16138:16145   */\n      dup4\n        /* \"#utility.yul\":16107:16146   */\n      tag_152\n      jump\t// in\n    tag_316:\n        /* \"#utility.yul\":16168:16259   */\n      tag_317\n        /* \"#utility.yul\":16217:16258   */\n      tag_318\n        /* \"#utility.yul\":16241:16257   */\n      dup3\n        /* \"#utility.yul\":16217:16258   */\n      tag_153\n      jump\t// in\n    tag_318:\n        /* \"#utility.yul\":16209:16215   */\n      dup5\n        /* \"#utility.yul\":16202:16206   */\n      dup5\n        /* \"#utility.yul\":16196:16207   */\n      sload\n        /* \"#utility.yul\":16168:16259   */\n      tag_150\n      jump\t// in\n    tag_317:\n        /* \"#utility.yul\":16162:16166   */\n      dup3\n        /* \"#utility.yul\":16155:16260   */\n      sstore\n        /* \"#utility.yul\":16073:16266   */\n      pop\n        /* \"#utility.yul\":15997:16266   */\n      pop\n      pop\n      pop\n      jump\t// out\n        /* \"#utility.yul\":16272:16345   */\n    tag_155:\n        /* \"#utility.yul\":16317:16320   */\n      0x00\n        /* \"#utility.yul\":16272:16345   */\n      swap1\n      jump\t// out\n        /* \"#utility.yul\":16351:16540   */\n    tag_156:\n        /* \"#utility.yul\":16428:16460   */\n      tag_321\n      tag_155\n      jump\t// in\n    tag_321:\n        /* \"#utility.yul\":16469:16534   */\n      tag_322\n        /* \"#utility.yul\":16527:16533   */\n      dup2\n        /* \"#utility.yul\":16519:16525   */\n      dup5\n        /* \"#utility.yul\":16513:16517   */\n      dup5\n        /* \"#utility.yul\":16469:16534   */\n      tag_154\n      jump\t// in\n    tag_322:\n        /* \"#utility.yul\":16404:16540   */\n      pop\n        /* \"#utility.yul\":16351:16540   */\n      pop\n      pop\n      jump\t// out\n        /* \"#utility.yul\":16546:16732   */\n    tag_157:\n        /* \"#utility.yul\":16606:16726   */\n    tag_324:\n        /* \"#utility.yul\":16623:16626   */\n      dup2\n        /* \"#utility.yul\":16616:16621   */\n      dup2\n        /* \"#utility.yul\":16613:16627   */\n      lt\n        /* \"#utility.yul\":16606:16726   */\n      iszero\n      tag_326\n      jumpi\n        /* \"#utility.yul\":16677:16716   */\n      tag_327\n        /* \"#utility.yul\":16714:16715   */\n      0x00\n        /* \"#utility.yul\":16707:16712   */\n      dup3\n        /* \"#utility.yul\":16677:16716   */\n      tag_156\n      jump\t// in\n    tag_327:\n        /* \"#utility.yul\":16650:16651   */\n      0x01\n        /* \"#utility.yul\":16643:16648   */\n      dup2\n        /* \"#utility.yul\":16639:16652   */\n      add\n        /* \"#utility.yul\":16630:16652   */\n      swap1\n      pop\n        /* \"#utility.yul\":16606:16726   */\n      jump(tag_324)\n    tag_326:\n        /* \"#utility.yul\":16546:16732   */\n      pop\n      pop\n      jump\t// out\n        /* \"#utility.yul\":16738:17281   */\n    tag_158:\n        /* \"#utility.yul\":16839:16841   */\n      0x1f\n        /* \"#utility.yul\":16834:16837   */\n      dup3\n        /* \"#utility.yul\":16831:16842   */\n      gt\n        /* \"#utility.yul\":16828:17274   */\n      iszero\n      tag_329\n      jumpi\n        /* \"#utility.yul\":16873:16911   */\n      tag_330\n        /* \"#utility.yul\":16905:16910   */\n      dup2\n        /* \"#utility.yul\":16873:16911   */\n      tag_147\n      jump\t// in\n    tag_330:\n        /* \"#utility.yul\":16957:16986   */\n      tag_331\n        /* \"#utility.yul\":16975:16985   */\n      dup5\n        /* \"#utility.yul\":16957:16986   */\n      tag_148\n      jump\t// in\n    tag_331:\n        /* \"#utility.yul\":16947:16955   */\n      dup2\n        /* \"#utility.yul\":16943:16987   */\n      add\n        /* \"#utility.yul\":17140:17142   */\n      0x20\n        /* \"#utility.yul\":17128:17138   */\n      dup6\n        /* \"#utility.yul\":17125:17143   */\n      lt\n        /* \"#utility.yul\":17122:17171   */\n      iszero\n      tag_332\n      jumpi\n        /* \"#utility.yul\":17161:17169   */\n      dup2\n        /* \"#utility.yul\":17146:17169   */\n      swap1\n      pop\n        /* \"#utility.yul\":17122:17171   */\n    tag_332:\n        /* \"#utility.yul\":17184:17264   */\n      tag_333\n        /* \"#utility.yul\":17240:17262   */\n      tag_334\n        /* \"#utility.yul\":17258:17261   */\n      dup6\n        /* \"#utility.yul\":17240:17262   */\n      tag_148\n      jump\t// in\n    tag_334:\n        /* \"#utility.yul\":17230:17238   */\n      dup4\n        /* \"#utility.yul\":17226:17263   */\n      add\n        /* \"#utility.yul\":17213:17224   */\n      dup3\n        /* \"#utility.yul\":17184:17264   */\n      tag_157\n      jump\t// in\n    tag_333:\n        /* \"#utility.yul\":16843:17274   */\n      pop\n      pop\n        /* \"#utility.yul\":16828:17274   */\n    tag_329:\n        /* \"#utility.yul\":16738:17281   */\n      pop\n      pop\n      pop\n      jump\t// out\n        /* \"#utility.yul\":17287:17404   */\n    tag_159:\n        /* \"#utility.yul\":17341:17349   */\n      0x00\n        /* \"#utility.yul\":17391:17396   */\n      dup3\n        /* \"#utility.yul\":17385:17389   */\n      dup3\n        /* \"#utility.yul\":17381:17397   */\n      shr\n        /* \"#utility.yul\":17360:17397   */\n      swap1\n      pop\n        /* \"#utility.yul\":17287:17404   */\n      swap3\n      swap2\n      pop\n      pop\n      jump\t// out\n        /* \"#utility.yul\":17410:17579   */\n    tag_160:\n        /* \"#utility.yul\":17454:17460   */\n      0x00\n        /* \"#utility.yul\":17487:17538   */\n      tag_337\n        /* \"#utility.yul\":17535:17536   */\n      0x00\n        /* \"#utility.yul\":17531:17537   */\n      not\n        /* \"#utility.yul\":17523:17528   */\n      dup5\n        /* \"#utility.yul\":17520:17521   */\n      0x08\n        /* \"#utility.yul\":17516:17529   */\n      mul\n        /* \"#utility.yul\":17487:17538   */\n      tag_159\n      jump\t// in\n    tag_337:\n        /* \"#utility.yul\":17483:17539   */\n      not\n        /* \"#utility.yul\":17568:17572   */\n      dup1\n        /* \"#utility.yul\":17562:17566   */\n      dup4\n        /* \"#utility.yul\":17558:17573   */\n      and\n        /* \"#utility.yul\":17548:17573   */\n      swap2\n      pop\n        /* \"#utility.yul\":17461:17579   */\n      pop\n        /* \"#utility.yul\":17410:17579   */\n      swap3\n      swap2\n      pop\n      pop\n      jump\t// out\n        /* \"#utility.yul\":17584:17879   */\n    tag_161:\n        /* \"#utility.yul\":17660:17664   */\n      0x00\n        /* \"#utility.yul\":17806:17835   */\n      tag_339\n        /* \"#utility.yul\":17831:17834   */\n      dup4\n        /* \"#utility.yul\":17825:17829   */\n      dup4\n        /* \"#utility.yul\":17806:17835   */\n      tag_160\n      jump\t// in\n    tag_339:\n        /* \"#utility.yul\":17798:17835   */\n      swap2\n      pop\n        /* \"#utility.yul\":17868:17871   */\n      dup3\n        /* \"#utility.yul\":17865:17866   */\n      0x02\n        /* \"#utility.yul\":17861:17872   */\n      mul\n        /* \"#utility.yul\":17855:17859   */\n      dup3\n        /* \"#utility.yul\":17852:17873   */\n      or\n        /* \"#utility.yul\":17844:17873   */\n      swap1\n      pop\n        /* \"#utility.yul\":17584:17879   */\n      swap3\n      swap2\n      pop\n      pop\n      jump\t// out\n        /* \"#utility.yul\":17884:19279   */\n    tag_82:\n        /* \"#utility.yul\":18001:18038   */\n      tag_341\n        /* \"#utility.yul\":18034:18037   */\n      dup3\n        /* \"#utility.yul\":18001:18038   */\n      tag_108\n      jump\t// in\n    tag_341:\n        /* \"#utility.yul\":18103:18121   */\n      0xffffffffffffffff\n        /* \"#utility.yul\":18095:18101   */\n      dup2\n        /* \"#utility.yul\":18092:18122   */\n      gt\n        /* \"#utility.yul\":18089:18145   */\n      iszero\n      tag_342\n      jumpi\n        /* \"#utility.yul\":18125:18143   */\n      tag_343\n      tag_115\n      jump\t// in\n    tag_343:\n        /* \"#utility.yul\":18089:18145   */\n    tag_342:\n        /* \"#utility.yul\":18169:18207   */\n      tag_344\n        /* \"#utility.yul\":18201:18205   */\n      dup3\n        /* \"#utility.yul\":18195:18206   */\n      sload\n        /* \"#utility.yul\":18169:18207   */\n      tag_70\n      jump\t// in\n    tag_344:\n        /* \"#utility.yul\":18254:18321   */\n      tag_345\n        /* \"#utility.yul\":18314:18320   */\n      dup3\n        /* \"#utility.yul\":18306:18312   */\n      dup3\n        /* \"#utility.yul\":18300:18304   */\n      dup6\n        /* \"#utility.yul\":18254:18321   */\n      tag_158\n      jump\t// in\n    tag_345:\n        /* \"#utility.yul\":18348:18349   */\n      0x00\n        /* \"#utility.yul\":18372:18376   */\n      0x20\n        /* \"#utility.yul\":18359:18376   */\n      swap1\n      pop\n        /* \"#utility.yul\":18404:18406   */\n      0x1f\n        /* \"#utility.yul\":18396:18402   */\n      dup4\n        /* \"#utility.yul\":18393:18407   */\n      gt\n        /* \"#utility.yul\":18421:18422   */\n      0x01\n        /* \"#utility.yul\":18416:19034   */\n      dup2\n      eq\n      tag_347\n      jumpi\n        /* \"#utility.yul\":19078:19079   */\n      0x00\n        /* \"#utility.yul\":19095:19101   */\n      dup5\n        /* \"#utility.yul\":19092:19169   */\n      iszero\n      tag_348\n      jumpi\n        /* \"#utility.yul\":19144:19153   */\n      dup3\n        /* \"#utility.yul\":19139:19142   */\n      dup8\n        /* \"#utility.yul\":19135:19154   */\n      add\n        /* \"#utility.yul\":19129:19155   */\n      mload\n        /* \"#utility.yul\":19120:19155   */\n      swap1\n      pop\n        /* \"#utility.yul\":19092:19169   */\n    tag_348:\n        /* \"#utility.yul\":19195:19262   */\n      tag_349\n        /* \"#utility.yul\":19255:19261   */\n      dup6\n        /* \"#utility.yul\":19248:19253   */\n      dup3\n        /* \"#utility.yul\":19195:19262   */\n      tag_161\n      jump\t// in\n    tag_349:\n        /* \"#utility.yul\":19189:19193   */\n      dup7\n        /* \"#utility.yul\":19182:19263   */\n      sstore\n        /* \"#utility.yul\":19051:19273   */\n      pop\n        /* \"#utility.yul\":18386:19273   */\n      jump(tag_346)\n        /* \"#utility.yul\":18416:19034   */\n    tag_347:\n        /* \"#utility.yul\":18468:18472   */\n      0x1f\n        /* \"#utility.yul\":18464:18473   */\n      not\n        /* \"#utility.yul\":18456:18462   */\n      dup5\n        /* \"#utility.yul\":18452:18474   */\n      and\n        /* \"#utility.yul\":18502:18539   */\n      tag_350\n        /* \"#utility.yul\":18534:18538   */\n      dup7\n        /* \"#utility.yul\":18502:18539   */\n      tag_147\n      jump\t// in\n    tag_350:\n        /* \"#utility.yul\":18561:18562   */\n      0x00\n        /* \"#utility.yul\":18575:18783   */\n    tag_351:\n        /* \"#utility.yul\":18589:18596   */\n      dup3\n        /* \"#utility.yul\":18586:18587   */\n      dup2\n        /* \"#utility.yul\":18583:18597   */\n      lt\n        /* \"#utility.yul\":18575:18783   */\n      iszero\n      tag_353\n      jumpi\n        /* \"#utility.yul\":18668:18677   */\n      dup5\n        /* \"#utility.yul\":18663:18666   */\n      dup10\n        /* \"#utility.yul\":18659:18678   */\n      add\n        /* \"#utility.yul\":18653:18679   */\n      mload\n        /* \"#utility.yul\":18645:18651   */\n      dup3\n        /* \"#utility.yul\":18638:18680   */\n      sstore\n        /* \"#utility.yul\":18719:18720   */\n      0x01\n        /* \"#utility.yul\":18711:18717   */\n      dup3\n        /* \"#utility.yul\":18707:18721   */\n      add\n        /* \"#utility.yul\":18697:18721   */\n      swap2\n      pop\n        /* \"#utility.yul\":18766:18768   */\n      0x20\n        /* \"#utility.yul\":18755:18764   */\n      dup6\n        /* \"#utility.yul\":18751:18769   */\n      add\n        /* \"#utility.yul\":18738:18769   */\n      swap5\n      pop\n        /* \"#utility.yul\":18612:18616   */\n      0x20\n        /* \"#utility.yul\":18609:18610   */\n      dup2\n        /* \"#utility.yul\":18605:18617   */\n      add\n        /* \"#utility.yul\":18600:18617   */\n      swap1\n      pop\n        /* \"#utility.yul\":18575:18783   */\n      jump(tag_351)\n    tag_353:\n        /* \"#utility.yul\":18811:18817   */\n      dup7\n        /* \"#utility.yul\":18802:18809   */\n      dup4\n        /* \"#utility.yul\":18799:18818   */\n      lt\n        /* \"#utility.yul\":18796:18975   */\n      iszero\n      tag_354\n      jumpi\n        /* \"#utility.yul\":18869:18878   */\n      dup5\n        /* \"#utility.yul\":18864:18867   */\n      dup10\n        /* \"#utility.yul\":18860:18879   */\n      add\n        /* \"#utility.yul\":18854:18880   */\n      mload\n        /* \"#utility.yul\":18912:18960   */\n      tag_355\n        /* \"#utility.yul\":18954:18958   */\n      0x1f\n        /* \"#utility.yul\":18946:18952   */\n      dup10\n        /* \"#utility.yul\":18942:18959   */\n      and\n        /* \"#utility.yul\":18931:18940   */\n      dup3\n        /* \"#utility.yul\":18912:18960   */\n      tag_160\n      jump\t// in\n    tag_355:\n        /* \"#utility.yul\":18904:18910   */\n      dup4\n        /* \"#utility.yul\":18897:18961   */\n      sstore\n        /* \"#utility.yul\":18819:18975   */\n      pop\n        /* \"#utility.yul\":18796:18975   */\n    tag_354:\n        /* \"#utility.yul\":19021:19022   */\n      0x01\n        /* \"#utility.yul\":19017:19018   */\n      0x02\n        /* \"#utility.yul\":19009:19015   */\n      dup9\n        /* \"#utility.yul\":19005:19019   */\n      mul\n        /* \"#utility.yul\":19001:19023   */\n      add\n        /* \"#utility.yul\":18995:18999   */\n      dup9\n        /* \"#utility.yul\":18988:19024   */\n      sstore\n        /* \"#utility.yul\":18423:19034   */\n      pop\n      pop\n      pop\n        /* \"#utility.yul\":18386:19273   */\n    tag_346:\n      pop\n        /* \"#utility.yul\":17976:19279   */\n      pop\n      pop\n      pop\n        /* \"#utility.yul\":17884:19279   */\n      pop\n      pop\n      jump\t// out\n        /* \"#utility.yul\":19285:19462   */\n    tag_162:\n        /* \"#utility.yul\":19425:19454   */\n      0x566f74696e6720686173206e6f742073746172746564207965742e0000000000\n        /* \"#utility.yul\":19421:19422   */\n      0x00\n        /* \"#utility.yul\":19413:19419   */\n      dup3\n        /* \"#utility.yul\":19409:19423   */\n      add\n        /* \"#utility.yul\":19402:19455   */\n      mstore\n        /* \"#utility.yul\":19285:19462   */\n      pop\n      jump\t// out\n        /* \"#utility.yul\":19468:19834   */\n    tag_163:\n        /* \"#utility.yul\":19610:19613   */\n      0x00\n        /* \"#utility.yul\":19631:19698   */\n      tag_358\n        /* \"#utility.yul\":19695:19697   */\n      0x1b\n        /* \"#utility.yul\":19690:19693   */\n      dup4\n        /* \"#utility.yul\":19631:19698   */\n      tag_109\n      jump\t// in\n    tag_358:\n        /* \"#utility.yul\":19624:19698   */\n      swap2\n      pop\n        /* \"#utility.yul\":19707:19800   */\n      tag_359\n        /* \"#utility.yul\":19796:19799   */\n      dup3\n        /* \"#utility.yul\":19707:19800   */\n      tag_162\n      jump\t// in\n    tag_359:\n        /* \"#utility.yul\":19825:19827   */\n      0x20\n        /* \"#utility.yul\":19820:19823   */\n      dup3\n        /* \"#utility.yul\":19816:19828   */\n      add\n        /* \"#utility.yul\":19809:19828   */\n      swap1\n      pop\n        /* \"#utility.yul\":19468:19834   */\n      swap2\n      swap1\n      pop\n      jump\t// out\n        /* \"#utility.yul\":19840:20259   */\n    tag_97:\n        /* \"#utility.yul\":20006:20010   */\n      0x00\n        /* \"#utility.yul\":20044:20046   */\n      0x20\n        /* \"#utility.yul\":20033:20042   */\n      dup3\n        /* \"#utility.yul\":20029:20047   */\n      add\n        /* \"#utility.yul\":20021:20047   */\n      swap1\n      pop\n        /* \"#utility.yul\":20093:20102   */\n      dup2\n        /* \"#utility.yul\":20087:20091   */\n      dup2\n        /* \"#utility.yul\":20083:20103   */\n      sub\n        /* \"#utility.yul\":20079:20080   */\n      0x00\n        /* \"#utility.yul\":20068:20077   */\n      dup4\n        /* \"#utility.yul\":20064:20081   */\n      add\n        /* \"#utility.yul\":20057:20104   */\n      mstore\n        /* \"#utility.yul\":20121:20252   */\n      tag_361\n        /* \"#utility.yul\":20247:20251   */\n      dup2\n        /* \"#utility.yul\":20121:20252   */\n      tag_163\n      jump\t// in\n    tag_361:\n        /* \"#utility.yul\":20113:20252   */\n      swap1\n      pop\n        /* \"#utility.yul\":19840:20259   */\n      swap2\n      swap1\n      pop\n      jump\t// out\n        /* \"#utility.yul\":20265:20459   */\n    tag_100:\n        /* \"#utility.yul\":20305:20309   */\n      0x00\n        /* \"#utility.yul\":20325:20345   */\n      tag_363\n        /* \"#utility.yul\":20343:20344   */\n      dup3\n        /* \"#utility.yul\":20325:20345   */\n      tag_104\n      jump\t// in\n    tag_363:\n        /* \"#utility.yul\":20320:20345   */\n      swap2\n      pop\n        /* \"#utility.yul\":20359:20379   */\n      tag_364\n        /* \"#utility.yul\":20377:20378   */\n      dup4\n        /* \"#utility.yul\":20359:20379   */\n      tag_104\n      jump\t// in\n    tag_364:\n        /* \"#utility.yul\":20354:20379   */\n      swap3\n      pop\n        /* \"#utility.yul\":20403:20404   */\n      dup3\n        /* \"#utility.yul\":20400:20401   */\n      dup3\n        /* \"#utility.yul\":20396:20405   */\n      sub\n        /* \"#utility.yul\":20388:20405   */\n      swap1\n      pop\n        /* \"#utility.yul\":20427:20428   */\n      dup2\n        /* \"#utility.yul\":20421:20425   */\n      dup2\n        /* \"#utility.yul\":20418:20429   */\n      gt\n        /* \"#utility.yul\":20415:20452   */\n      iszero\n      tag_365\n      jumpi\n        /* \"#utility.yul\":20432:20450   */\n      tag_366\n      tag_143\n      jump\t// in\n    tag_366:\n        /* \"#utility.yul\":20415:20452   */\n    tag_365:\n        /* \"#utility.yul\":20265:20459   */\n      swap3\n      swap2\n      pop\n      pop\n      jump\t// out\n\n    auxdata: 0xa264697066735822122061501d58c0b75b7875f408466bc9eb3bac2863a9a97a6bcb4e7c35f831a1e1f264736f6c63430008190033\n}\n",
				"bytecode": {
					"linkReferences": {},
					"object": "608060405234801561000f575f80fd5b506040516118d73803806118d78339818101604052810190610031919061038e565b5f5b82518110156100bf575f604051806040016040528085848151811061005b5761005a6103e8565b5b602002602001015181526020015f815250908060018154018082558091505060019003905f5260205f2090600202015f909190919091505f820151815f0190816100a59190610619565b506020820151816001015550508080600101915050610033565b503360015f6101000a81548173ffffffffffffffffffffffffffffffffffffffff021916908373ffffffffffffffffffffffffffffffffffffffff16021790555042600381905550603c816101149190610715565b4261011f9190610756565b6004819055505050610789565b5f604051905090565b5f80fd5b5f80fd5b5f80fd5b5f601f19601f8301169050919050565b7f4e487b71000000000000000000000000000000000000000000000000000000005f52604160045260245ffd5b61018782610141565b810181811067ffffffffffffffff821117156101a6576101a5610151565b5b80604052505050565b5f6101b861012c565b90506101c4828261017e565b919050565b5f67ffffffffffffffff8211156101e3576101e2610151565b5b602082029050602081019050919050565b5f80fd5b5f80fd5b5f67ffffffffffffffff82111561021657610215610151565b5b61021f82610141565b9050602081019050919050565b8281835e5f83830152505050565b5f61024c610247846101fc565b6101af565b905082815260208101848484011115610268576102676101f8565b5b61027384828561022c565b509392505050565b5f82601f83011261028f5761028e61013d565b5b815161029f84826020860161023a565b91505092915050565b5f6102ba6102b5846101c9565b6101af565b905080838252602082019050602084028301858111156102dd576102dc6101f4565b5b835b8181101561032457805167ffffffffffffffff8111156103025761030161013d565b5b80860161030f898261027b565b855260208501945050506020810190506102df565b5050509392505050565b5f82601f8301126103425761034161013d565b5b81516103528482602086016102a8565b91505092915050565b5f819050919050565b61036d8161035b565b8114610377575f80fd5b50565b5f8151905061038881610364565b92915050565b5f80604083850312156103a4576103a3610135565b5b5f83015167ffffffffffffffff8111156103c1576103c0610139565b5b6103cd8582860161032e565b92505060206103de8582860161037a565b9150509250929050565b7f4e487b71000000000000000000000000000000000000000000000000000000005f52603260045260245ffd5b5f81519050919050565b7f4e487b71000000000000000000000000000000000000000000000000000000005f52602260045260245ffd5b5f600282049050600182168061046357607f821691505b6020821081036104765761047561041f565b5b50919050565b5f819050815f5260205f209050919050565b5f6020601f8301049050919050565b5f82821b905092915050565b5f600883026104d87fffffffffffffffffffffffffffffffffffffffffffffffffffffffffffffffff8261049d565b6104e2868361049d565b95508019841693508086168417925050509392505050565b5f819050919050565b5f61051d6105186105138461035b565b6104fa565b61035b565b9050919050565b5f819050919050565b61053683610503565b61054a61054282610524565b8484546104a9565b825550505050565b5f90565b61055e610552565b61056981848461052d565b505050565b5b8181101561058c576105815f82610556565b60018101905061056f565b5050565b601f8211156105d1576105a28161047c565b6105ab8461048e565b810160208510156105ba578190505b6105ce6105c68561048e565b83018261056e565b50505b505050565b5f82821c905092915050565b5f6105f15f19846008026105d6565b1980831691505092915050565b5f61060983836105e2565b9150826002028217905092915050565b61062282610415565b67ffffffffffffffff81111561063b5761063a610151565b5b610645825461044c565b610650828285610590565b5f60209050601f831160018114610681575f841561066f578287015190505b61067985826105fe565b8655506106e0565b601f19841661068f8661047c565b5f5b828110156106b657848901518255600182019150602085019450602081019050610691565b868310156106d357848901516106cf601f8916826105e2565b8355505b6001600288020188555050505b505050505050565b7f4e487b71000000000000000000000000000000000000000000000000000000005f52601160045260245ffd5b5f61071f8261035b565b915061072a8361035b565b92508282026107388161035b565b9150828204841483151761074f5761074e6106e8565b5b5092915050565b5f6107608261035b565b915061076b8361035b565b9250828201905080821115610783576107826106e8565b5b92915050565b611141806107965f395ff3fe608060405234801561000f575f80fd5b506004361061009c575f3560e01c806385a386351161006457806385a38635146101455780638da5cb5b1461016357806390a9ab9014610181578063a3ec138d1461019f578063efb98bcf146101cf5761009c565b80630121b93f146100a0578063101158af146100bc5780633477ee2e146100da578063462e91ec1461010b578063581c281c14610127575b5f80fd5b6100ba60048036038101906100b591906106f8565b6101ed565b005b6100c461034c565b6040516100d19190610732565b60405180910390f35b6100f460048036038101906100ef91906106f8565b610352565b6040516101029291906107bb565b60405180910390f35b61012560048036038101906101209190610915565b610406565b005b61012f6104f4565b60405161013c9190610976565b60405180910390f35b61014d61050d565b60405161015a9190610732565b60405180910390f35b61016b610513565b60405161017891906109ce565b60405180910390f35b610189610538565b6040516101969190610b33565b60405180910390f35b6101b960048036038101906101b49190610b7d565b61062c565b6040516101c69190610976565b60405180910390f35b6101d7610649565b6040516101e49190610732565b60405180910390f35b60025f3373ffffffffffffffffffffffffffffffffffffffff1673ffffffffffffffffffffffffffffffffffffffff1681526020019081526020015f205f9054906101000a900460ff1615610277576040517f08c379a000000000000000000000000000000000000000000000000000000000815260040161026e90610bf2565b60405180910390fd5b5f8054905081106102bd576040517f08c379a00000000000000000000000000000000000000000000000000000000081526004016102b490610c5a565b60405180910390fd5b5f81815481106102d0576102cf610c78565b5b905f5260205f2090600202016001015f8154809291906102ef90610cd2565b9190505550600160025f3373ffffffffffffffffffffffffffffffffffffffff1673ffffffffffffffffffffffffffffffffffffffff1681526020019081526020015f205f6101000a81548160ff02191690831515021790555050565b60035481565b5f8181548110610360575f80fd5b905f5260205f2090600202015f91509050805f01805461037f90610d46565b80601f01602080910402602001604051908101604052809291908181526020018280546103ab90610d46565b80156103f65780601f106103cd576101008083540402835291602001916103f6565b820191905f5260205f20905b8154815290600101906020018083116103d957829003601f168201915b5050505050908060010154905082565b60015f9054906101000a900473ffffffffffffffffffffffffffffffffffffffff1673ffffffffffffffffffffffffffffffffffffffff163373ffffffffffffffffffffffffffffffffffffffff1614610495576040517f08c379a000000000000000000000000000000000000000000000000000000000815260040161048c90610de6565b60405180910390fd5b5f60405180604001604052808381526020015f815250908060018154018082558091505060019003905f5260205f2090600202015f909190919091505f820151815f0190816104e49190610fa1565b5060208201518160010155505050565b5f6003544210158015610508575060045442105b905090565b60045481565b60015f9054906101000a900473ffffffffffffffffffffffffffffffffffffffff1681565b60605f805480602002602001604051908101604052809291908181526020015f905b82821015610623578382905f5260205f2090600202016040518060400160405290815f8201805461058a90610d46565b80601f01602080910402602001604051908101604052809291908181526020018280546105b690610d46565b80156106015780601f106105d857610100808354040283529160200191610601565b820191905f5260205f20905b8154815290600101906020018083116105e457829003601f168201915b505050505081526020016001820154815250508152602001906001019061055a565b50505050905090565b6002602052805f5260405f205f915054906101000a900460ff1681565b5f60035442101561068f576040517f08c379a0000000000000000000000000000000000000000000000000000000008152600401610686906110ba565b60405180910390fd5b60045442106106a0575f90506106b1565b426004546106ae91906110d8565b90505b90565b5f604051905090565b5f80fd5b5f80fd5b5f819050919050565b6106d7816106c5565b81146106e1575f80fd5b50565b5f813590506106f2816106ce565b92915050565b5f6020828403121561070d5761070c6106bd565b5b5f61071a848285016106e4565b91505092915050565b61072c816106c5565b82525050565b5f6020820190506107455f830184610723565b92915050565b5f81519050919050565b5f82825260208201905092915050565b8281835e5f83830152505050565b5f601f19601f8301169050919050565b5f61078d8261074b565b6107978185610755565b93506107a7818560208601610765565b6107b081610773565b840191505092915050565b5f6040820190508181035f8301526107d38185610783565b90506107e26020830184610723565b9392505050565b5f80fd5b5f80fd5b7f4e487b71000000000000000000000000000000000000000000000000000000005f52604160045260245ffd5b61082782610773565b810181811067ffffffffffffffff82111715610846576108456107f1565b5b80604052505050565b5f6108586106b4565b9050610864828261081e565b919050565b5f67ffffffffffffffff821115610883576108826107f1565b5b61088c82610773565b9050602081019050919050565b828183375f83830152505050565b5f6108b96108b484610869565b61084f565b9050828152602081018484840111156108d5576108d46107ed565b5b6108e0848285610899565b509392505050565b5f82601f8301126108fc576108fb6107e9565b5b813561090c8482602086016108a7565b91505092915050565b5f6020828403121561092a576109296106bd565b5b5f82013567ffffffffffffffff811115610947576109466106c1565b5b610953848285016108e8565b91505092915050565b5f8115159050919050565b6109708161095c565b82525050565b5f6020820190506109895f830184610967565b92915050565b5f73ffffffffffffffffffffffffffffffffffffffff82169050919050565b5f6109b88261098f565b9050919050565b6109c8816109ae565b82525050565b5f6020820190506109e15f8301846109bf565b92915050565b5f81519050919050565b5f82825260208201905092915050565b5f819050602082019050919050565b5f82825260208201905092915050565b5f610a2a8261074b565b610a348185610a10565b9350610a44818560208601610765565b610a4d81610773565b840191505092915050565b610a61816106c5565b82525050565b5f604083015f8301518482035f860152610a818282610a20565b9150506020830151610a966020860182610a58565b508091505092915050565b5f610aac8383610a67565b905092915050565b5f602082019050919050565b5f610aca826109e7565b610ad481856109f1565b935083602082028501610ae685610a01565b805f5b85811015610b215784840389528151610b028582610aa1565b9450610b0d83610ab4565b925060208a01995050600181019050610ae9565b50829750879550505050505092915050565b5f6020820190508181035f830152610b4b8184610ac0565b905092915050565b610b5c816109ae565b8114610b66575f80fd5b50565b5f81359050610b7781610b53565b92915050565b5f60208284031215610b9257610b916106bd565b5b5f610b9f84828501610b69565b91505092915050565b7f596f75206861766520616c726561647920766f7465642e0000000000000000005f82015250565b5f610bdc601783610755565b9150610be782610ba8565b602082019050919050565b5f6020820190508181035f830152610c0981610bd0565b9050919050565b7f496e76616c69642063616e64696461746520696e6465782e00000000000000005f82015250565b5f610c44601883610755565b9150610c4f82610c10565b602082019050919050565b5f6020820190508181035f830152610c7181610c38565b9050919050565b7f4e487b71000000000000000000000000000000000000000000000000000000005f52603260045260245ffd5b7f4e487b71000000000000000000000000000000000000000000000000000000005f52601160045260245ffd5b5f610cdc826106c5565b91507fffffffffffffffffffffffffffffffffffffffffffffffffffffffffffffffff8203610d0e57610d0d610ca5565b5b600182019050919050565b7f4e487b71000000000000000000000000000000000000000000000000000000005f52602260045260245ffd5b5f6002820490506001821680610d5d57607f821691505b602082108103610d7057610d6f610d19565b5b50919050565b7f4f6e6c79206f776e65722063616e20706572666f726d207468697320616374695f8201527f6f6e2e0000000000000000000000000000000000000000000000000000000000602082015250565b5f610dd0602383610755565b9150610ddb82610d76565b604082019050919050565b5f6020820190508181035f830152610dfd81610dc4565b9050919050565b5f819050815f5260205f209050919050565b5f6020601f8301049050919050565b5f82821b905092915050565b5f60088302610e607fffffffffffffffffffffffffffffffffffffffffffffffffffffffffffffffff82610e25565b610e6a8683610e25565b95508019841693508086168417925050509392505050565b5f819050919050565b5f610ea5610ea0610e9b846106c5565b610e82565b6106c5565b9050919050565b5f819050919050565b610ebe83610e8b565b610ed2610eca82610eac565b848454610e31565b825550505050565b5f90565b610ee6610eda565b610ef1818484610eb5565b505050565b5b81811015610f1457610f095f82610ede565b600181019050610ef7565b5050565b601f821115610f5957610f2a81610e04565b610f3384610e16565b81016020851015610f42578190505b610f56610f4e85610e16565b830182610ef6565b50505b505050565b5f82821c905092915050565b5f610f795f1984600802610f5e565b1980831691505092915050565b5f610f918383610f6a565b9150826002028217905092915050565b610faa8261074b565b67ffffffffffffffff811115610fc357610fc26107f1565b5b610fcd8254610d46565b610fd8828285610f18565b5f60209050601f831160018114611009575f8415610ff7578287015190505b6110018582610f86565b865550611068565b601f19841661101786610e04565b5f5b8281101561103e57848901518255600182019150602085019450602081019050611019565b8683101561105b5784890151611057601f891682610f6a565b8355505b6001600288020188555050505b505050505050565b7f566f74696e6720686173206e6f742073746172746564207965742e00000000005f82015250565b5f6110a4601b83610755565b91506110af82611070565b602082019050919050565b5f6020820190508181035f8301526110d181611098565b9050919050565b5f6110e2826106c5565b91506110ed836106c5565b925082820390508181111561110557611104610ca5565b5b9291505056fea264697066735822122061501d58c0b75b7875f408466bc9eb3bac2863a9a97a6bcb4e7c35f831a1e1f264736f6c63430008190033",
					"opcodes": "PUSH1 0x80 PUSH1 0x40 MSTORE CALLVALUE DUP1 ISZERO PUSH2 0xF JUMPI PUSH0 DUP1 REVERT JUMPDEST POP PUSH1 0x40 MLOAD PUSH2 0x18D7 CODESIZE SUB DUP1 PUSH2 0x18D7 DUP4 CODECOPY DUP2 DUP2 ADD PUSH1 0x40 MSTORE DUP2 ADD SWAP1 PUSH2 0x31 SWAP2 SWAP1 PUSH2 0x38E JUMP JUMPDEST PUSH0 JUMPDEST DUP3 MLOAD DUP2 LT ISZERO PUSH2 0xBF JUMPI PUSH0 PUSH1 0x40 MLOAD DUP1 PUSH1 0x40 ADD PUSH1 0x40 MSTORE DUP1 DUP6 DUP5 DUP2 MLOAD DUP2 LT PUSH2 0x5B JUMPI PUSH2 0x5A PUSH2 0x3E8 JUMP JUMPDEST JUMPDEST PUSH1 0x20 MUL PUSH1 0x20 ADD ADD MLOAD DUP2 MSTORE PUSH1 0x20 ADD PUSH0 DUP2 MSTORE POP SWAP1 DUP1 PUSH1 0x1 DUP2 SLOAD ADD DUP1 DUP3 SSTORE DUP1 SWAP2 POP POP PUSH1 0x1 SWAP1 SUB SWAP1 PUSH0 MSTORE PUSH1 0x20 PUSH0 KECCAK256 SWAP1 PUSH1 0x2 MUL ADD PUSH0 SWAP1 SWAP2 SWAP1 SWAP2 SWAP1 SWAP2 POP PUSH0 DUP3 ADD MLOAD DUP2 PUSH0 ADD SWAP1 DUP2 PUSH2 0xA5 SWAP2 SWAP1 PUSH2 0x619 JUMP JUMPDEST POP PUSH1 0x20 DUP3 ADD MLOAD DUP2 PUSH1 0x1 ADD SSTORE POP POP DUP1 DUP1 PUSH1 0x1 ADD SWAP2 POP POP PUSH2 0x33 JUMP JUMPDEST POP CALLER PUSH1 0x1 PUSH0 PUSH2 0x100 EXP DUP2 SLOAD DUP2 PUSH20 0xFFFFFFFFFFFFFFFFFFFFFFFFFFFFFFFFFFFFFFFF MUL NOT AND SWAP1 DUP4 PUSH20 0xFFFFFFFFFFFFFFFFFFFFFFFFFFFFFFFFFFFFFFFF AND MUL OR SWAP1 SSTORE POP TIMESTAMP PUSH1 0x3 DUP2 SWAP1 SSTORE POP PUSH1 0x3C DUP2 PUSH2 0x114 SWAP2 SWAP1 PUSH2 0x715 JUMP JUMPDEST TIMESTAMP PUSH2 0x11F SWAP2 SWAP1 PUSH2 0x756 JUMP JUMPDEST PUSH1 0x4 DUP2 SWAP1 SSTORE POP POP POP PUSH2 0x789 JUMP JUMPDEST PUSH0 PUSH1 0x40 MLOAD SWAP1 POP SWAP1 JUMP JUMPDEST PUSH0 DUP1 REVERT JUMPDEST PUSH0 DUP1 REVERT JUMPDEST PUSH0 DUP1 REVERT JUMPDEST PUSH0 PUSH1 0x1F NOT PUSH1 0x1F DUP4 ADD AND SWAP1 POP SWAP2 SWAP1 POP JUMP JUMPDEST PUSH32 0x4E487B7100000000000000000000000000000000000000000000000000000000 PUSH0 MSTORE PUSH1 0x41 PUSH1 0x4 MSTORE PUSH1 0x24 PUSH0 REVERT JUMPDEST PUSH2 0x187 DUP3 PUSH2 0x141 JUMP JUMPDEST DUP2 ADD DUP2 DUP2 LT PUSH8 0xFFFFFFFFFFFFFFFF DUP3 GT OR ISZERO PUSH2 0x1A6 JUMPI PUSH2 0x1A5 PUSH2 0x151 JUMP JUMPDEST JUMPDEST DUP1 PUSH1 0x40 MSTORE POP POP POP JUMP JUMPDEST PUSH0 PUSH2 0x1B8 PUSH2 0x12C JUMP JUMPDEST SWAP1 POP PUSH2 0x1C4 DUP3 DUP3 PUSH2 0x17E JUMP JUMPDEST SWAP2 SWAP1 POP JUMP JUMPDEST PUSH0 PUSH8 0xFFFFFFFFFFFFFFFF DUP3 GT ISZERO PUSH2 0x1E3 JUMPI PUSH2 0x1E2 PUSH2 0x151 JUMP JUMPDEST JUMPDEST PUSH1 0x20 DUP3 MUL SWAP1 POP PUSH1 0x20 DUP2 ADD SWAP1 POP SWAP2 SWAP1 POP JUMP JUMPDEST PUSH0 DUP1 REVERT JUMPDEST PUSH0 DUP1 REVERT JUMPDEST PUSH0 PUSH8 0xFFFFFFFFFFFFFFFF DUP3 GT ISZERO PUSH2 0x216 JUMPI PUSH2 0x215 PUSH2 0x151 JUMP JUMPDEST JUMPDEST PUSH2 0x21F DUP3 PUSH2 0x141 JUMP JUMPDEST SWAP1 POP PUSH1 0x20 DUP2 ADD SWAP1 POP SWAP2 SWAP1 POP JUMP JUMPDEST DUP3 DUP2 DUP4 MCOPY PUSH0 DUP4 DUP4 ADD MSTORE POP POP POP JUMP JUMPDEST PUSH0 PUSH2 0x24C PUSH2 0x247 DUP5 PUSH2 0x1FC JUMP JUMPDEST PUSH2 0x1AF JUMP JUMPDEST SWAP1 POP DUP3 DUP2 MSTORE PUSH1 0x20 DUP2 ADD DUP5 DUP5 DUP5 ADD GT ISZERO PUSH2 0x268 JUMPI PUSH2 0x267 PUSH2 0x1F8 JUMP JUMPDEST JUMPDEST PUSH2 0x273 DUP5 DUP3 DUP6 PUSH2 0x22C JUMP JUMPDEST POP SWAP4 SWAP3 POP POP POP JUMP JUMPDEST PUSH0 DUP3 PUSH1 0x1F DUP4 ADD SLT PUSH2 0x28F JUMPI PUSH2 0x28E PUSH2 0x13D JUMP JUMPDEST JUMPDEST DUP2 MLOAD PUSH2 0x29F DUP5 DUP3 PUSH1 0x20 DUP7 ADD PUSH2 0x23A JUMP JUMPDEST SWAP2 POP POP SWAP3 SWAP2 POP POP JUMP JUMPDEST PUSH0 PUSH2 0x2BA PUSH2 0x2B5 DUP5 PUSH2 0x1C9 JUMP JUMPDEST PUSH2 0x1AF JUMP JUMPDEST SWAP1 POP DUP1 DUP4 DUP3 MSTORE PUSH1 0x20 DUP3 ADD SWAP1 POP PUSH1 0x20 DUP5 MUL DUP4 ADD DUP6 DUP2 GT ISZERO PUSH2 0x2DD JUMPI PUSH2 0x2DC PUSH2 0x1F4 JUMP JUMPDEST JUMPDEST DUP4 JUMPDEST DUP2 DUP2 LT ISZERO PUSH2 0x324 JUMPI DUP1 MLOAD PUSH8 0xFFFFFFFFFFFFFFFF DUP2 GT ISZERO PUSH2 0x302 JUMPI PUSH2 0x301 PUSH2 0x13D JUMP JUMPDEST JUMPDEST DUP1 DUP7 ADD PUSH2 0x30F DUP10 DUP3 PUSH2 0x27B JUMP JUMPDEST DUP6 MSTORE PUSH1 0x20 DUP6 ADD SWAP5 POP POP POP PUSH1 0x20 DUP2 ADD SWAP1 POP PUSH2 0x2DF JUMP JUMPDEST POP POP POP SWAP4 SWAP3 POP POP POP JUMP JUMPDEST PUSH0 DUP3 PUSH1 0x1F DUP4 ADD SLT PUSH2 0x342 JUMPI PUSH2 0x341 PUSH2 0x13D JUMP JUMPDEST JUMPDEST DUP2 MLOAD PUSH2 0x352 DUP5 DUP3 PUSH1 0x20 DUP7 ADD PUSH2 0x2A8 JUMP JUMPDEST SWAP2 POP POP SWAP3 SWAP2 POP POP JUMP JUMPDEST PUSH0 DUP2 SWAP1 POP SWAP2 SWAP1 POP JUMP JUMPDEST PUSH2 0x36D DUP2 PUSH2 0x35B JUMP JUMPDEST DUP2 EQ PUSH2 0x377 JUMPI PUSH0 DUP1 REVERT JUMPDEST POP JUMP JUMPDEST PUSH0 DUP2 MLOAD SWAP1 POP PUSH2 0x388 DUP2 PUSH2 0x364 JUMP JUMPDEST SWAP3 SWAP2 POP POP JUMP JUMPDEST PUSH0 DUP1 PUSH1 0x40 DUP4 DUP6 SUB SLT ISZERO PUSH2 0x3A4 JUMPI PUSH2 0x3A3 PUSH2 0x135 JUMP JUMPDEST JUMPDEST PUSH0 DUP4 ADD MLOAD PUSH8 0xFFFFFFFFFFFFFFFF DUP2 GT ISZERO PUSH2 0x3C1 JUMPI PUSH2 0x3C0 PUSH2 0x139 JUMP JUMPDEST JUMPDEST PUSH2 0x3CD DUP6 DUP3 DUP7 ADD PUSH2 0x32E JUMP JUMPDEST SWAP3 POP POP PUSH1 0x20 PUSH2 0x3DE DUP6 DUP3 DUP7 ADD PUSH2 0x37A JUMP JUMPDEST SWAP2 POP POP SWAP3 POP SWAP3 SWAP1 POP JUMP JUMPDEST PUSH32 0x4E487B7100000000000000000000000000000000000000000000000000000000 PUSH0 MSTORE PUSH1 0x32 PUSH1 0x4 MSTORE PUSH1 0x24 PUSH0 REVERT JUMPDEST PUSH0 DUP2 MLOAD SWAP1 POP SWAP2 SWAP1 POP JUMP JUMPDEST PUSH32 0x4E487B7100000000000000000000000000000000000000000000000000000000 PUSH0 MSTORE PUSH1 0x22 PUSH1 0x4 MSTORE PUSH1 0x24 PUSH0 REVERT JUMPDEST PUSH0 PUSH1 0x2 DUP3 DIV SWAP1 POP PUSH1 0x1 DUP3 AND DUP1 PUSH2 0x463 JUMPI PUSH1 0x7F DUP3 AND SWAP2 POP JUMPDEST PUSH1 0x20 DUP3 LT DUP2 SUB PUSH2 0x476 JUMPI PUSH2 0x475 PUSH2 0x41F JUMP JUMPDEST JUMPDEST POP SWAP2 SWAP1 POP JUMP JUMPDEST PUSH0 DUP2 SWAP1 POP DUP2 PUSH0 MSTORE PUSH1 0x20 PUSH0 KECCAK256 SWAP1 POP SWAP2 SWAP1 POP JUMP JUMPDEST PUSH0 PUSH1 0x20 PUSH1 0x1F DUP4 ADD DIV SWAP1 POP SWAP2 SWAP1 POP JUMP JUMPDEST PUSH0 DUP3 DUP3 SHL SWAP1 POP SWAP3 SWAP2 POP POP JUMP JUMPDEST PUSH0 PUSH1 0x8 DUP4 MUL PUSH2 0x4D8 PUSH32 0xFFFFFFFFFFFFFFFFFFFFFFFFFFFFFFFFFFFFFFFFFFFFFFFFFFFFFFFFFFFFFFFF DUP3 PUSH2 0x49D JUMP JUMPDEST PUSH2 0x4E2 DUP7 DUP4 PUSH2 0x49D JUMP JUMPDEST SWAP6 POP DUP1 NOT DUP5 AND SWAP4 POP DUP1 DUP7 AND DUP5 OR SWAP3 POP POP POP SWAP4 SWAP3 POP POP POP JUMP JUMPDEST PUSH0 DUP2 SWAP1 POP SWAP2 SWAP1 POP JUMP JUMPDEST PUSH0 PUSH2 0x51D PUSH2 0x518 PUSH2 0x513 DUP5 PUSH2 0x35B JUMP JUMPDEST PUSH2 0x4FA JUMP JUMPDEST PUSH2 0x35B JUMP JUMPDEST SWAP1 POP SWAP2 SWAP1 POP JUMP JUMPDEST PUSH0 DUP2 SWAP1 POP SWAP2 SWAP1 POP JUMP JUMPDEST PUSH2 0x536 DUP4 PUSH2 0x503 JUMP JUMPDEST PUSH2 0x54A PUSH2 0x542 DUP3 PUSH2 0x524 JUMP JUMPDEST DUP5 DUP5 SLOAD PUSH2 0x4A9 JUMP JUMPDEST DUP3 SSTORE POP POP POP POP JUMP JUMPDEST PUSH0 SWAP1 JUMP JUMPDEST PUSH2 0x55E PUSH2 0x552 JUMP JUMPDEST PUSH2 0x569 DUP2 DUP5 DUP5 PUSH2 0x52D JUMP JUMPDEST POP POP POP JUMP JUMPDEST JUMPDEST DUP2 DUP2 LT ISZERO PUSH2 0x58C JUMPI PUSH2 0x581 PUSH0 DUP3 PUSH2 0x556 JUMP JUMPDEST PUSH1 0x1 DUP2 ADD SWAP1 POP PUSH2 0x56F JUMP JUMPDEST POP POP JUMP JUMPDEST PUSH1 0x1F DUP3 GT ISZERO PUSH2 0x5D1 JUMPI PUSH2 0x5A2 DUP2 PUSH2 0x47C JUMP JUMPDEST PUSH2 0x5AB DUP5 PUSH2 0x48E JUMP JUMPDEST DUP2 ADD PUSH1 0x20 DUP6 LT ISZERO PUSH2 0x5BA JUMPI DUP2 SWAP1 POP JUMPDEST PUSH2 0x5CE PUSH2 0x5C6 DUP6 PUSH2 0x48E JUMP JUMPDEST DUP4 ADD DUP3 PUSH2 0x56E JUMP JUMPDEST POP POP JUMPDEST POP POP POP JUMP JUMPDEST PUSH0 DUP3 DUP3 SHR SWAP1 POP SWAP3 SWAP2 POP POP JUMP JUMPDEST PUSH0 PUSH2 0x5F1 PUSH0 NOT DUP5 PUSH1 0x8 MUL PUSH2 0x5D6 JUMP JUMPDEST NOT DUP1 DUP4 AND SWAP2 POP POP SWAP3 SWAP2 POP POP JUMP JUMPDEST PUSH0 PUSH2 0x609 DUP4 DUP4 PUSH2 0x5E2 JUMP JUMPDEST SWAP2 POP DUP3 PUSH1 0x2 MUL DUP3 OR SWAP1 POP SWAP3 SWAP2 POP POP JUMP JUMPDEST PUSH2 0x622 DUP3 PUSH2 0x415 JUMP JUMPDEST PUSH8 0xFFFFFFFFFFFFFFFF DUP2 GT ISZERO PUSH2 0x63B JUMPI PUSH2 0x63A PUSH2 0x151 JUMP JUMPDEST JUMPDEST PUSH2 0x645 DUP3 SLOAD PUSH2 0x44C JUMP JUMPDEST PUSH2 0x650 DUP3 DUP3 DUP6 PUSH2 0x590 JUMP JUMPDEST PUSH0 PUSH1 0x20 SWAP1 POP PUSH1 0x1F DUP4 GT PUSH1 0x1 DUP2 EQ PUSH2 0x681 JUMPI PUSH0 DUP5 ISZERO PUSH2 0x66F JUMPI DUP3 DUP8 ADD MLOAD SWAP1 POP JUMPDEST PUSH2 0x679 DUP6 DUP3 PUSH2 0x5FE JUMP JUMPDEST DUP7 SSTORE POP PUSH2 0x6E0 JUMP JUMPDEST PUSH1 0x1F NOT DUP5 AND PUSH2 0x68F DUP7 PUSH2 0x47C JUMP JUMPDEST PUSH0 JUMPDEST DUP3 DUP2 LT ISZERO PUSH2 0x6B6 JUMPI DUP5 DUP10 ADD MLOAD DUP3 SSTORE PUSH1 0x1 DUP3 ADD SWAP2 POP PUSH1 0x20 DUP6 ADD SWAP5 POP PUSH1 0x20 DUP2 ADD SWAP1 POP PUSH2 0x691 JUMP JUMPDEST DUP7 DUP4 LT ISZERO PUSH2 0x6D3 JUMPI DUP5 DUP10 ADD MLOAD PUSH2 0x6CF PUSH1 0x1F DUP10 AND DUP3 PUSH2 0x5E2 JUMP JUMPDEST DUP4 SSTORE POP JUMPDEST PUSH1 0x1 PUSH1 0x2 DUP9 MUL ADD DUP9 SSTORE POP POP POP JUMPDEST POP POP POP POP POP POP JUMP JUMPDEST PUSH32 0x4E487B7100000000000000000000000000000000000000000000000000000000 PUSH0 MSTORE PUSH1 0x11 PUSH1 0x4 MSTORE PUSH1 0x24 PUSH0 REVERT JUMPDEST PUSH0 PUSH2 0x71F DUP3 PUSH2 0x35B JUMP JUMPDEST SWAP2 POP PUSH2 0x72A DUP4 PUSH2 0x35B JUMP JUMPDEST SWAP3 POP DUP3 DUP3 MUL PUSH2 0x738 DUP2 PUSH2 0x35B JUMP JUMPDEST SWAP2 POP DUP3 DUP3 DIV DUP5 EQ DUP4 ISZERO OR PUSH2 0x74F JUMPI PUSH2 0x74E PUSH2 0x6E8 JUMP JUMPDEST JUMPDEST POP SWAP3 SWAP2 POP POP JUMP JUMPDEST PUSH0 PUSH2 0x760 DUP3 PUSH2 0x35B JUMP JUMPDEST SWAP2 POP PUSH2 0x76B DUP4 PUSH2 0x35B JUMP JUMPDEST SWAP3 POP DUP3 DUP3 ADD SWAP1 POP DUP1 DUP3 GT ISZERO PUSH2 0x783 JUMPI PUSH2 0x782 PUSH2 0x6E8 JUMP JUMPDEST JUMPDEST SWAP3 SWAP2 POP POP JUMP JUMPDEST PUSH2 0x1141 DUP1 PUSH2 0x796 PUSH0 CODECOPY PUSH0 RETURN INVALID PUSH1 0x80 PUSH1 0x40 MSTORE CALLVALUE DUP1 ISZERO PUSH2 0xF JUMPI PUSH0 DUP1 REVERT JUMPDEST POP PUSH1 0x4 CALLDATASIZE LT PUSH2 0x9C JUMPI PUSH0 CALLDATALOAD PUSH1 0xE0 SHR DUP1 PUSH4 0x85A38635 GT PUSH2 0x64 JUMPI DUP1 PUSH4 0x85A38635 EQ PUSH2 0x145 JUMPI DUP1 PUSH4 0x8DA5CB5B EQ PUSH2 0x163 JUMPI DUP1 PUSH4 0x90A9AB90 EQ PUSH2 0x181 JUMPI DUP1 PUSH4 0xA3EC138D EQ PUSH2 0x19F JUMPI DUP1 PUSH4 0xEFB98BCF EQ PUSH2 0x1CF JUMPI PUSH2 0x9C JUMP JUMPDEST DUP1 PUSH4 0x121B93F EQ PUSH2 0xA0 JUMPI DUP1 PUSH4 0x101158AF EQ PUSH2 0xBC JUMPI DUP1 PUSH4 0x3477EE2E EQ PUSH2 0xDA JUMPI DUP1 PUSH4 0x462E91EC EQ PUSH2 0x10B JUMPI DUP1 PUSH4 0x581C281C EQ PUSH2 0x127 JUMPI JUMPDEST PUSH0 DUP1 REVERT JUMPDEST PUSH2 0xBA PUSH1 0x4 DUP1 CALLDATASIZE SUB DUP2 ADD SWAP1 PUSH2 0xB5 SWAP2 SWAP1 PUSH2 0x6F8 JUMP JUMPDEST PUSH2 0x1ED JUMP JUMPDEST STOP JUMPDEST PUSH2 0xC4 PUSH2 0x34C JUMP JUMPDEST PUSH1 0x40 MLOAD PUSH2 0xD1 SWAP2 SWAP1 PUSH2 0x732 JUMP JUMPDEST PUSH1 0x40 MLOAD DUP1 SWAP2 SUB SWAP1 RETURN JUMPDEST PUSH2 0xF4 PUSH1 0x4 DUP1 CALLDATASIZE SUB DUP2 ADD SWAP1 PUSH2 0xEF SWAP2 SWAP1 PUSH2 0x6F8 JUMP JUMPDEST PUSH2 0x352 JUMP JUMPDEST PUSH1 0x40 MLOAD PUSH2 0x102 SWAP3 SWAP2 SWAP1 PUSH2 0x7BB JUMP JUMPDEST PUSH1 0x40 MLOAD DUP1 SWAP2 SUB SWAP1 RETURN JUMPDEST PUSH2 0x125 PUSH1 0x4 DUP1 CALLDATASIZE SUB DUP2 ADD SWAP1 PUSH2 0x120 SWAP2 SWAP1 PUSH2 0x915 JUMP JUMPDEST PUSH2 0x406 JUMP JUMPDEST STOP JUMPDEST PUSH2 0x12F PUSH2 0x4F4 JUMP JUMPDEST PUSH1 0x40 MLOAD PUSH2 0x13C SWAP2 SWAP1 PUSH2 0x976 JUMP JUMPDEST PUSH1 0x40 MLOAD DUP1 SWAP2 SUB SWAP1 RETURN JUMPDEST PUSH2 0x14D PUSH2 0x50D JUMP JUMPDEST PUSH1 0x40 MLOAD PUSH2 0x15A SWAP2 SWAP1 PUSH2 0x732 JUMP JUMPDEST PUSH1 0x40 MLOAD DUP1 SWAP2 SUB SWAP1 RETURN JUMPDEST PUSH2 0x16B PUSH2 0x513 JUMP JUMPDEST PUSH1 0x40 MLOAD PUSH2 0x178 SWAP2 SWAP1 PUSH2 0x9CE JUMP JUMPDEST PUSH1 0x40 MLOAD DUP1 SWAP2 SUB SWAP1 RETURN JUMPDEST PUSH2 0x189 PUSH2 0x538 JUMP JUMPDEST PUSH1 0x40 MLOAD PUSH2 0x196 SWAP2 SWAP1 PUSH2 0xB33 JUMP JUMPDEST PUSH1 0x40 MLOAD DUP1 SWAP2 SUB SWAP1 RETURN JUMPDEST PUSH2 0x1B9 PUSH1 0x4 DUP1 CALLDATASIZE SUB DUP2 ADD SWAP1 PUSH2 0x1B4 SWAP2 SWAP1 PUSH2 0xB7D JUMP JUMPDEST PUSH2 0x62C JUMP JUMPDEST PUSH1 0x40 MLOAD PUSH2 0x1C6 SWAP2 SWAP1 PUSH2 0x976 JUMP JUMPDEST PUSH1 0x40 MLOAD DUP1 SWAP2 SUB SWAP1 RETURN JUMPDEST PUSH2 0x1D7 PUSH2 0x649 JUMP JUMPDEST PUSH1 0x40 MLOAD PUSH2 0x1E4 SWAP2 SWAP1 PUSH2 0x732 JUMP JUMPDEST PUSH1 0x40 MLOAD DUP1 SWAP2 SUB SWAP1 RETURN JUMPDEST PUSH1 0x2 PUSH0 CALLER PUSH20 0xFFFFFFFFFFFFFFFFFFFFFFFFFFFFFFFFFFFFFFFF AND PUSH20 0xFFFFFFFFFFFFFFFFFFFFFFFFFFFFFFFFFFFFFFFF AND DUP2 MSTORE PUSH1 0x20 ADD SWAP1 DUP2 MSTORE PUSH1 0x20 ADD PUSH0 KECCAK256 PUSH0 SWAP1 SLOAD SWAP1 PUSH2 0x100 EXP SWAP1 DIV PUSH1 0xFF AND ISZERO PUSH2 0x277 JUMPI PUSH1 0x40 MLOAD PUSH32 0x8C379A000000000000000000000000000000000000000000000000000000000 DUP2 MSTORE PUSH1 0x4 ADD PUSH2 0x26E SWAP1 PUSH2 0xBF2 JUMP JUMPDEST PUSH1 0x40 MLOAD DUP1 SWAP2 SUB SWAP1 REVERT JUMPDEST PUSH0 DUP1 SLOAD SWAP1 POP DUP2 LT PUSH2 0x2BD JUMPI PUSH1 0x40 MLOAD PUSH32 0x8C379A000000000000000000000000000000000000000000000000000000000 DUP2 MSTORE PUSH1 0x4 ADD PUSH2 0x2B4 SWAP1 PUSH2 0xC5A JUMP JUMPDEST PUSH1 0x40 MLOAD DUP1 SWAP2 SUB SWAP1 REVERT JUMPDEST PUSH0 DUP2 DUP2 SLOAD DUP2 LT PUSH2 0x2D0 JUMPI PUSH2 0x2CF PUSH2 0xC78 JUMP JUMPDEST JUMPDEST SWAP1 PUSH0 MSTORE PUSH1 0x20 PUSH0 KECCAK256 SWAP1 PUSH1 0x2 MUL ADD PUSH1 0x1 ADD PUSH0 DUP2 SLOAD DUP1 SWAP3 SWAP2 SWAP1 PUSH2 0x2EF SWAP1 PUSH2 0xCD2 JUMP JUMPDEST SWAP2 SWAP1 POP SSTORE POP PUSH1 0x1 PUSH1 0x2 PUSH0 CALLER PUSH20 0xFFFFFFFFFFFFFFFFFFFFFFFFFFFFFFFFFFFFFFFF AND PUSH20 0xFFFFFFFFFFFFFFFFFFFFFFFFFFFFFFFFFFFFFFFF AND DUP2 MSTORE PUSH1 0x20 ADD SWAP1 DUP2 MSTORE PUSH1 0x20 ADD PUSH0 KECCAK256 PUSH0 PUSH2 0x100 EXP DUP2 SLOAD DUP2 PUSH1 0xFF MUL NOT AND SWAP1 DUP4 ISZERO ISZERO MUL OR SWAP1 SSTORE POP POP JUMP JUMPDEST PUSH1 0x3 SLOAD DUP2 JUMP JUMPDEST PUSH0 DUP2 DUP2 SLOAD DUP2 LT PUSH2 0x360 JUMPI PUSH0 DUP1 REVERT JUMPDEST SWAP1 PUSH0 MSTORE PUSH1 0x20 PUSH0 KECCAK256 SWAP1 PUSH1 0x2 MUL ADD PUSH0 SWAP2 POP SWAP1 POP DUP1 PUSH0 ADD DUP1 SLOAD PUSH2 0x37F SWAP1 PUSH2 0xD46 JUMP JUMPDEST DUP1 PUSH1 0x1F ADD PUSH1 0x20 DUP1 SWAP2 DIV MUL PUSH1 0x20 ADD PUSH1 0x40 MLOAD SWAP1 DUP2 ADD PUSH1 0x40 MSTORE DUP1 SWAP3 SWAP2 SWAP1 DUP2 DUP2 MSTORE PUSH1 0x20 ADD DUP3 DUP1 SLOAD PUSH2 0x3AB SWAP1 PUSH2 0xD46 JUMP JUMPDEST DUP1 ISZERO PUSH2 0x3F6 JUMPI DUP1 PUSH1 0x1F LT PUSH2 0x3CD JUMPI PUSH2 0x100 DUP1 DUP4 SLOAD DIV MUL DUP4 MSTORE SWAP2 PUSH1 0x20 ADD SWAP2 PUSH2 0x3F6 JUMP JUMPDEST DUP3 ADD SWAP2 SWAP1 PUSH0 MSTORE PUSH1 0x20 PUSH0 KECCAK256 SWAP1 JUMPDEST DUP2 SLOAD DUP2 MSTORE SWAP1 PUSH1 0x1 ADD SWAP1 PUSH1 0x20 ADD DUP1 DUP4 GT PUSH2 0x3D9 JUMPI DUP3 SWAP1 SUB PUSH1 0x1F AND DUP3 ADD SWAP2 JUMPDEST POP POP POP POP POP SWAP1 DUP1 PUSH1 0x1 ADD SLOAD SWAP1 POP DUP3 JUMP JUMPDEST PUSH1 0x1 PUSH0 SWAP1 SLOAD SWAP1 PUSH2 0x100 EXP SWAP1 DIV PUSH20 0xFFFFFFFFFFFFFFFFFFFFFFFFFFFFFFFFFFFFFFFF AND PUSH20 0xFFFFFFFFFFFFFFFFFFFFFFFFFFFFFFFFFFFFFFFF AND CALLER PUSH20 0xFFFFFFFFFFFFFFFFFFFFFFFFFFFFFFFFFFFFFFFF AND EQ PUSH2 0x495 JUMPI PUSH1 0x40 MLOAD PUSH32 0x8C379A000000000000000000000000000000000000000000000000000000000 DUP2 MSTORE PUSH1 0x4 ADD PUSH2 0x48C SWAP1 PUSH2 0xDE6 JUMP JUMPDEST PUSH1 0x40 MLOAD DUP1 SWAP2 SUB SWAP1 REVERT JUMPDEST PUSH0 PUSH1 0x40 MLOAD DUP1 PUSH1 0x40 ADD PUSH1 0x40 MSTORE DUP1 DUP4 DUP2 MSTORE PUSH1 0x20 ADD PUSH0 DUP2 MSTORE POP SWAP1 DUP1 PUSH1 0x1 DUP2 SLOAD ADD DUP1 DUP3 SSTORE DUP1 SWAP2 POP POP PUSH1 0x1 SWAP1 SUB SWAP1 PUSH0 MSTORE PUSH1 0x20 PUSH0 KECCAK256 SWAP1 PUSH1 0x2 MUL ADD PUSH0 SWAP1 SWAP2 SWAP1 SWAP2 SWAP1 SWAP2 POP PUSH0 DUP3 ADD MLOAD DUP2 PUSH0 ADD SWAP1 DUP2 PUSH2 0x4E4 SWAP2 SWAP1 PUSH2 0xFA1 JUMP JUMPDEST POP PUSH1 0x20 DUP3 ADD MLOAD DUP2 PUSH1 0x1 ADD SSTORE POP POP POP JUMP JUMPDEST PUSH0 PUSH1 0x3 SLOAD TIMESTAMP LT ISZERO DUP1 ISZERO PUSH2 0x508 JUMPI POP PUSH1 0x4 SLOAD TIMESTAMP LT JUMPDEST SWAP1 POP SWAP1 JUMP JUMPDEST PUSH1 0x4 SLOAD DUP2 JUMP JUMPDEST PUSH1 0x1 PUSH0 SWAP1 SLOAD SWAP1 PUSH2 0x100 EXP SWAP1 DIV PUSH20 0xFFFFFFFFFFFFFFFFFFFFFFFFFFFFFFFFFFFFFFFF AND DUP2 JUMP JUMPDEST PUSH1 0x60 PUSH0 DUP1 SLOAD DUP1 PUSH1 0x20 MUL PUSH1 0x20 ADD PUSH1 0x40 MLOAD SWAP1 DUP2 ADD PUSH1 0x40 MSTORE DUP1 SWAP3 SWAP2 SWAP1 DUP2 DUP2 MSTORE PUSH1 0x20 ADD PUSH0 SWAP1 JUMPDEST DUP3 DUP3 LT ISZERO PUSH2 0x623 JUMPI DUP4 DUP3 SWAP1 PUSH0 MSTORE PUSH1 0x20 PUSH0 KECCAK256 SWAP1 PUSH1 0x2 MUL ADD PUSH1 0x40 MLOAD DUP1 PUSH1 0x40 ADD PUSH1 0x40 MSTORE SWAP1 DUP2 PUSH0 DUP3 ADD DUP1 SLOAD PUSH2 0x58A SWAP1 PUSH2 0xD46 JUMP JUMPDEST DUP1 PUSH1 0x1F ADD PUSH1 0x20 DUP1 SWAP2 DIV MUL PUSH1 0x20 ADD PUSH1 0x40 MLOAD SWAP1 DUP2 ADD PUSH1 0x40 MSTORE DUP1 SWAP3 SWAP2 SWAP1 DUP2 DUP2 MSTORE PUSH1 0x20 ADD DUP3 DUP1 SLOAD PUSH2 0x5B6 SWAP1 PUSH2 0xD46 JUMP JUMPDEST DUP1 ISZERO PUSH2 0x601 JUMPI DUP1 PUSH1 0x1F LT PUSH2 0x5D8 JUMPI PUSH2 0x100 DUP1 DUP4 SLOAD DIV MUL DUP4 MSTORE SWAP2 PUSH1 0x20 ADD SWAP2 PUSH2 0x601 JUMP JUMPDEST DUP3 ADD SWAP2 SWAP1 PUSH0 MSTORE PUSH1 0x20 PUSH0 KECCAK256 SWAP1 JUMPDEST DUP2 SLOAD DUP2 MSTORE SWAP1 PUSH1 0x1 ADD SWAP1 PUSH1 0x20 ADD DUP1 DUP4 GT PUSH2 0x5E4 JUMPI DUP3 SWAP1 SUB PUSH1 0x1F AND DUP3 ADD SWAP2 JUMPDEST POP POP POP POP POP DUP2 MSTORE PUSH1 0x20 ADD PUSH1 0x1 DUP3 ADD SLOAD DUP2 MSTORE POP POP DUP2 MSTORE PUSH1 0x20 ADD SWAP1 PUSH1 0x1 ADD SWAP1 PUSH2 0x55A JUMP JUMPDEST POP POP POP POP SWAP1 POP SWAP1 JUMP JUMPDEST PUSH1 0x2 PUSH1 0x20 MSTORE DUP1 PUSH0 MSTORE PUSH1 0x40 PUSH0 KECCAK256 PUSH0 SWAP2 POP SLOAD SWAP1 PUSH2 0x100 EXP SWAP1 DIV PUSH1 0xFF AND DUP2 JUMP JUMPDEST PUSH0 PUSH1 0x3 SLOAD TIMESTAMP LT ISZERO PUSH2 0x68F JUMPI PUSH1 0x40 MLOAD PUSH32 0x8C379A000000000000000000000000000000000000000000000000000000000 DUP2 MSTORE PUSH1 0x4 ADD PUSH2 0x686 SWAP1 PUSH2 0x10BA JUMP JUMPDEST PUSH1 0x40 MLOAD DUP1 SWAP2 SUB SWAP1 REVERT JUMPDEST PUSH1 0x4 SLOAD TIMESTAMP LT PUSH2 0x6A0 JUMPI PUSH0 SWAP1 POP PUSH2 0x6B1 JUMP JUMPDEST TIMESTAMP PUSH1 0x4 SLOAD PUSH2 0x6AE SWAP2 SWAP1 PUSH2 0x10D8 JUMP JUMPDEST SWAP1 POP JUMPDEST SWAP1 JUMP JUMPDEST PUSH0 PUSH1 0x40 MLOAD SWAP1 POP SWAP1 JUMP JUMPDEST PUSH0 DUP1 REVERT JUMPDEST PUSH0 DUP1 REVERT JUMPDEST PUSH0 DUP2 SWAP1 POP SWAP2 SWAP1 POP JUMP JUMPDEST PUSH2 0x6D7 DUP2 PUSH2 0x6C5 JUMP JUMPDEST DUP2 EQ PUSH2 0x6E1 JUMPI PUSH0 DUP1 REVERT JUMPDEST POP JUMP JUMPDEST PUSH0 DUP2 CALLDATALOAD SWAP1 POP PUSH2 0x6F2 DUP2 PUSH2 0x6CE JUMP JUMPDEST SWAP3 SWAP2 POP POP JUMP JUMPDEST PUSH0 PUSH1 0x20 DUP3 DUP5 SUB SLT ISZERO PUSH2 0x70D JUMPI PUSH2 0x70C PUSH2 0x6BD JUMP JUMPDEST JUMPDEST PUSH0 PUSH2 0x71A DUP5 DUP3 DUP6 ADD PUSH2 0x6E4 JUMP JUMPDEST SWAP2 POP POP SWAP3 SWAP2 POP POP JUMP JUMPDEST PUSH2 0x72C DUP2 PUSH2 0x6C5 JUMP JUMPDEST DUP3 MSTORE POP POP JUMP JUMPDEST PUSH0 PUSH1 0x20 DUP3 ADD SWAP1 POP PUSH2 0x745 PUSH0 DUP4 ADD DUP5 PUSH2 0x723 JUMP JUMPDEST SWAP3 SWAP2 POP POP JUMP JUMPDEST PUSH0 DUP2 MLOAD SWAP1 POP SWAP2 SWAP1 POP JUMP JUMPDEST PUSH0 DUP3 DUP3 MSTORE PUSH1 0x20 DUP3 ADD SWAP1 POP SWAP3 SWAP2 POP POP JUMP JUMPDEST DUP3 DUP2 DUP4 MCOPY PUSH0 DUP4 DUP4 ADD MSTORE POP POP POP JUMP JUMPDEST PUSH0 PUSH1 0x1F NOT PUSH1 0x1F DUP4 ADD AND SWAP1 POP SWAP2 SWAP1 POP JUMP JUMPDEST PUSH0 PUSH2 0x78D DUP3 PUSH2 0x74B JUMP JUMPDEST PUSH2 0x797 DUP2 DUP6 PUSH2 0x755 JUMP JUMPDEST SWAP4 POP PUSH2 0x7A7 DUP2 DUP6 PUSH1 0x20 DUP7 ADD PUSH2 0x765 JUMP JUMPDEST PUSH2 0x7B0 DUP2 PUSH2 0x773 JUMP JUMPDEST DUP5 ADD SWAP2 POP POP SWAP3 SWAP2 POP POP JUMP JUMPDEST PUSH0 PUSH1 0x40 DUP3 ADD SWAP1 POP DUP2 DUP2 SUB PUSH0 DUP4 ADD MSTORE PUSH2 0x7D3 DUP2 DUP6 PUSH2 0x783 JUMP JUMPDEST SWAP1 POP PUSH2 0x7E2 PUSH1 0x20 DUP4 ADD DUP5 PUSH2 0x723 JUMP JUMPDEST SWAP4 SWAP3 POP POP POP JUMP JUMPDEST PUSH0 DUP1 REVERT JUMPDEST PUSH0 DUP1 REVERT JUMPDEST PUSH32 0x4E487B7100000000000000000000000000000000000000000000000000000000 PUSH0 MSTORE PUSH1 0x41 PUSH1 0x4 MSTORE PUSH1 0x24 PUSH0 REVERT JUMPDEST PUSH2 0x827 DUP3 PUSH2 0x773 JUMP JUMPDEST DUP2 ADD DUP2 DUP2 LT PUSH8 0xFFFFFFFFFFFFFFFF DUP3 GT OR ISZERO PUSH2 0x846 JUMPI PUSH2 0x845 PUSH2 0x7F1 JUMP JUMPDEST JUMPDEST DUP1 PUSH1 0x40 MSTORE POP POP POP JUMP JUMPDEST PUSH0 PUSH2 0x858 PUSH2 0x6B4 JUMP JUMPDEST SWAP1 POP PUSH2 0x864 DUP3 DUP3 PUSH2 0x81E JUMP JUMPDEST SWAP2 SWAP1 POP JUMP JUMPDEST PUSH0 PUSH8 0xFFFFFFFFFFFFFFFF DUP3 GT ISZERO PUSH2 0x883 JUMPI PUSH2 0x882 PUSH2 0x7F1 JUMP JUMPDEST JUMPDEST PUSH2 0x88C DUP3 PUSH2 0x773 JUMP JUMPDEST SWAP1 POP PUSH1 0x20 DUP2 ADD SWAP1 POP SWAP2 SWAP1 POP JUMP JUMPDEST DUP3 DUP2 DUP4 CALLDATACOPY PUSH0 DUP4 DUP4 ADD MSTORE POP POP POP JUMP JUMPDEST PUSH0 PUSH2 0x8B9 PUSH2 0x8B4 DUP5 PUSH2 0x869 JUMP JUMPDEST PUSH2 0x84F JUMP JUMPDEST SWAP1 POP DUP3 DUP2 MSTORE PUSH1 0x20 DUP2 ADD DUP5 DUP5 DUP5 ADD GT ISZERO PUSH2 0x8D5 JUMPI PUSH2 0x8D4 PUSH2 0x7ED JUMP JUMPDEST JUMPDEST PUSH2 0x8E0 DUP5 DUP3 DUP6 PUSH2 0x899 JUMP JUMPDEST POP SWAP4 SWAP3 POP POP POP JUMP JUMPDEST PUSH0 DUP3 PUSH1 0x1F DUP4 ADD SLT PUSH2 0x8FC JUMPI PUSH2 0x8FB PUSH2 0x7E9 JUMP JUMPDEST JUMPDEST DUP2 CALLDATALOAD PUSH2 0x90C DUP5 DUP3 PUSH1 0x20 DUP7 ADD PUSH2 0x8A7 JUMP JUMPDEST SWAP2 POP POP SWAP3 SWAP2 POP POP JUMP JUMPDEST PUSH0 PUSH1 0x20 DUP3 DUP5 SUB SLT ISZERO PUSH2 0x92A JUMPI PUSH2 0x929 PUSH2 0x6BD JUMP JUMPDEST JUMPDEST PUSH0 DUP3 ADD CALLDATALOAD PUSH8 0xFFFFFFFFFFFFFFFF DUP2 GT ISZERO PUSH2 0x947 JUMPI PUSH2 0x946 PUSH2 0x6C1 JUMP JUMPDEST JUMPDEST PUSH2 0x953 DUP5 DUP3 DUP6 ADD PUSH2 0x8E8 JUMP JUMPDEST SWAP2 POP POP SWAP3 SWAP2 POP POP JUMP JUMPDEST PUSH0 DUP2 ISZERO ISZERO SWAP1 POP SWAP2 SWAP1 POP JUMP JUMPDEST PUSH2 0x970 DUP2 PUSH2 0x95C JUMP JUMPDEST DUP3 MSTORE POP POP JUMP JUMPDEST PUSH0 PUSH1 0x20 DUP3 ADD SWAP1 POP PUSH2 0x989 PUSH0 DUP4 ADD DUP5 PUSH2 0x967 JUMP JUMPDEST SWAP3 SWAP2 POP POP JUMP JUMPDEST PUSH0 PUSH20 0xFFFFFFFFFFFFFFFFFFFFFFFFFFFFFFFFFFFFFFFF DUP3 AND SWAP1 POP SWAP2 SWAP1 POP JUMP JUMPDEST PUSH0 PUSH2 0x9B8 DUP3 PUSH2 0x98F JUMP JUMPDEST SWAP1 POP SWAP2 SWAP1 POP JUMP JUMPDEST PUSH2 0x9C8 DUP2 PUSH2 0x9AE JUMP JUMPDEST DUP3 MSTORE POP POP JUMP JUMPDEST PUSH0 PUSH1 0x20 DUP3 ADD SWAP1 POP PUSH2 0x9E1 PUSH0 DUP4 ADD DUP5 PUSH2 0x9BF JUMP JUMPDEST SWAP3 SWAP2 POP POP JUMP JUMPDEST PUSH0 DUP2 MLOAD SWAP1 POP SWAP2 SWAP1 POP JUMP JUMPDEST PUSH0 DUP3 DUP3 MSTORE PUSH1 0x20 DUP3 ADD SWAP1 POP SWAP3 SWAP2 POP POP JUMP JUMPDEST PUSH0 DUP2 SWAP1 POP PUSH1 0x20 DUP3 ADD SWAP1 POP SWAP2 SWAP1 POP JUMP JUMPDEST PUSH0 DUP3 DUP3 MSTORE PUSH1 0x20 DUP3 ADD SWAP1 POP SWAP3 SWAP2 POP POP JUMP JUMPDEST PUSH0 PUSH2 0xA2A DUP3 PUSH2 0x74B JUMP JUMPDEST PUSH2 0xA34 DUP2 DUP6 PUSH2 0xA10 JUMP JUMPDEST SWAP4 POP PUSH2 0xA44 DUP2 DUP6 PUSH1 0x20 DUP7 ADD PUSH2 0x765 JUMP JUMPDEST PUSH2 0xA4D DUP2 PUSH2 0x773 JUMP JUMPDEST DUP5 ADD SWAP2 POP POP SWAP3 SWAP2 POP POP JUMP JUMPDEST PUSH2 0xA61 DUP2 PUSH2 0x6C5 JUMP JUMPDEST DUP3 MSTORE POP POP JUMP JUMPDEST PUSH0 PUSH1 0x40 DUP4 ADD PUSH0 DUP4 ADD MLOAD DUP5 DUP3 SUB PUSH0 DUP7 ADD MSTORE PUSH2 0xA81 DUP3 DUP3 PUSH2 0xA20 JUMP JUMPDEST SWAP2 POP POP PUSH1 0x20 DUP4 ADD MLOAD PUSH2 0xA96 PUSH1 0x20 DUP7 ADD DUP3 PUSH2 0xA58 JUMP JUMPDEST POP DUP1 SWAP2 POP POP SWAP3 SWAP2 POP POP JUMP JUMPDEST PUSH0 PUSH2 0xAAC DUP4 DUP4 PUSH2 0xA67 JUMP JUMPDEST SWAP1 POP SWAP3 SWAP2 POP POP JUMP JUMPDEST PUSH0 PUSH1 0x20 DUP3 ADD SWAP1 POP SWAP2 SWAP1 POP JUMP JUMPDEST PUSH0 PUSH2 0xACA DUP3 PUSH2 0x9E7 JUMP JUMPDEST PUSH2 0xAD4 DUP2 DUP6 PUSH2 0x9F1 JUMP JUMPDEST SWAP4 POP DUP4 PUSH1 0x20 DUP3 MUL DUP6 ADD PUSH2 0xAE6 DUP6 PUSH2 0xA01 JUMP JUMPDEST DUP1 PUSH0 JUMPDEST DUP6 DUP2 LT ISZERO PUSH2 0xB21 JUMPI DUP5 DUP5 SUB DUP10 MSTORE DUP2 MLOAD PUSH2 0xB02 DUP6 DUP3 PUSH2 0xAA1 JUMP JUMPDEST SWAP5 POP PUSH2 0xB0D DUP4 PUSH2 0xAB4 JUMP JUMPDEST SWAP3 POP PUSH1 0x20 DUP11 ADD SWAP10 POP POP PUSH1 0x1 DUP2 ADD SWAP1 POP PUSH2 0xAE9 JUMP JUMPDEST POP DUP3 SWAP8 POP DUP8 SWAP6 POP POP POP POP POP POP SWAP3 SWAP2 POP POP JUMP JUMPDEST PUSH0 PUSH1 0x20 DUP3 ADD SWAP1 POP DUP2 DUP2 SUB PUSH0 DUP4 ADD MSTORE PUSH2 0xB4B DUP2 DUP5 PUSH2 0xAC0 JUMP JUMPDEST SWAP1 POP SWAP3 SWAP2 POP POP JUMP JUMPDEST PUSH2 0xB5C DUP2 PUSH2 0x9AE JUMP JUMPDEST DUP2 EQ PUSH2 0xB66 JUMPI PUSH0 DUP1 REVERT JUMPDEST POP JUMP JUMPDEST PUSH0 DUP2 CALLDATALOAD SWAP1 POP PUSH2 0xB77 DUP2 PUSH2 0xB53 JUMP JUMPDEST SWAP3 SWAP2 POP POP JUMP JUMPDEST PUSH0 PUSH1 0x20 DUP3 DUP5 SUB SLT ISZERO PUSH2 0xB92 JUMPI PUSH2 0xB91 PUSH2 0x6BD JUMP JUMPDEST JUMPDEST PUSH0 PUSH2 0xB9F DUP5 DUP3 DUP6 ADD PUSH2 0xB69 JUMP JUMPDEST SWAP2 POP POP SWAP3 SWAP2 POP POP JUMP JUMPDEST PUSH32 0x596F75206861766520616C726561647920766F7465642E000000000000000000 PUSH0 DUP3 ADD MSTORE POP JUMP JUMPDEST PUSH0 PUSH2 0xBDC PUSH1 0x17 DUP4 PUSH2 0x755 JUMP JUMPDEST SWAP2 POP PUSH2 0xBE7 DUP3 PUSH2 0xBA8 JUMP JUMPDEST PUSH1 0x20 DUP3 ADD SWAP1 POP SWAP2 SWAP1 POP JUMP JUMPDEST PUSH0 PUSH1 0x20 DUP3 ADD SWAP1 POP DUP2 DUP2 SUB PUSH0 DUP4 ADD MSTORE PUSH2 0xC09 DUP2 PUSH2 0xBD0 JUMP JUMPDEST SWAP1 POP SWAP2 SWAP1 POP JUMP JUMPDEST PUSH32 0x496E76616C69642063616E64696461746520696E6465782E0000000000000000 PUSH0 DUP3 ADD MSTORE POP JUMP JUMPDEST PUSH0 PUSH2 0xC44 PUSH1 0x18 DUP4 PUSH2 0x755 JUMP JUMPDEST SWAP2 POP PUSH2 0xC4F DUP3 PUSH2 0xC10 JUMP JUMPDEST PUSH1 0x20 DUP3 ADD SWAP1 POP SWAP2 SWAP1 POP JUMP JUMPDEST PUSH0 PUSH1 0x20 DUP3 ADD SWAP1 POP DUP2 DUP2 SUB PUSH0 DUP4 ADD MSTORE PUSH2 0xC71 DUP2 PUSH2 0xC38 JUMP JUMPDEST SWAP1 POP SWAP2 SWAP1 POP JUMP JUMPDEST PUSH32 0x4E487B7100000000000000000000000000000000000000000000000000000000 PUSH0 MSTORE PUSH1 0x32 PUSH1 0x4 MSTORE PUSH1 0x24 PUSH0 REVERT JUMPDEST PUSH32 0x4E487B7100000000000000000000000000000000000000000000000000000000 PUSH0 MSTORE PUSH1 0x11 PUSH1 0x4 MSTORE PUSH1 0x24 PUSH0 REVERT JUMPDEST PUSH0 PUSH2 0xCDC DUP3 PUSH2 0x6C5 JUMP JUMPDEST SWAP2 POP PUSH32 0xFFFFFFFFFFFFFFFFFFFFFFFFFFFFFFFFFFFFFFFFFFFFFFFFFFFFFFFFFFFFFFFF DUP3 SUB PUSH2 0xD0E JUMPI PUSH2 0xD0D PUSH2 0xCA5 JUMP JUMPDEST JUMPDEST PUSH1 0x1 DUP3 ADD SWAP1 POP SWAP2 SWAP1 POP JUMP JUMPDEST PUSH32 0x4E487B7100000000000000000000000000000000000000000000000000000000 PUSH0 MSTORE PUSH1 0x22 PUSH1 0x4 MSTORE PUSH1 0x24 PUSH0 REVERT JUMPDEST PUSH0 PUSH1 0x2 DUP3 DIV SWAP1 POP PUSH1 0x1 DUP3 AND DUP1 PUSH2 0xD5D JUMPI PUSH1 0x7F DUP3 AND SWAP2 POP JUMPDEST PUSH1 0x20 DUP3 LT DUP2 SUB PUSH2 0xD70 JUMPI PUSH2 0xD6F PUSH2 0xD19 JUMP JUMPDEST JUMPDEST POP SWAP2 SWAP1 POP JUMP JUMPDEST PUSH32 0x4F6E6C79206F776E65722063616E20706572666F726D20746869732061637469 PUSH0 DUP3 ADD MSTORE PUSH32 0x6F6E2E0000000000000000000000000000000000000000000000000000000000 PUSH1 0x20 DUP3 ADD MSTORE POP JUMP JUMPDEST PUSH0 PUSH2 0xDD0 PUSH1 0x23 DUP4 PUSH2 0x755 JUMP JUMPDEST SWAP2 POP PUSH2 0xDDB DUP3 PUSH2 0xD76 JUMP JUMPDEST PUSH1 0x40 DUP3 ADD SWAP1 POP SWAP2 SWAP1 POP JUMP JUMPDEST PUSH0 PUSH1 0x20 DUP3 ADD SWAP1 POP DUP2 DUP2 SUB PUSH0 DUP4 ADD MSTORE PUSH2 0xDFD DUP2 PUSH2 0xDC4 JUMP JUMPDEST SWAP1 POP SWAP2 SWAP1 POP JUMP JUMPDEST PUSH0 DUP2 SWAP1 POP DUP2 PUSH0 MSTORE PUSH1 0x20 PUSH0 KECCAK256 SWAP1 POP SWAP2 SWAP1 POP JUMP JUMPDEST PUSH0 PUSH1 0x20 PUSH1 0x1F DUP4 ADD DIV SWAP1 POP SWAP2 SWAP1 POP JUMP JUMPDEST PUSH0 DUP3 DUP3 SHL SWAP1 POP SWAP3 SWAP2 POP POP JUMP JUMPDEST PUSH0 PUSH1 0x8 DUP4 MUL PUSH2 0xE60 PUSH32 0xFFFFFFFFFFFFFFFFFFFFFFFFFFFFFFFFFFFFFFFFFFFFFFFFFFFFFFFFFFFFFFFF DUP3 PUSH2 0xE25 JUMP JUMPDEST PUSH2 0xE6A DUP7 DUP4 PUSH2 0xE25 JUMP JUMPDEST SWAP6 POP DUP1 NOT DUP5 AND SWAP4 POP DUP1 DUP7 AND DUP5 OR SWAP3 POP POP POP SWAP4 SWAP3 POP POP POP JUMP JUMPDEST PUSH0 DUP2 SWAP1 POP SWAP2 SWAP1 POP JUMP JUMPDEST PUSH0 PUSH2 0xEA5 PUSH2 0xEA0 PUSH2 0xE9B DUP5 PUSH2 0x6C5 JUMP JUMPDEST PUSH2 0xE82 JUMP JUMPDEST PUSH2 0x6C5 JUMP JUMPDEST SWAP1 POP SWAP2 SWAP1 POP JUMP JUMPDEST PUSH0 DUP2 SWAP1 POP SWAP2 SWAP1 POP JUMP JUMPDEST PUSH2 0xEBE DUP4 PUSH2 0xE8B JUMP JUMPDEST PUSH2 0xED2 PUSH2 0xECA DUP3 PUSH2 0xEAC JUMP JUMPDEST DUP5 DUP5 SLOAD PUSH2 0xE31 JUMP JUMPDEST DUP3 SSTORE POP POP POP POP JUMP JUMPDEST PUSH0 SWAP1 JUMP JUMPDEST PUSH2 0xEE6 PUSH2 0xEDA JUMP JUMPDEST PUSH2 0xEF1 DUP2 DUP5 DUP5 PUSH2 0xEB5 JUMP JUMPDEST POP POP POP JUMP JUMPDEST JUMPDEST DUP2 DUP2 LT ISZERO PUSH2 0xF14 JUMPI PUSH2 0xF09 PUSH0 DUP3 PUSH2 0xEDE JUMP JUMPDEST PUSH1 0x1 DUP2 ADD SWAP1 POP PUSH2 0xEF7 JUMP JUMPDEST POP POP JUMP JUMPDEST PUSH1 0x1F DUP3 GT ISZERO PUSH2 0xF59 JUMPI PUSH2 0xF2A DUP2 PUSH2 0xE04 JUMP JUMPDEST PUSH2 0xF33 DUP5 PUSH2 0xE16 JUMP JUMPDEST DUP2 ADD PUSH1 0x20 DUP6 LT ISZERO PUSH2 0xF42 JUMPI DUP2 SWAP1 POP JUMPDEST PUSH2 0xF56 PUSH2 0xF4E DUP6 PUSH2 0xE16 JUMP JUMPDEST DUP4 ADD DUP3 PUSH2 0xEF6 JUMP JUMPDEST POP POP JUMPDEST POP POP POP JUMP JUMPDEST PUSH0 DUP3 DUP3 SHR SWAP1 POP SWAP3 SWAP2 POP POP JUMP JUMPDEST PUSH0 PUSH2 0xF79 PUSH0 NOT DUP5 PUSH1 0x8 MUL PUSH2 0xF5E JUMP JUMPDEST NOT DUP1 DUP4 AND SWAP2 POP POP SWAP3 SWAP2 POP POP JUMP JUMPDEST PUSH0 PUSH2 0xF91 DUP4 DUP4 PUSH2 0xF6A JUMP JUMPDEST SWAP2 POP DUP3 PUSH1 0x2 MUL DUP3 OR SWAP1 POP SWAP3 SWAP2 POP POP JUMP JUMPDEST PUSH2 0xFAA DUP3 PUSH2 0x74B JUMP JUMPDEST PUSH8 0xFFFFFFFFFFFFFFFF DUP2 GT ISZERO PUSH2 0xFC3 JUMPI PUSH2 0xFC2 PUSH2 0x7F1 JUMP JUMPDEST JUMPDEST PUSH2 0xFCD DUP3 SLOAD PUSH2 0xD46 JUMP JUMPDEST PUSH2 0xFD8 DUP3 DUP3 DUP6 PUSH2 0xF18 JUMP JUMPDEST PUSH0 PUSH1 0x20 SWAP1 POP PUSH1 0x1F DUP4 GT PUSH1 0x1 DUP2 EQ PUSH2 0x1009 JUMPI PUSH0 DUP5 ISZERO PUSH2 0xFF7 JUMPI DUP3 DUP8 ADD MLOAD SWAP1 POP JUMPDEST PUSH2 0x1001 DUP6 DUP3 PUSH2 0xF86 JUMP JUMPDEST DUP7 SSTORE POP PUSH2 0x1068 JUMP JUMPDEST PUSH1 0x1F NOT DUP5 AND PUSH2 0x1017 DUP7 PUSH2 0xE04 JUMP JUMPDEST PUSH0 JUMPDEST DUP3 DUP2 LT ISZERO PUSH2 0x103E JUMPI DUP5 DUP10 ADD MLOAD DUP3 SSTORE PUSH1 0x1 DUP3 ADD SWAP2 POP PUSH1 0x20 DUP6 ADD SWAP5 POP PUSH1 0x20 DUP2 ADD SWAP1 POP PUSH2 0x1019 JUMP JUMPDEST DUP7 DUP4 LT ISZERO PUSH2 0x105B JUMPI DUP5 DUP10 ADD MLOAD PUSH2 0x1057 PUSH1 0x1F DUP10 AND DUP3 PUSH2 0xF6A JUMP JUMPDEST DUP4 SSTORE POP JUMPDEST PUSH1 0x1 PUSH1 0x2 DUP9 MUL ADD DUP9 SSTORE POP POP POP JUMPDEST POP POP POP POP POP POP JUMP JUMPDEST PUSH32 0x566F74696E6720686173206E6F742073746172746564207965742E0000000000 PUSH0 DUP3 ADD MSTORE POP JUMP JUMPDEST PUSH0 PUSH2 0x10A4 PUSH1 0x1B DUP4 PUSH2 0x755 JUMP JUMPDEST SWAP2 POP PUSH2 0x10AF DUP3 PUSH2 0x1070 JUMP JUMPDEST PUSH1 0x20 DUP3 ADD SWAP1 POP SWAP2 SWAP1 POP JUMP JUMPDEST PUSH0 PUSH1 0x20 DUP3 ADD SWAP1 POP DUP2 DUP2 SUB PUSH0 DUP4 ADD MSTORE PUSH2 0x10D1 DUP2 PUSH2 0x1098 JUMP JUMPDEST SWAP1 POP SWAP2 SWAP1 POP JUMP JUMPDEST PUSH0 PUSH2 0x10E2 DUP3 PUSH2 0x6C5 JUMP JUMPDEST SWAP2 POP PUSH2 0x10ED DUP4 PUSH2 0x6C5 JUMP JUMPDEST SWAP3 POP DUP3 DUP3 SUB SWAP1 POP DUP2 DUP2 GT ISZERO PUSH2 0x1105 JUMPI PUSH2 0x1104 PUSH2 0xCA5 JUMP JUMPDEST JUMPDEST SWAP3 SWAP2 POP POP JUMP INVALID LOG2 PUSH5 0x6970667358 0x22 SLT KECCAK256 PUSH2 0x501D PC 0xC0 0xB7 JUMPDEST PUSH25 0x75F408466BC9EB3BAC2863A9A97A6BCB4E7C35F831A1E1F264 PUSH20 0x6F6C634300081900330000000000000000000000 "
				},
				"gasEstimates": {
					"creation": {
						"codeDepositCost": "883400",
						"executionCost": "infinite",
						"totalCost": "infinite"
					},
					"external": {
						"addCandidate(string)": "infinite",
						"candidates(uint256)": "infinite",
						"getAllVotesOfCandidates()": "infinite",
						"getRemainingTime()": "infinite",
						"getVotingStatus()": "4665",
						"owner()": "2530",
						"vote(uint256)": "infinite",
						"voters(address)": "2899",
						"votingEnd()": "2425",
						"votingStart()": "2448"
					}
				},
				"methodIdentifiers": {
					"addCandidate(string)": "462e91ec",
					"candidates(uint256)": "3477ee2e",
					"getAllVotesOfCandidates()": "90a9ab90",
					"getRemainingTime()": "efb98bcf",
					"getVotingStatus()": "581c281c",
					"owner()": "8da5cb5b",
					"vote(uint256)": "0121b93f",
					"voters(address)": "a3ec138d",
					"votingEnd()": "85a38635",
					"votingStart()": "101158af"
				}
			},
			"storageLayout": {
				"storage": [
					{
						"astId": 10,
						"contract": "contracts/HelloWorld.sol:Voting",
						"label": "candidates",
						"offset": 0,
						"slot": "0",
						"type": "t_array(t_struct(Candidate)6_storage)dyn_storage"
					},
					{
						"astId": 12,
						"contract": "contracts/HelloWorld.sol:Voting",
						"label": "owner",
						"offset": 0,
						"slot": "1",
						"type": "t_address"
					},
					{
						"astId": 16,
						"contract": "contracts/HelloWorld.sol:Voting",
						"label": "voters",
						"offset": 0,
						"slot": "2",
						"type": "t_mapping(t_address,t_bool)"
					},
					{
						"astId": 18,
						"contract": "contracts/HelloWorld.sol:Voting",
						"label": "votingStart",
						"offset": 0,
						"slot": "3",
						"type": "t_uint256"
					},
					{
						"astId": 20,
						"contract": "contracts/HelloWorld.sol:Voting",
						"label": "votingEnd",
						"offset": 0,
						"slot": "4",
						"type": "t_uint256"
					}
				],
				"types": {
					"t_address": {
						"encoding": "inplace",
						"label": "address",
						"numberOfBytes": "20"
					},
					"t_array(t_struct(Candidate)6_storage)dyn_storage": {
						"base": "t_struct(Candidate)6_storage",
						"encoding": "dynamic_array",
						"label": "struct Voting.Candidate[]",
						"numberOfBytes": "32"
					},
					"t_bool": {
						"encoding": "inplace",
						"label": "bool",
						"numberOfBytes": "1"
					},
					"t_mapping(t_address,t_bool)": {
						"encoding": "mapping",
						"key": "t_address",
						"label": "mapping(address => bool)",
						"numberOfBytes": "32",
						"value": "t_bool"
					},
					"t_string_storage": {
						"encoding": "bytes",
						"label": "string",
						"numberOfBytes": "32"
					},
					"t_struct(Candidate)6_storage": {
						"encoding": "inplace",
						"label": "struct Voting.Candidate",
						"members": [
							{
								"astId": 3,
								"contract": "contracts/HelloWorld.sol:Voting",
								"label": "name",
								"offset": 0,
								"slot": "0",
								"type": "t_string_storage"
							},
							{
								"astId": 5,
								"contract": "contracts/HelloWorld.sol:Voting",
								"label": "voteCount",
								"offset": 0,
								"slot": "1",
								"type": "t_uint256"
							}
						],
						"numberOfBytes": "64"
					},
					"t_uint256": {
						"encoding": "inplace",
						"label": "uint256",
						"numberOfBytes": "32"
					}
				}
			},
			"userdoc": {
				"kind": "user",
				"methods": {},
				"version": 1
			}
		}
	}
}